{"contracts/l2/GTokenL2.sol":{"GTokenL2":{"abi":[{"inputs":[{"internalType":"string","name":"name_","type":"string"},{"internalType":"string","name":"symbol_","type":"string"},{"internalType":"address","name":"verifier_","type":"address"},{"internalType":"address","name":"messenger_","type":"address"},{"internalType":"address","name":"l1Anchor_","type":"address"},{"internalType":"address","name":"ra_","type":"address"}],"stateMutability":"nonpayable","type":"constructor"},{"inputs":[],"name":"AccessControlBadConfirmation","type":"error"},{"inputs":[{"internalType":"address","name":"account","type":"address"},{"internalType":"bytes32","name":"neededRole","type":"bytes32"}],"name":"AccessControlUnauthorizedAccount","type":"error"},{"inputs":[],"name":"BadProof","type":"error"},{"inputs":[],"name":"DuplicateDT","type":"error"},{"inputs":[{"internalType":"address","name":"spender","type":"address"},{"internalType":"uint256","name":"allowance","type":"uint256"},{"internalType":"uint256","name":"needed","type":"uint256"}],"name":"ERC20InsufficientAllowance","type":"error"},{"inputs":[{"internalType":"address","name":"sender","type":"address"},{"internalType":"uint256","name":"balance","type":"uint256"},{"internalType":"uint256","name":"needed","type":"uint256"}],"name":"ERC20InsufficientBalance","type":"error"},{"inputs":[{"internalType":"address","name":"approver","type":"address"}],"name":"ERC20InvalidApprover","type":"error"},{"inputs":[{"internalType":"address","name":"receiver","type":"address"}],"name":"ERC20InvalidReceiver","type":"error"},{"inputs":[{"internalType":"address","name":"sender","type":"address"}],"name":"ERC20InvalidSender","type":"error"},{"inputs":[{"internalType":"address","name":"spender","type":"address"}],"name":"ERC20InvalidSpender","type":"error"},{"inputs":[],"name":"Expired","type":"error"},{"anonymous":false,"inputs":[{"indexed":true,"internalType":"address","name":"owner","type":"address"},{"indexed":true,"internalType":"address","name":"spender","type":"address"},{"indexed":false,"internalType":"uint256","name":"value","type":"uint256"}],"name":"Approval","type":"event"},{"anonymous":false,"inputs":[{"indexed":true,"internalType":"address","name":"to","type":"address"},{"indexed":true,"internalType":"bytes32","name":"dtHash","type":"bytes32"},{"indexed":false,"internalType":"uint64","name":"epochIndex","type":"uint64"},{"indexed":false,"internalType":"uint16","name":"typeCode","type":"uint16"},{"indexed":false,"internalType":"uint256","name":"qtyKWh","type":"uint256"},{"indexed":false,"internalType":"uint256","name":"gtAmount","type":"uint256"}],"name":"Minted","type":"event"},{"anonymous":false,"inputs":[{"indexed":true,"internalType":"bytes32","name":"role","type":"bytes32"},{"indexed":true,"internalType":"bytes32","name":"previousAdminRole","type":"bytes32"},{"indexed":true,"internalType":"bytes32","name":"newAdminRole","type":"bytes32"}],"name":"RoleAdminChanged","type":"event"},{"anonymous":false,"inputs":[{"indexed":true,"internalType":"bytes32","name":"role","type":"bytes32"},{"indexed":true,"internalType":"address","name":"account","type":"address"},{"indexed":true,"internalType":"address","name":"sender","type":"address"}],"name":"RoleGranted","type":"event"},{"anonymous":false,"inputs":[{"indexed":true,"internalType":"bytes32","name":"role","type":"bytes32"},{"indexed":true,"internalType":"address","name":"account","type":"address"},{"indexed":true,"internalType":"address","name":"sender","type":"address"}],"name":"RoleRevoked","type":"event"},{"anonymous":false,"inputs":[{"indexed":true,"internalType":"address","name":"from","type":"address"},{"indexed":true,"internalType":"address","name":"to","type":"address"},{"indexed":false,"internalType":"uint256","name":"value","type":"uint256"}],"name":"Transfer","type":"event"},{"inputs":[],"name":"DEFAULT_ADMIN_ROLE","outputs":[{"internalType":"bytes32","name":"","type":"bytes32"}],"stateMutability":"view","type":"function"},{"inputs":[],"name":"REGISTRY_ADMIN_ROLE","outputs":[{"internalType":"bytes32","name":"","type":"bytes32"}],"stateMutability":"view","type":"function"},{"inputs":[{"internalType":"address","name":"owner","type":"address"},{"internalType":"address","name":"spender","type":"address"}],"name":"allowance","outputs":[{"internalType":"uint256","name":"","type":"uint256"}],"stateMutability":"view","type":"function"},{"inputs":[{"internalType":"address","name":"spender","type":"address"},{"internalType":"uint256","name":"value","type":"uint256"}],"name":"approve","outputs":[{"internalType":"bool","name":"","type":"bool"}],"stateMutability":"nonpayable","type":"function"},{"inputs":[{"internalType":"address","name":"account","type":"address"}],"name":"balanceOf","outputs":[{"internalType":"uint256","name":"","type":"uint256"}],"stateMutability":"view","type":"function"},{"inputs":[],"name":"decimals","outputs":[{"internalType":"uint8","name":"","type":"uint8"}],"stateMutability":"view","type":"function"},{"inputs":[{"internalType":"bytes32","name":"role","type":"bytes32"}],"name":"getRoleAdmin","outputs":[{"internalType":"bytes32","name":"","type":"bytes32"}],"stateMutability":"view","type":"function"},{"inputs":[{"internalType":"bytes32","name":"role","type":"bytes32"},{"internalType":"address","name":"account","type":"address"}],"name":"grantRole","outputs":[],"stateMutability":"nonpayable","type":"function"},{"inputs":[{"internalType":"bytes32","name":"role","type":"bytes32"},{"internalType":"address","name":"account","type":"address"}],"name":"hasRole","outputs":[{"internalType":"bool","name":"","type":"bool"}],"stateMutability":"view","type":"function"},{"inputs":[{"internalType":"bytes32","name":"dtHash","type":"bytes32"}],"name":"isDTUsed","outputs":[{"internalType":"bool","name":"","type":"bool"}],"stateMutability":"view","type":"function"},{"inputs":[],"name":"l1Anchor","outputs":[{"internalType":"contract IGTokenAnchor","name":"","type":"address"}],"stateMutability":"view","type":"function"},{"inputs":[],"name":"messenger","outputs":[{"internalType":"contract ICrossDomainMessenger","name":"","type":"address"}],"stateMutability":"view","type":"function"},{"inputs":[{"internalType":"uint64","name":"epochIndex","type":"uint64"},{"internalType":"uint16","name":"typeCode","type":"uint16"},{"internalType":"uint256","name":"qtyKWh","type":"uint256"},{"internalType":"uint128","name":"policyNonce","type":"uint128"},{"internalType":"bytes32","name":"hiddenCommitment","type":"bytes32"},{"internalType":"uint64","name":"expiry","type":"uint64"},{"internalType":"bytes","name":"proof","type":"bytes"}],"name":"mintWithProof","outputs":[],"stateMutability":"nonpayable","type":"function"},{"inputs":[],"name":"name","outputs":[{"internalType":"string","name":"","type":"string"}],"stateMutability":"view","type":"function"},{"inputs":[{"internalType":"bytes32","name":"role","type":"bytes32"},{"internalType":"address","name":"callerConfirmation","type":"address"}],"name":"renounceRole","outputs":[],"stateMutability":"nonpayable","type":"function"},{"inputs":[{"internalType":"bytes32","name":"role","type":"bytes32"},{"internalType":"address","name":"account","type":"address"}],"name":"revokeRole","outputs":[],"stateMutability":"nonpayable","type":"function"},{"inputs":[{"internalType":"bytes4","name":"interfaceId","type":"bytes4"}],"name":"supportsInterface","outputs":[{"internalType":"bool","name":"","type":"bool"}],"stateMutability":"view","type":"function"},{"inputs":[],"name":"symbol","outputs":[{"internalType":"string","name":"","type":"string"}],"stateMutability":"view","type":"function"},{"inputs":[],"name":"totalSupply","outputs":[{"internalType":"uint256","name":"","type":"uint256"}],"stateMutability":"view","type":"function"},{"inputs":[{"internalType":"address","name":"to","type":"address"},{"internalType":"uint256","name":"value","type":"uint256"}],"name":"transfer","outputs":[{"internalType":"bool","name":"","type":"bool"}],"stateMutability":"nonpayable","type":"function"},{"inputs":[{"internalType":"address","name":"from","type":"address"},{"internalType":"address","name":"to","type":"address"},{"internalType":"uint256","name":"value","type":"uint256"}],"name":"transferFrom","outputs":[{"internalType":"bool","name":"","type":"bool"}],"stateMutability":"nonpayable","type":"function"},{"inputs":[],"name":"verifier","outputs":[{"internalType":"contract IProofVerifier","name":"","type":"address"}],"stateMutability":"view","type":"function"}],"evm":{"bytecode":{"linkReferences":{},"object":"60806040523480156200001157600080fd5b506040516200155a3803806200155a833981016040819052620000349162000272565b85856003620000448382620003b6565b506004620000538282620003b6565b5050600680546001600160a01b038088166001600160a01b03199283161790925560078054878416908316179055600880549286169290911691909117905550620000a0600033620000da565b50620000cd7fbb28eb1a0cfabcecf96003fab466159bc2e051e49d79baf049890044e907244082620000da565b5050505050505062000482565b60008281526005602090815260408083206001600160a01b038516845290915281205460ff16620001835760008381526005602090815260408083206001600160a01b03861684529091529020805460ff191660011790556200013a3390565b6001600160a01b0316826001600160a01b0316847f2f8788117e7eff1d82e926ec794901d17c78024a50270940304540a733656f0d60405160405180910390a450600162000187565b5060005b92915050565b634e487b7160e01b600052604160045260246000fd5b600082601f830112620001b557600080fd5b81516001600160401b0380821115620001d257620001d26200018d565b604051601f8301601f19908116603f01168101908282118183101715620001fd57620001fd6200018d565b81604052838152602092508660208588010111156200021b57600080fd5b600091505b838210156200023f578582018301518183018401529082019062000220565b6000602085830101528094505050505092915050565b80516001600160a01b03811681146200026d57600080fd5b919050565b60008060008060008060c087890312156200028c57600080fd5b86516001600160401b0380821115620002a457600080fd5b620002b28a838b01620001a3565b97506020890151915080821115620002c957600080fd5b50620002d889828a01620001a3565b955050620002e96040880162000255565b9350620002f96060880162000255565b9250620003096080880162000255565b91506200031960a0880162000255565b90509295509295509295565b600181811c908216806200033a57607f821691505b6020821081036200035b57634e487b7160e01b600052602260045260246000fd5b50919050565b601f821115620003b1576000816000526020600020601f850160051c810160208610156200038c5750805b601f850160051c820191505b81811015620003ad5782815560010162000398565b5050505b505050565b81516001600160401b03811115620003d257620003d26200018d565b620003ea81620003e3845462000325565b8462000361565b602080601f831160018114620004225760008415620004095750858301515b600019600386901b1c1916600185901b178555620003ad565b600085815260208120601f198616915b82811015620004535788860151825594840194600190910190840162000432565b5085821015620004725787850151600019600388901b60f8161c191681555b5050505050600190811b01905550565b6110c880620004926000396000f3fe608060405234801561001057600080fd5b50600436106101425760003560e01c80633cd4d649116100b8578063a3b9c1d81161007c578063a3b9c1d8146102b3578063a9059cbb146102d6578063b2ced745146102e9578063bf584c4b146102fc578063d547741f14610323578063dd62ed3e1461033657600080fd5b80633cd4d6491461025457806370a082311461026757806391d148541461029057806395d89b41146102a3578063a217fddf146102ab57600080fd5b8063248a9ca31161010a578063248a9ca3146101bc5780632b7ac3f3146101df5780632f2ff15d1461020a578063313ce5671461021f57806336568abe1461022e5780633cb747bf1461024157600080fd5b806301ffc9a71461014757806306fdde031461016f578063095ea7b31461018457806318160ddd1461019757806323b872dd146101a9575b600080fd5b61015a610155366004610ca2565b61036f565b60405190151581526020015b60405180910390f35b6101776103a6565b6040516101669190610d19565b61015a610192366004610d48565b610438565b6002545b604051908152602001610166565b61015a6101b7366004610d72565b610450565b61019b6101ca366004610dae565b60009081526005602052604090206001015490565b6006546101f2906001600160a01b031681565b6040516001600160a01b039091168152602001610166565b61021d610218366004610dc7565b610474565b005b60405160128152602001610166565b61021d61023c366004610dc7565b61049f565b6007546101f2906001600160a01b031681565b61021d610262366004610e54565b6104d7565b61019b610275366004610f04565b6001600160a01b031660009081526020819052604090205490565b61015a61029e366004610dc7565b6107cb565b6101776107f6565b61019b600081565b61015a6102c1366004610dae565b60009081526009602052604090205460ff1690565b61015a6102e4366004610d48565b610805565b6008546101f2906001600160a01b031681565b61019b7fbb28eb1a0cfabcecf96003fab466159bc2e051e49d79baf049890044e907244081565b61021d610331366004610dc7565b610813565b61019b610344366004610f1f565b6001600160a01b03918216600090815260016020908152604080832093909416825291909152205490565b60006001600160e01b03198216637965db0b60e01b14806103a057506301ffc9a760e01b6001600160e01b03198316145b92915050565b6060600380546103b590610f49565b80601f01602080910402602001604051908101604052809291908181526020018280546103e190610f49565b801561042e5780601f106104035761010080835404028352916020019161042e565b820191906000526020600020905b81548152906001019060200180831161041157829003601f168201915b5050505050905090565b600033610446818585610838565b5060019392505050565b60003361045e858285610845565b6104698585856108c3565b506001949350505050565b60008281526005602052604090206001015461048f81610922565b610499838361092f565b50505050565b6001600160a01b03811633146104c85760405163334bd91960e11b815260040160405180910390fd5b6104d282826109c3565b505050565b428367ffffffffffffffff16101561050257604051630407b05b60e31b815260040160405180910390fd5b6040805160c08a901b6001600160c01b03191660208083019190915260f08a901b6001600160f01b0319166028830152602a8201899052608088901b6fffffffffffffffffffffffffffffffff1916604a8301528251603a818403018152605a9092018352815191810191909120600081815260099092529190205460ff161561059f576040516394b0b32160e01b815260040160405180910390fd5b6000600660009054906101000a90046001600160a01b03166001600160a01b0316631be96f553384898e8e8e8e8d8d8d6040518b63ffffffff1660e01b81526004016105f49a99989796959493929190610f83565b602060405180830381865afa158015610611573d6000803e3d6000fd5b505050506040513d601f19601f820116820180604052508101906106359190611015565b90508061065557604051637ca55c7760e01b815260040160405180910390fd5b6000828152600960205260409020805460ff19166001179055876106793382610a30565b604051602481018490523360448201526064810182905267ffffffffffffffff8c16608482015261ffff8b1660a482015260c481018a905260009060e40160408051601f198184030181529181526020820180516001600160e01b03166310e5e03960e21b1790526007546008549151633dbb202b60e01b81529293506001600160a01b0390811692633dbb202b9261071d9216908590620f424090600401611037565b600060405180830381600087803b15801561073757600080fd5b505af115801561074b573d6000803e3d6000fd5b5050505083336001600160a01b03167fb75cab9ad16af20cf391d68b2472f81ca4a73909ced412c4402576b86590b2908e8e8e876040516107b5949392919067ffffffffffffffff94909416845261ffff9290921660208401526040830152606082015260800190565b60405180910390a3505050505050505050505050565b60009182526005602090815260408084206001600160a01b0393909316845291905290205460ff1690565b6060600480546103b590610f49565b6000336104468185856108c3565b60008281526005602052604090206001015461082e81610922565b61049983836109c3565b6104d28383836001610a6a565b6001600160a01b0383811660009081526001602090815260408083209386168352929052205460001981101561049957818110156108b457604051637dc7a0d960e11b81526001600160a01b038416600482015260248101829052604481018390526064015b60405180910390fd5b61049984848484036000610a6a565b6001600160a01b0383166108ed57604051634b637e8f60e11b8152600060048201526024016108ab565b6001600160a01b0382166109175760405163ec442f0560e01b8152600060048201526024016108ab565b6104d2838383610b3f565b61092c8133610c69565b50565b600061093b83836107cb565b6109bb5760008381526005602090815260408083206001600160a01b03861684529091529020805460ff191660011790556109733390565b6001600160a01b0316826001600160a01b0316847f2f8788117e7eff1d82e926ec794901d17c78024a50270940304540a733656f0d60405160405180910390a45060016103a0565b5060006103a0565b60006109cf83836107cb565b156109bb5760008381526005602090815260408083206001600160a01b0386168085529252808320805460ff1916905551339286917ff6391f5c32d9c69d2a47ea670b442974b53935d1edc7fd64eb21e047a839171b9190a45060016103a0565b6001600160a01b038216610a5a5760405163ec442f0560e01b8152600060048201526024016108ab565b610a6660008383610b3f565b5050565b6001600160a01b038416610a945760405163e602df0560e01b8152600060048201526024016108ab565b6001600160a01b038316610abe57604051634a1406b160e11b8152600060048201526024016108ab565b6001600160a01b038085166000908152600160209081526040808320938716835292905220829055801561049957826001600160a01b0316846001600160a01b03167f8c5be1e5ebec7d5bd14f71427d1e84f3dd0314c0f7b2291e5b200ac8c7c3b92584604051610b3191815260200190565b60405180910390a350505050565b6001600160a01b038316610b6a578060026000828254610b5f9190611071565b90915550610bdc9050565b6001600160a01b03831660009081526020819052604090205481811015610bbd5760405163391434e360e21b81526001600160a01b038516600482015260248101829052604481018390526064016108ab565b6001600160a01b03841660009081526020819052604090209082900390555b6001600160a01b038216610bf857600280548290039055610c17565b6001600160a01b03821660009081526020819052604090208054820190555b816001600160a01b0316836001600160a01b03167fddf252ad1be2c89b69c2b068fc378daa952ba7f163c4a11628f55a4df523b3ef83604051610c5c91815260200190565b60405180910390a3505050565b610c7382826107cb565b610a665760405163e2517d3f60e01b81526001600160a01b0382166004820152602481018390526044016108ab565b600060208284031215610cb457600080fd5b81356001600160e01b031981168114610ccc57600080fd5b9392505050565b6000815180845260005b81811015610cf957602081850181015186830182015201610cdd565b506000602082860101526020601f19601f83011685010191505092915050565b602081526000610ccc6020830184610cd3565b80356001600160a01b0381168114610d4357600080fd5b919050565b60008060408385031215610d5b57600080fd5b610d6483610d2c565b946020939093013593505050565b600080600060608486031215610d8757600080fd5b610d9084610d2c565b9250610d9e60208501610d2c565b9150604084013590509250925092565b600060208284031215610dc057600080fd5b5035919050565b60008060408385031215610dda57600080fd5b82359150610dea60208401610d2c565b90509250929050565b803567ffffffffffffffff81168114610d4357600080fd5b60008083601f840112610e1d57600080fd5b50813567ffffffffffffffff811115610e3557600080fd5b602083019150836020828501011115610e4d57600080fd5b9250929050565b60008060008060008060008060e0898b031215610e7057600080fd5b610e7989610df3565b9750602089013561ffff81168114610e9057600080fd5b96506040890135955060608901356001600160801b0381168114610eb357600080fd5b945060808901359350610ec860a08a01610df3565b925060c089013567ffffffffffffffff811115610ee457600080fd5b610ef08b828c01610e0b565b999c989b5096995094979396929594505050565b600060208284031215610f1657600080fd5b610ccc82610d2c565b60008060408385031215610f3257600080fd5b610f3b83610d2c565b9150610dea60208401610d2c565b600181811c90821680610f5d57607f821691505b602082108103610f7d57634e487b7160e01b600052602260045260246000fd5b50919050565b6001600160a01b038b168152602081018a90526040810189905267ffffffffffffffff888116606083015261ffff8816608083015260a082018790526001600160801b03861660c0830152841660e08201526101206101008201819052810182905260006101408385828501376000838501820152601f909301601f19169091019091019a9950505050505050505050565b60006020828403121561102757600080fd5b81518015158114610ccc57600080fd5b6001600160a01b038416815260606020820181905260009061105b90830185610cd3565b905063ffffffff83166040830152949350505050565b808201808211156103a057634e487b7160e01b600052601160045260246000fdfea2646970667358221220012c1c74ba3950e7d86869d4de95f693a15ce93a7f64e1f4361536611456fb8764736f6c63430008170033","opcodes":"PUSH1 0x80 PUSH1 0x40 MSTORE CALLVALUE DUP1 ISZERO PUSH3 0x11 JUMPI PUSH1 0x0 DUP1 REVERT JUMPDEST POP PUSH1 0x40 MLOAD PUSH3 0x155A CODESIZE SUB DUP1 PUSH3 0x155A DUP4 CODECOPY DUP2 ADD PUSH1 0x40 DUP2 SWAP1 MSTORE PUSH3 0x34 SWAP2 PUSH3 0x272 JUMP JUMPDEST DUP6 DUP6 PUSH1 0x3 PUSH3 0x44 DUP4 DUP3 PUSH3 0x3B6 JUMP JUMPDEST POP PUSH1 0x4 PUSH3 0x53 DUP3 DUP3 PUSH3 0x3B6 JUMP JUMPDEST POP POP PUSH1 0x6 DUP1 SLOAD PUSH1 0x1 PUSH1 0x1 PUSH1 0xA0 SHL SUB DUP1 DUP9 AND PUSH1 0x1 PUSH1 0x1 PUSH1 0xA0 SHL SUB NOT SWAP3 DUP4 AND OR SWAP1 SWAP3 SSTORE PUSH1 0x7 DUP1 SLOAD DUP8 DUP5 AND SWAP1 DUP4 AND OR SWAP1 SSTORE PUSH1 0x8 DUP1 SLOAD SWAP3 DUP7 AND SWAP3 SWAP1 SWAP2 AND SWAP2 SWAP1 SWAP2 OR SWAP1 SSTORE POP PUSH3 0xA0 PUSH1 0x0 CALLER PUSH3 0xDA JUMP JUMPDEST POP PUSH3 0xCD PUSH32 0xBB28EB1A0CFABCECF96003FAB466159BC2E051E49D79BAF049890044E9072440 DUP3 PUSH3 0xDA JUMP JUMPDEST POP POP POP POP POP POP POP PUSH3 0x482 JUMP JUMPDEST PUSH1 0x0 DUP3 DUP2 MSTORE PUSH1 0x5 PUSH1 0x20 SWAP1 DUP2 MSTORE PUSH1 0x40 DUP1 DUP4 KECCAK256 PUSH1 0x1 PUSH1 0x1 PUSH1 0xA0 SHL SUB DUP6 AND DUP5 MSTORE SWAP1 SWAP2 MSTORE DUP2 KECCAK256 SLOAD PUSH1 0xFF AND PUSH3 0x183 JUMPI PUSH1 0x0 DUP4 DUP2 MSTORE PUSH1 0x5 PUSH1 0x20 SWAP1 DUP2 MSTORE PUSH1 0x40 DUP1 DUP4 KECCAK256 PUSH1 0x1 PUSH1 0x1 PUSH1 0xA0 SHL SUB DUP7 AND DUP5 MSTORE SWAP1 SWAP2 MSTORE SWAP1 KECCAK256 DUP1 SLOAD PUSH1 0xFF NOT AND PUSH1 0x1 OR SWAP1 SSTORE PUSH3 0x13A CALLER SWAP1 JUMP JUMPDEST PUSH1 0x1 PUSH1 0x1 PUSH1 0xA0 SHL SUB AND DUP3 PUSH1 0x1 PUSH1 0x1 PUSH1 0xA0 SHL SUB AND DUP5 PUSH32 0x2F8788117E7EFF1D82E926EC794901D17C78024A50270940304540A733656F0D PUSH1 0x40 MLOAD PUSH1 0x40 MLOAD DUP1 SWAP2 SUB SWAP1 LOG4 POP PUSH1 0x1 PUSH3 0x187 JUMP JUMPDEST POP PUSH1 0x0 JUMPDEST SWAP3 SWAP2 POP POP JUMP JUMPDEST PUSH4 0x4E487B71 PUSH1 0xE0 SHL PUSH1 0x0 MSTORE PUSH1 0x41 PUSH1 0x4 MSTORE PUSH1 0x24 PUSH1 0x0 REVERT JUMPDEST PUSH1 0x0 DUP3 PUSH1 0x1F DUP4 ADD SLT PUSH3 0x1B5 JUMPI PUSH1 0x0 DUP1 REVERT JUMPDEST DUP2 MLOAD PUSH1 0x1 PUSH1 0x1 PUSH1 0x40 SHL SUB DUP1 DUP3 GT ISZERO PUSH3 0x1D2 JUMPI PUSH3 0x1D2 PUSH3 0x18D JUMP JUMPDEST PUSH1 0x40 MLOAD PUSH1 0x1F DUP4 ADD PUSH1 0x1F NOT SWAP1 DUP2 AND PUSH1 0x3F ADD AND DUP2 ADD SWAP1 DUP3 DUP3 GT DUP2 DUP4 LT OR ISZERO PUSH3 0x1FD JUMPI PUSH3 0x1FD PUSH3 0x18D JUMP JUMPDEST DUP2 PUSH1 0x40 MSTORE DUP4 DUP2 MSTORE PUSH1 0x20 SWAP3 POP DUP7 PUSH1 0x20 DUP6 DUP9 ADD ADD GT ISZERO PUSH3 0x21B JUMPI PUSH1 0x0 DUP1 REVERT JUMPDEST PUSH1 0x0 SWAP2 POP JUMPDEST DUP4 DUP3 LT ISZERO PUSH3 0x23F JUMPI DUP6 DUP3 ADD DUP4 ADD MLOAD DUP2 DUP4 ADD DUP5 ADD MSTORE SWAP1 DUP3 ADD SWAP1 PUSH3 0x220 JUMP JUMPDEST PUSH1 0x0 PUSH1 0x20 DUP6 DUP4 ADD ADD MSTORE DUP1 SWAP5 POP POP POP POP POP SWAP3 SWAP2 POP POP JUMP JUMPDEST DUP1 MLOAD PUSH1 0x1 PUSH1 0x1 PUSH1 0xA0 SHL SUB DUP2 AND DUP2 EQ PUSH3 0x26D JUMPI PUSH1 0x0 DUP1 REVERT JUMPDEST SWAP2 SWAP1 POP JUMP JUMPDEST PUSH1 0x0 DUP1 PUSH1 0x0 DUP1 PUSH1 0x0 DUP1 PUSH1 0xC0 DUP8 DUP10 SUB SLT ISZERO PUSH3 0x28C JUMPI PUSH1 0x0 DUP1 REVERT JUMPDEST DUP7 MLOAD PUSH1 0x1 PUSH1 0x1 PUSH1 0x40 SHL SUB DUP1 DUP3 GT ISZERO PUSH3 0x2A4 JUMPI PUSH1 0x0 DUP1 REVERT JUMPDEST PUSH3 0x2B2 DUP11 DUP4 DUP12 ADD PUSH3 0x1A3 JUMP JUMPDEST SWAP8 POP PUSH1 0x20 DUP10 ADD MLOAD SWAP2 POP DUP1 DUP3 GT ISZERO PUSH3 0x2C9 JUMPI PUSH1 0x0 DUP1 REVERT JUMPDEST POP PUSH3 0x2D8 DUP10 DUP3 DUP11 ADD PUSH3 0x1A3 JUMP JUMPDEST SWAP6 POP POP PUSH3 0x2E9 PUSH1 0x40 DUP9 ADD PUSH3 0x255 JUMP JUMPDEST SWAP4 POP PUSH3 0x2F9 PUSH1 0x60 DUP9 ADD PUSH3 0x255 JUMP JUMPDEST SWAP3 POP PUSH3 0x309 PUSH1 0x80 DUP9 ADD PUSH3 0x255 JUMP JUMPDEST SWAP2 POP PUSH3 0x319 PUSH1 0xA0 DUP9 ADD PUSH3 0x255 JUMP JUMPDEST SWAP1 POP SWAP3 SWAP6 POP SWAP3 SWAP6 POP SWAP3 SWAP6 JUMP JUMPDEST PUSH1 0x1 DUP2 DUP2 SHR SWAP1 DUP3 AND DUP1 PUSH3 0x33A JUMPI PUSH1 0x7F DUP3 AND SWAP2 POP JUMPDEST PUSH1 0x20 DUP3 LT DUP2 SUB PUSH3 0x35B JUMPI PUSH4 0x4E487B71 PUSH1 0xE0 SHL PUSH1 0x0 MSTORE PUSH1 0x22 PUSH1 0x4 MSTORE PUSH1 0x24 PUSH1 0x0 REVERT JUMPDEST POP SWAP2 SWAP1 POP JUMP JUMPDEST PUSH1 0x1F DUP3 GT ISZERO PUSH3 0x3B1 JUMPI PUSH1 0x0 DUP2 PUSH1 0x0 MSTORE PUSH1 0x20 PUSH1 0x0 KECCAK256 PUSH1 0x1F DUP6 ADD PUSH1 0x5 SHR DUP2 ADD PUSH1 0x20 DUP7 LT ISZERO PUSH3 0x38C JUMPI POP DUP1 JUMPDEST PUSH1 0x1F DUP6 ADD PUSH1 0x5 SHR DUP3 ADD SWAP2 POP JUMPDEST DUP2 DUP2 LT ISZERO PUSH3 0x3AD JUMPI DUP3 DUP2 SSTORE PUSH1 0x1 ADD PUSH3 0x398 JUMP JUMPDEST POP POP POP JUMPDEST POP POP POP JUMP JUMPDEST DUP2 MLOAD PUSH1 0x1 PUSH1 0x1 PUSH1 0x40 SHL SUB DUP2 GT ISZERO PUSH3 0x3D2 JUMPI PUSH3 0x3D2 PUSH3 0x18D JUMP JUMPDEST PUSH3 0x3EA DUP2 PUSH3 0x3E3 DUP5 SLOAD PUSH3 0x325 JUMP JUMPDEST DUP5 PUSH3 0x361 JUMP JUMPDEST PUSH1 0x20 DUP1 PUSH1 0x1F DUP4 GT PUSH1 0x1 DUP2 EQ PUSH3 0x422 JUMPI PUSH1 0x0 DUP5 ISZERO PUSH3 0x409 JUMPI POP DUP6 DUP4 ADD MLOAD JUMPDEST PUSH1 0x0 NOT PUSH1 0x3 DUP7 SWAP1 SHL SHR NOT AND PUSH1 0x1 DUP6 SWAP1 SHL OR DUP6 SSTORE PUSH3 0x3AD JUMP JUMPDEST PUSH1 0x0 DUP6 DUP2 MSTORE PUSH1 0x20 DUP2 KECCAK256 PUSH1 0x1F NOT DUP7 AND SWAP2 JUMPDEST DUP3 DUP2 LT ISZERO PUSH3 0x453 JUMPI DUP9 DUP7 ADD MLOAD DUP3 SSTORE SWAP5 DUP5 ADD SWAP5 PUSH1 0x1 SWAP1 SWAP2 ADD SWAP1 DUP5 ADD PUSH3 0x432 JUMP JUMPDEST POP DUP6 DUP3 LT ISZERO PUSH3 0x472 JUMPI DUP8 DUP6 ADD MLOAD PUSH1 0x0 NOT PUSH1 0x3 DUP9 SWAP1 SHL PUSH1 0xF8 AND SHR NOT AND DUP2 SSTORE JUMPDEST POP POP POP POP POP PUSH1 0x1 SWAP1 DUP2 SHL ADD SWAP1 SSTORE POP JUMP JUMPDEST PUSH2 0x10C8 DUP1 PUSH3 0x492 PUSH1 0x0 CODECOPY PUSH1 0x0 RETURN INVALID PUSH1 0x80 PUSH1 0x40 MSTORE CALLVALUE DUP1 ISZERO PUSH2 0x10 JUMPI PUSH1 0x0 DUP1 REVERT JUMPDEST POP PUSH1 0x4 CALLDATASIZE LT PUSH2 0x142 JUMPI PUSH1 0x0 CALLDATALOAD PUSH1 0xE0 SHR DUP1 PUSH4 0x3CD4D649 GT PUSH2 0xB8 JUMPI DUP1 PUSH4 0xA3B9C1D8 GT PUSH2 0x7C JUMPI DUP1 PUSH4 0xA3B9C1D8 EQ PUSH2 0x2B3 JUMPI DUP1 PUSH4 0xA9059CBB EQ PUSH2 0x2D6 JUMPI DUP1 PUSH4 0xB2CED745 EQ PUSH2 0x2E9 JUMPI DUP1 PUSH4 0xBF584C4B EQ PUSH2 0x2FC JUMPI DUP1 PUSH4 0xD547741F EQ PUSH2 0x323 JUMPI DUP1 PUSH4 0xDD62ED3E EQ PUSH2 0x336 JUMPI PUSH1 0x0 DUP1 REVERT JUMPDEST DUP1 PUSH4 0x3CD4D649 EQ PUSH2 0x254 JUMPI DUP1 PUSH4 0x70A08231 EQ PUSH2 0x267 JUMPI DUP1 PUSH4 0x91D14854 EQ PUSH2 0x290 JUMPI DUP1 PUSH4 0x95D89B41 EQ PUSH2 0x2A3 JUMPI DUP1 PUSH4 0xA217FDDF EQ PUSH2 0x2AB JUMPI PUSH1 0x0 DUP1 REVERT JUMPDEST DUP1 PUSH4 0x248A9CA3 GT PUSH2 0x10A JUMPI DUP1 PUSH4 0x248A9CA3 EQ PUSH2 0x1BC JUMPI DUP1 PUSH4 0x2B7AC3F3 EQ PUSH2 0x1DF JUMPI DUP1 PUSH4 0x2F2FF15D EQ PUSH2 0x20A JUMPI DUP1 PUSH4 0x313CE567 EQ PUSH2 0x21F JUMPI DUP1 PUSH4 0x36568ABE EQ PUSH2 0x22E JUMPI DUP1 PUSH4 0x3CB747BF EQ PUSH2 0x241 JUMPI PUSH1 0x0 DUP1 REVERT JUMPDEST DUP1 PUSH4 0x1FFC9A7 EQ PUSH2 0x147 JUMPI DUP1 PUSH4 0x6FDDE03 EQ PUSH2 0x16F JUMPI DUP1 PUSH4 0x95EA7B3 EQ PUSH2 0x184 JUMPI DUP1 PUSH4 0x18160DDD EQ PUSH2 0x197 JUMPI DUP1 PUSH4 0x23B872DD EQ PUSH2 0x1A9 JUMPI JUMPDEST PUSH1 0x0 DUP1 REVERT JUMPDEST PUSH2 0x15A PUSH2 0x155 CALLDATASIZE PUSH1 0x4 PUSH2 0xCA2 JUMP JUMPDEST PUSH2 0x36F JUMP JUMPDEST PUSH1 0x40 MLOAD SWAP1 ISZERO ISZERO DUP2 MSTORE PUSH1 0x20 ADD JUMPDEST PUSH1 0x40 MLOAD DUP1 SWAP2 SUB SWAP1 RETURN JUMPDEST PUSH2 0x177 PUSH2 0x3A6 JUMP JUMPDEST PUSH1 0x40 MLOAD PUSH2 0x166 SWAP2 SWAP1 PUSH2 0xD19 JUMP JUMPDEST PUSH2 0x15A PUSH2 0x192 CALLDATASIZE PUSH1 0x4 PUSH2 0xD48 JUMP JUMPDEST PUSH2 0x438 JUMP JUMPDEST PUSH1 0x2 SLOAD JUMPDEST PUSH1 0x40 MLOAD SWAP1 DUP2 MSTORE PUSH1 0x20 ADD PUSH2 0x166 JUMP JUMPDEST PUSH2 0x15A PUSH2 0x1B7 CALLDATASIZE PUSH1 0x4 PUSH2 0xD72 JUMP JUMPDEST PUSH2 0x450 JUMP JUMPDEST PUSH2 0x19B PUSH2 0x1CA CALLDATASIZE PUSH1 0x4 PUSH2 0xDAE JUMP JUMPDEST PUSH1 0x0 SWAP1 DUP2 MSTORE PUSH1 0x5 PUSH1 0x20 MSTORE PUSH1 0x40 SWAP1 KECCAK256 PUSH1 0x1 ADD SLOAD SWAP1 JUMP JUMPDEST PUSH1 0x6 SLOAD PUSH2 0x1F2 SWAP1 PUSH1 0x1 PUSH1 0x1 PUSH1 0xA0 SHL SUB AND DUP2 JUMP JUMPDEST PUSH1 0x40 MLOAD PUSH1 0x1 PUSH1 0x1 PUSH1 0xA0 SHL SUB SWAP1 SWAP2 AND DUP2 MSTORE PUSH1 0x20 ADD PUSH2 0x166 JUMP JUMPDEST PUSH2 0x21D PUSH2 0x218 CALLDATASIZE PUSH1 0x4 PUSH2 0xDC7 JUMP JUMPDEST PUSH2 0x474 JUMP JUMPDEST STOP JUMPDEST PUSH1 0x40 MLOAD PUSH1 0x12 DUP2 MSTORE PUSH1 0x20 ADD PUSH2 0x166 JUMP JUMPDEST PUSH2 0x21D PUSH2 0x23C CALLDATASIZE PUSH1 0x4 PUSH2 0xDC7 JUMP JUMPDEST PUSH2 0x49F JUMP JUMPDEST PUSH1 0x7 SLOAD PUSH2 0x1F2 SWAP1 PUSH1 0x1 PUSH1 0x1 PUSH1 0xA0 SHL SUB AND DUP2 JUMP JUMPDEST PUSH2 0x21D PUSH2 0x262 CALLDATASIZE PUSH1 0x4 PUSH2 0xE54 JUMP JUMPDEST PUSH2 0x4D7 JUMP JUMPDEST PUSH2 0x19B PUSH2 0x275 CALLDATASIZE PUSH1 0x4 PUSH2 0xF04 JUMP JUMPDEST PUSH1 0x1 PUSH1 0x1 PUSH1 0xA0 SHL SUB AND PUSH1 0x0 SWAP1 DUP2 MSTORE PUSH1 0x20 DUP2 SWAP1 MSTORE PUSH1 0x40 SWAP1 KECCAK256 SLOAD SWAP1 JUMP JUMPDEST PUSH2 0x15A PUSH2 0x29E CALLDATASIZE PUSH1 0x4 PUSH2 0xDC7 JUMP JUMPDEST PUSH2 0x7CB JUMP JUMPDEST PUSH2 0x177 PUSH2 0x7F6 JUMP JUMPDEST PUSH2 0x19B PUSH1 0x0 DUP2 JUMP JUMPDEST PUSH2 0x15A PUSH2 0x2C1 CALLDATASIZE PUSH1 0x4 PUSH2 0xDAE JUMP JUMPDEST PUSH1 0x0 SWAP1 DUP2 MSTORE PUSH1 0x9 PUSH1 0x20 MSTORE PUSH1 0x40 SWAP1 KECCAK256 SLOAD PUSH1 0xFF AND SWAP1 JUMP JUMPDEST PUSH2 0x15A PUSH2 0x2E4 CALLDATASIZE PUSH1 0x4 PUSH2 0xD48 JUMP JUMPDEST PUSH2 0x805 JUMP JUMPDEST PUSH1 0x8 SLOAD PUSH2 0x1F2 SWAP1 PUSH1 0x1 PUSH1 0x1 PUSH1 0xA0 SHL SUB AND DUP2 JUMP JUMPDEST PUSH2 0x19B PUSH32 0xBB28EB1A0CFABCECF96003FAB466159BC2E051E49D79BAF049890044E9072440 DUP2 JUMP JUMPDEST PUSH2 0x21D PUSH2 0x331 CALLDATASIZE PUSH1 0x4 PUSH2 0xDC7 JUMP JUMPDEST PUSH2 0x813 JUMP JUMPDEST PUSH2 0x19B PUSH2 0x344 CALLDATASIZE PUSH1 0x4 PUSH2 0xF1F JUMP JUMPDEST PUSH1 0x1 PUSH1 0x1 PUSH1 0xA0 SHL SUB SWAP2 DUP3 AND PUSH1 0x0 SWAP1 DUP2 MSTORE PUSH1 0x1 PUSH1 0x20 SWAP1 DUP2 MSTORE PUSH1 0x40 DUP1 DUP4 KECCAK256 SWAP4 SWAP1 SWAP5 AND DUP3 MSTORE SWAP2 SWAP1 SWAP2 MSTORE KECCAK256 SLOAD SWAP1 JUMP JUMPDEST PUSH1 0x0 PUSH1 0x1 PUSH1 0x1 PUSH1 0xE0 SHL SUB NOT DUP3 AND PUSH4 0x7965DB0B PUSH1 0xE0 SHL EQ DUP1 PUSH2 0x3A0 JUMPI POP PUSH4 0x1FFC9A7 PUSH1 0xE0 SHL PUSH1 0x1 PUSH1 0x1 PUSH1 0xE0 SHL SUB NOT DUP4 AND EQ JUMPDEST SWAP3 SWAP2 POP POP JUMP JUMPDEST PUSH1 0x60 PUSH1 0x3 DUP1 SLOAD PUSH2 0x3B5 SWAP1 PUSH2 0xF49 JUMP JUMPDEST DUP1 PUSH1 0x1F ADD PUSH1 0x20 DUP1 SWAP2 DIV MUL PUSH1 0x20 ADD PUSH1 0x40 MLOAD SWAP1 DUP2 ADD PUSH1 0x40 MSTORE DUP1 SWAP3 SWAP2 SWAP1 DUP2 DUP2 MSTORE PUSH1 0x20 ADD DUP3 DUP1 SLOAD PUSH2 0x3E1 SWAP1 PUSH2 0xF49 JUMP JUMPDEST DUP1 ISZERO PUSH2 0x42E JUMPI DUP1 PUSH1 0x1F LT PUSH2 0x403 JUMPI PUSH2 0x100 DUP1 DUP4 SLOAD DIV MUL DUP4 MSTORE SWAP2 PUSH1 0x20 ADD SWAP2 PUSH2 0x42E JUMP JUMPDEST DUP3 ADD SWAP2 SWAP1 PUSH1 0x0 MSTORE PUSH1 0x20 PUSH1 0x0 KECCAK256 SWAP1 JUMPDEST DUP2 SLOAD DUP2 MSTORE SWAP1 PUSH1 0x1 ADD SWAP1 PUSH1 0x20 ADD DUP1 DUP4 GT PUSH2 0x411 JUMPI DUP3 SWAP1 SUB PUSH1 0x1F AND DUP3 ADD SWAP2 JUMPDEST POP POP POP POP POP SWAP1 POP SWAP1 JUMP JUMPDEST PUSH1 0x0 CALLER PUSH2 0x446 DUP2 DUP6 DUP6 PUSH2 0x838 JUMP JUMPDEST POP PUSH1 0x1 SWAP4 SWAP3 POP POP POP JUMP JUMPDEST PUSH1 0x0 CALLER PUSH2 0x45E DUP6 DUP3 DUP6 PUSH2 0x845 JUMP JUMPDEST PUSH2 0x469 DUP6 DUP6 DUP6 PUSH2 0x8C3 JUMP JUMPDEST POP PUSH1 0x1 SWAP5 SWAP4 POP POP POP POP JUMP JUMPDEST PUSH1 0x0 DUP3 DUP2 MSTORE PUSH1 0x5 PUSH1 0x20 MSTORE PUSH1 0x40 SWAP1 KECCAK256 PUSH1 0x1 ADD SLOAD PUSH2 0x48F DUP2 PUSH2 0x922 JUMP JUMPDEST PUSH2 0x499 DUP4 DUP4 PUSH2 0x92F JUMP JUMPDEST POP POP POP POP JUMP JUMPDEST PUSH1 0x1 PUSH1 0x1 PUSH1 0xA0 SHL SUB DUP2 AND CALLER EQ PUSH2 0x4C8 JUMPI PUSH1 0x40 MLOAD PUSH4 0x334BD919 PUSH1 0xE1 SHL DUP2 MSTORE PUSH1 0x4 ADD PUSH1 0x40 MLOAD DUP1 SWAP2 SUB SWAP1 REVERT JUMPDEST PUSH2 0x4D2 DUP3 DUP3 PUSH2 0x9C3 JUMP JUMPDEST POP POP POP JUMP JUMPDEST TIMESTAMP DUP4 PUSH8 0xFFFFFFFFFFFFFFFF AND LT ISZERO PUSH2 0x502 JUMPI PUSH1 0x40 MLOAD PUSH4 0x407B05B PUSH1 0xE3 SHL DUP2 MSTORE PUSH1 0x4 ADD PUSH1 0x40 MLOAD DUP1 SWAP2 SUB SWAP1 REVERT JUMPDEST PUSH1 0x40 DUP1 MLOAD PUSH1 0xC0 DUP11 SWAP1 SHL PUSH1 0x1 PUSH1 0x1 PUSH1 0xC0 SHL SUB NOT AND PUSH1 0x20 DUP1 DUP4 ADD SWAP2 SWAP1 SWAP2 MSTORE PUSH1 0xF0 DUP11 SWAP1 SHL PUSH1 0x1 PUSH1 0x1 PUSH1 0xF0 SHL SUB NOT AND PUSH1 0x28 DUP4 ADD MSTORE PUSH1 0x2A DUP3 ADD DUP10 SWAP1 MSTORE PUSH1 0x80 DUP9 SWAP1 SHL PUSH16 0xFFFFFFFFFFFFFFFFFFFFFFFFFFFFFFFF NOT AND PUSH1 0x4A DUP4 ADD MSTORE DUP3 MLOAD PUSH1 0x3A DUP2 DUP5 SUB ADD DUP2 MSTORE PUSH1 0x5A SWAP1 SWAP3 ADD DUP4 MSTORE DUP2 MLOAD SWAP2 DUP2 ADD SWAP2 SWAP1 SWAP2 KECCAK256 PUSH1 0x0 DUP2 DUP2 MSTORE PUSH1 0x9 SWAP1 SWAP3 MSTORE SWAP2 SWAP1 KECCAK256 SLOAD PUSH1 0xFF AND ISZERO PUSH2 0x59F JUMPI PUSH1 0x40 MLOAD PUSH4 0x94B0B321 PUSH1 0xE0 SHL DUP2 MSTORE PUSH1 0x4 ADD PUSH1 0x40 MLOAD DUP1 SWAP2 SUB SWAP1 REVERT JUMPDEST PUSH1 0x0 PUSH1 0x6 PUSH1 0x0 SWAP1 SLOAD SWAP1 PUSH2 0x100 EXP SWAP1 DIV PUSH1 0x1 PUSH1 0x1 PUSH1 0xA0 SHL SUB AND PUSH1 0x1 PUSH1 0x1 PUSH1 0xA0 SHL SUB AND PUSH4 0x1BE96F55 CALLER DUP5 DUP10 DUP15 DUP15 DUP15 DUP15 DUP14 DUP14 DUP14 PUSH1 0x40 MLOAD DUP12 PUSH4 0xFFFFFFFF AND PUSH1 0xE0 SHL DUP2 MSTORE PUSH1 0x4 ADD PUSH2 0x5F4 SWAP11 SWAP10 SWAP9 SWAP8 SWAP7 SWAP6 SWAP5 SWAP4 SWAP3 SWAP2 SWAP1 PUSH2 0xF83 JUMP JUMPDEST PUSH1 0x20 PUSH1 0x40 MLOAD DUP1 DUP4 SUB DUP2 DUP7 GAS STATICCALL ISZERO DUP1 ISZERO PUSH2 0x611 JUMPI RETURNDATASIZE PUSH1 0x0 DUP1 RETURNDATACOPY RETURNDATASIZE PUSH1 0x0 REVERT JUMPDEST POP POP POP POP PUSH1 0x40 MLOAD RETURNDATASIZE PUSH1 0x1F NOT PUSH1 0x1F DUP3 ADD AND DUP3 ADD DUP1 PUSH1 0x40 MSTORE POP DUP2 ADD SWAP1 PUSH2 0x635 SWAP2 SWAP1 PUSH2 0x1015 JUMP JUMPDEST SWAP1 POP DUP1 PUSH2 0x655 JUMPI PUSH1 0x40 MLOAD PUSH4 0x7CA55C77 PUSH1 0xE0 SHL DUP2 MSTORE PUSH1 0x4 ADD PUSH1 0x40 MLOAD DUP1 SWAP2 SUB SWAP1 REVERT JUMPDEST PUSH1 0x0 DUP3 DUP2 MSTORE PUSH1 0x9 PUSH1 0x20 MSTORE PUSH1 0x40 SWAP1 KECCAK256 DUP1 SLOAD PUSH1 0xFF NOT AND PUSH1 0x1 OR SWAP1 SSTORE DUP8 PUSH2 0x679 CALLER DUP3 PUSH2 0xA30 JUMP JUMPDEST PUSH1 0x40 MLOAD PUSH1 0x24 DUP2 ADD DUP5 SWAP1 MSTORE CALLER PUSH1 0x44 DUP3 ADD MSTORE PUSH1 0x64 DUP2 ADD DUP3 SWAP1 MSTORE PUSH8 0xFFFFFFFFFFFFFFFF DUP13 AND PUSH1 0x84 DUP3 ADD MSTORE PUSH2 0xFFFF DUP12 AND PUSH1 0xA4 DUP3 ADD MSTORE PUSH1 0xC4 DUP2 ADD DUP11 SWAP1 MSTORE PUSH1 0x0 SWAP1 PUSH1 0xE4 ADD PUSH1 0x40 DUP1 MLOAD PUSH1 0x1F NOT DUP2 DUP5 SUB ADD DUP2 MSTORE SWAP2 DUP2 MSTORE PUSH1 0x20 DUP3 ADD DUP1 MLOAD PUSH1 0x1 PUSH1 0x1 PUSH1 0xE0 SHL SUB AND PUSH4 0x10E5E039 PUSH1 0xE2 SHL OR SWAP1 MSTORE PUSH1 0x7 SLOAD PUSH1 0x8 SLOAD SWAP2 MLOAD PUSH4 0x3DBB202B PUSH1 0xE0 SHL DUP2 MSTORE SWAP3 SWAP4 POP PUSH1 0x1 PUSH1 0x1 PUSH1 0xA0 SHL SUB SWAP1 DUP2 AND SWAP3 PUSH4 0x3DBB202B SWAP3 PUSH2 0x71D SWAP3 AND SWAP1 DUP6 SWAP1 PUSH3 0xF4240 SWAP1 PUSH1 0x4 ADD PUSH2 0x1037 JUMP JUMPDEST PUSH1 0x0 PUSH1 0x40 MLOAD DUP1 DUP4 SUB DUP2 PUSH1 0x0 DUP8 DUP1 EXTCODESIZE ISZERO DUP1 ISZERO PUSH2 0x737 JUMPI PUSH1 0x0 DUP1 REVERT JUMPDEST POP GAS CALL ISZERO DUP1 ISZERO PUSH2 0x74B JUMPI RETURNDATASIZE PUSH1 0x0 DUP1 RETURNDATACOPY RETURNDATASIZE PUSH1 0x0 REVERT JUMPDEST POP POP POP POP DUP4 CALLER PUSH1 0x1 PUSH1 0x1 PUSH1 0xA0 SHL SUB AND PUSH32 0xB75CAB9AD16AF20CF391D68B2472F81CA4A73909CED412C4402576B86590B290 DUP15 DUP15 DUP15 DUP8 PUSH1 0x40 MLOAD PUSH2 0x7B5 SWAP5 SWAP4 SWAP3 SWAP2 SWAP1 PUSH8 0xFFFFFFFFFFFFFFFF SWAP5 SWAP1 SWAP5 AND DUP5 MSTORE PUSH2 0xFFFF SWAP3 SWAP1 SWAP3 AND PUSH1 0x20 DUP5 ADD MSTORE PUSH1 0x40 DUP4 ADD MSTORE PUSH1 0x60 DUP3 ADD MSTORE PUSH1 0x80 ADD SWAP1 JUMP JUMPDEST PUSH1 0x40 MLOAD DUP1 SWAP2 SUB SWAP1 LOG3 POP POP POP POP POP POP POP POP POP POP POP POP JUMP JUMPDEST PUSH1 0x0 SWAP2 DUP3 MSTORE PUSH1 0x5 PUSH1 0x20 SWAP1 DUP2 MSTORE PUSH1 0x40 DUP1 DUP5 KECCAK256 PUSH1 0x1 PUSH1 0x1 PUSH1 0xA0 SHL SUB SWAP4 SWAP1 SWAP4 AND DUP5 MSTORE SWAP2 SWAP1 MSTORE SWAP1 KECCAK256 SLOAD PUSH1 0xFF AND SWAP1 JUMP JUMPDEST PUSH1 0x60 PUSH1 0x4 DUP1 SLOAD PUSH2 0x3B5 SWAP1 PUSH2 0xF49 JUMP JUMPDEST PUSH1 0x0 CALLER PUSH2 0x446 DUP2 DUP6 DUP6 PUSH2 0x8C3 JUMP JUMPDEST PUSH1 0x0 DUP3 DUP2 MSTORE PUSH1 0x5 PUSH1 0x20 MSTORE PUSH1 0x40 SWAP1 KECCAK256 PUSH1 0x1 ADD SLOAD PUSH2 0x82E DUP2 PUSH2 0x922 JUMP JUMPDEST PUSH2 0x499 DUP4 DUP4 PUSH2 0x9C3 JUMP JUMPDEST PUSH2 0x4D2 DUP4 DUP4 DUP4 PUSH1 0x1 PUSH2 0xA6A JUMP JUMPDEST PUSH1 0x1 PUSH1 0x1 PUSH1 0xA0 SHL SUB DUP4 DUP2 AND PUSH1 0x0 SWAP1 DUP2 MSTORE PUSH1 0x1 PUSH1 0x20 SWAP1 DUP2 MSTORE PUSH1 0x40 DUP1 DUP4 KECCAK256 SWAP4 DUP7 AND DUP4 MSTORE SWAP3 SWAP1 MSTORE KECCAK256 SLOAD PUSH1 0x0 NOT DUP2 LT ISZERO PUSH2 0x499 JUMPI DUP2 DUP2 LT ISZERO PUSH2 0x8B4 JUMPI PUSH1 0x40 MLOAD PUSH4 0x7DC7A0D9 PUSH1 0xE1 SHL DUP2 MSTORE PUSH1 0x1 PUSH1 0x1 PUSH1 0xA0 SHL SUB DUP5 AND PUSH1 0x4 DUP3 ADD MSTORE PUSH1 0x24 DUP2 ADD DUP3 SWAP1 MSTORE PUSH1 0x44 DUP2 ADD DUP4 SWAP1 MSTORE PUSH1 0x64 ADD JUMPDEST PUSH1 0x40 MLOAD DUP1 SWAP2 SUB SWAP1 REVERT JUMPDEST PUSH2 0x499 DUP5 DUP5 DUP5 DUP5 SUB PUSH1 0x0 PUSH2 0xA6A JUMP JUMPDEST PUSH1 0x1 PUSH1 0x1 PUSH1 0xA0 SHL SUB DUP4 AND PUSH2 0x8ED JUMPI PUSH1 0x40 MLOAD PUSH4 0x4B637E8F PUSH1 0xE1 SHL DUP2 MSTORE PUSH1 0x0 PUSH1 0x4 DUP3 ADD MSTORE PUSH1 0x24 ADD PUSH2 0x8AB JUMP JUMPDEST PUSH1 0x1 PUSH1 0x1 PUSH1 0xA0 SHL SUB DUP3 AND PUSH2 0x917 JUMPI PUSH1 0x40 MLOAD PUSH4 0xEC442F05 PUSH1 0xE0 SHL DUP2 MSTORE PUSH1 0x0 PUSH1 0x4 DUP3 ADD MSTORE PUSH1 0x24 ADD PUSH2 0x8AB JUMP JUMPDEST PUSH2 0x4D2 DUP4 DUP4 DUP4 PUSH2 0xB3F JUMP JUMPDEST PUSH2 0x92C DUP2 CALLER PUSH2 0xC69 JUMP JUMPDEST POP JUMP JUMPDEST PUSH1 0x0 PUSH2 0x93B DUP4 DUP4 PUSH2 0x7CB JUMP JUMPDEST PUSH2 0x9BB JUMPI PUSH1 0x0 DUP4 DUP2 MSTORE PUSH1 0x5 PUSH1 0x20 SWAP1 DUP2 MSTORE PUSH1 0x40 DUP1 DUP4 KECCAK256 PUSH1 0x1 PUSH1 0x1 PUSH1 0xA0 SHL SUB DUP7 AND DUP5 MSTORE SWAP1 SWAP2 MSTORE SWAP1 KECCAK256 DUP1 SLOAD PUSH1 0xFF NOT AND PUSH1 0x1 OR SWAP1 SSTORE PUSH2 0x973 CALLER SWAP1 JUMP JUMPDEST PUSH1 0x1 PUSH1 0x1 PUSH1 0xA0 SHL SUB AND DUP3 PUSH1 0x1 PUSH1 0x1 PUSH1 0xA0 SHL SUB AND DUP5 PUSH32 0x2F8788117E7EFF1D82E926EC794901D17C78024A50270940304540A733656F0D PUSH1 0x40 MLOAD PUSH1 0x40 MLOAD DUP1 SWAP2 SUB SWAP1 LOG4 POP PUSH1 0x1 PUSH2 0x3A0 JUMP JUMPDEST POP PUSH1 0x0 PUSH2 0x3A0 JUMP JUMPDEST PUSH1 0x0 PUSH2 0x9CF DUP4 DUP4 PUSH2 0x7CB JUMP JUMPDEST ISZERO PUSH2 0x9BB JUMPI PUSH1 0x0 DUP4 DUP2 MSTORE PUSH1 0x5 PUSH1 0x20 SWAP1 DUP2 MSTORE PUSH1 0x40 DUP1 DUP4 KECCAK256 PUSH1 0x1 PUSH1 0x1 PUSH1 0xA0 SHL SUB DUP7 AND DUP1 DUP6 MSTORE SWAP3 MSTORE DUP1 DUP4 KECCAK256 DUP1 SLOAD PUSH1 0xFF NOT AND SWAP1 SSTORE MLOAD CALLER SWAP3 DUP7 SWAP2 PUSH32 0xF6391F5C32D9C69D2A47EA670B442974B53935D1EDC7FD64EB21E047A839171B SWAP2 SWAP1 LOG4 POP PUSH1 0x1 PUSH2 0x3A0 JUMP JUMPDEST PUSH1 0x1 PUSH1 0x1 PUSH1 0xA0 SHL SUB DUP3 AND PUSH2 0xA5A JUMPI PUSH1 0x40 MLOAD PUSH4 0xEC442F05 PUSH1 0xE0 SHL DUP2 MSTORE PUSH1 0x0 PUSH1 0x4 DUP3 ADD MSTORE PUSH1 0x24 ADD PUSH2 0x8AB JUMP JUMPDEST PUSH2 0xA66 PUSH1 0x0 DUP4 DUP4 PUSH2 0xB3F JUMP JUMPDEST POP POP JUMP JUMPDEST PUSH1 0x1 PUSH1 0x1 PUSH1 0xA0 SHL SUB DUP5 AND PUSH2 0xA94 JUMPI PUSH1 0x40 MLOAD PUSH4 0xE602DF05 PUSH1 0xE0 SHL DUP2 MSTORE PUSH1 0x0 PUSH1 0x4 DUP3 ADD MSTORE PUSH1 0x24 ADD PUSH2 0x8AB JUMP JUMPDEST PUSH1 0x1 PUSH1 0x1 PUSH1 0xA0 SHL SUB DUP4 AND PUSH2 0xABE JUMPI PUSH1 0x40 MLOAD PUSH4 0x4A1406B1 PUSH1 0xE1 SHL DUP2 MSTORE PUSH1 0x0 PUSH1 0x4 DUP3 ADD MSTORE PUSH1 0x24 ADD PUSH2 0x8AB JUMP JUMPDEST PUSH1 0x1 PUSH1 0x1 PUSH1 0xA0 SHL SUB DUP1 DUP6 AND PUSH1 0x0 SWAP1 DUP2 MSTORE PUSH1 0x1 PUSH1 0x20 SWAP1 DUP2 MSTORE PUSH1 0x40 DUP1 DUP4 KECCAK256 SWAP4 DUP8 AND DUP4 MSTORE SWAP3 SWAP1 MSTORE KECCAK256 DUP3 SWAP1 SSTORE DUP1 ISZERO PUSH2 0x499 JUMPI DUP3 PUSH1 0x1 PUSH1 0x1 PUSH1 0xA0 SHL SUB AND DUP5 PUSH1 0x1 PUSH1 0x1 PUSH1 0xA0 SHL SUB AND PUSH32 0x8C5BE1E5EBEC7D5BD14F71427D1E84F3DD0314C0F7B2291E5B200AC8C7C3B925 DUP5 PUSH1 0x40 MLOAD PUSH2 0xB31 SWAP2 DUP2 MSTORE PUSH1 0x20 ADD SWAP1 JUMP JUMPDEST PUSH1 0x40 MLOAD DUP1 SWAP2 SUB SWAP1 LOG3 POP POP POP POP JUMP JUMPDEST PUSH1 0x1 PUSH1 0x1 PUSH1 0xA0 SHL SUB DUP4 AND PUSH2 0xB6A JUMPI DUP1 PUSH1 0x2 PUSH1 0x0 DUP3 DUP3 SLOAD PUSH2 0xB5F SWAP2 SWAP1 PUSH2 0x1071 JUMP JUMPDEST SWAP1 SWAP2 SSTORE POP PUSH2 0xBDC SWAP1 POP JUMP JUMPDEST PUSH1 0x1 PUSH1 0x1 PUSH1 0xA0 SHL SUB DUP4 AND PUSH1 0x0 SWAP1 DUP2 MSTORE PUSH1 0x20 DUP2 SWAP1 MSTORE PUSH1 0x40 SWAP1 KECCAK256 SLOAD DUP2 DUP2 LT ISZERO PUSH2 0xBBD JUMPI PUSH1 0x40 MLOAD PUSH4 0x391434E3 PUSH1 0xE2 SHL DUP2 MSTORE PUSH1 0x1 PUSH1 0x1 PUSH1 0xA0 SHL SUB DUP6 AND PUSH1 0x4 DUP3 ADD MSTORE PUSH1 0x24 DUP2 ADD DUP3 SWAP1 MSTORE PUSH1 0x44 DUP2 ADD DUP4 SWAP1 MSTORE PUSH1 0x64 ADD PUSH2 0x8AB JUMP JUMPDEST PUSH1 0x1 PUSH1 0x1 PUSH1 0xA0 SHL SUB DUP5 AND PUSH1 0x0 SWAP1 DUP2 MSTORE PUSH1 0x20 DUP2 SWAP1 MSTORE PUSH1 0x40 SWAP1 KECCAK256 SWAP1 DUP3 SWAP1 SUB SWAP1 SSTORE JUMPDEST PUSH1 0x1 PUSH1 0x1 PUSH1 0xA0 SHL SUB DUP3 AND PUSH2 0xBF8 JUMPI PUSH1 0x2 DUP1 SLOAD DUP3 SWAP1 SUB SWAP1 SSTORE PUSH2 0xC17 JUMP JUMPDEST PUSH1 0x1 PUSH1 0x1 PUSH1 0xA0 SHL SUB DUP3 AND PUSH1 0x0 SWAP1 DUP2 MSTORE PUSH1 0x20 DUP2 SWAP1 MSTORE PUSH1 0x40 SWAP1 KECCAK256 DUP1 SLOAD DUP3 ADD SWAP1 SSTORE JUMPDEST DUP2 PUSH1 0x1 PUSH1 0x1 PUSH1 0xA0 SHL SUB AND DUP4 PUSH1 0x1 PUSH1 0x1 PUSH1 0xA0 SHL SUB AND PUSH32 0xDDF252AD1BE2C89B69C2B068FC378DAA952BA7F163C4A11628F55A4DF523B3EF DUP4 PUSH1 0x40 MLOAD PUSH2 0xC5C SWAP2 DUP2 MSTORE PUSH1 0x20 ADD SWAP1 JUMP JUMPDEST PUSH1 0x40 MLOAD DUP1 SWAP2 SUB SWAP1 LOG3 POP POP POP JUMP JUMPDEST PUSH2 0xC73 DUP3 DUP3 PUSH2 0x7CB JUMP JUMPDEST PUSH2 0xA66 JUMPI PUSH1 0x40 MLOAD PUSH4 0xE2517D3F PUSH1 0xE0 SHL DUP2 MSTORE PUSH1 0x1 PUSH1 0x1 PUSH1 0xA0 SHL SUB DUP3 AND PUSH1 0x4 DUP3 ADD MSTORE PUSH1 0x24 DUP2 ADD DUP4 SWAP1 MSTORE PUSH1 0x44 ADD PUSH2 0x8AB JUMP JUMPDEST PUSH1 0x0 PUSH1 0x20 DUP3 DUP5 SUB SLT ISZERO PUSH2 0xCB4 JUMPI PUSH1 0x0 DUP1 REVERT JUMPDEST DUP2 CALLDATALOAD PUSH1 0x1 PUSH1 0x1 PUSH1 0xE0 SHL SUB NOT DUP2 AND DUP2 EQ PUSH2 0xCCC JUMPI PUSH1 0x0 DUP1 REVERT JUMPDEST SWAP4 SWAP3 POP POP POP JUMP JUMPDEST PUSH1 0x0 DUP2 MLOAD DUP1 DUP5 MSTORE PUSH1 0x0 JUMPDEST DUP2 DUP2 LT ISZERO PUSH2 0xCF9 JUMPI PUSH1 0x20 DUP2 DUP6 ADD DUP2 ADD MLOAD DUP7 DUP4 ADD DUP3 ADD MSTORE ADD PUSH2 0xCDD JUMP JUMPDEST POP PUSH1 0x0 PUSH1 0x20 DUP3 DUP7 ADD ADD MSTORE PUSH1 0x20 PUSH1 0x1F NOT PUSH1 0x1F DUP4 ADD AND DUP6 ADD ADD SWAP2 POP POP SWAP3 SWAP2 POP POP JUMP JUMPDEST PUSH1 0x20 DUP2 MSTORE PUSH1 0x0 PUSH2 0xCCC PUSH1 0x20 DUP4 ADD DUP5 PUSH2 0xCD3 JUMP JUMPDEST DUP1 CALLDATALOAD PUSH1 0x1 PUSH1 0x1 PUSH1 0xA0 SHL SUB DUP2 AND DUP2 EQ PUSH2 0xD43 JUMPI PUSH1 0x0 DUP1 REVERT JUMPDEST SWAP2 SWAP1 POP JUMP JUMPDEST PUSH1 0x0 DUP1 PUSH1 0x40 DUP4 DUP6 SUB SLT ISZERO PUSH2 0xD5B JUMPI PUSH1 0x0 DUP1 REVERT JUMPDEST PUSH2 0xD64 DUP4 PUSH2 0xD2C JUMP JUMPDEST SWAP5 PUSH1 0x20 SWAP4 SWAP1 SWAP4 ADD CALLDATALOAD SWAP4 POP POP POP JUMP JUMPDEST PUSH1 0x0 DUP1 PUSH1 0x0 PUSH1 0x60 DUP5 DUP7 SUB SLT ISZERO PUSH2 0xD87 JUMPI PUSH1 0x0 DUP1 REVERT JUMPDEST PUSH2 0xD90 DUP5 PUSH2 0xD2C JUMP JUMPDEST SWAP3 POP PUSH2 0xD9E PUSH1 0x20 DUP6 ADD PUSH2 0xD2C JUMP JUMPDEST SWAP2 POP PUSH1 0x40 DUP5 ADD CALLDATALOAD SWAP1 POP SWAP3 POP SWAP3 POP SWAP3 JUMP JUMPDEST PUSH1 0x0 PUSH1 0x20 DUP3 DUP5 SUB SLT ISZERO PUSH2 0xDC0 JUMPI PUSH1 0x0 DUP1 REVERT JUMPDEST POP CALLDATALOAD SWAP2 SWAP1 POP JUMP JUMPDEST PUSH1 0x0 DUP1 PUSH1 0x40 DUP4 DUP6 SUB SLT ISZERO PUSH2 0xDDA JUMPI PUSH1 0x0 DUP1 REVERT JUMPDEST DUP3 CALLDATALOAD SWAP2 POP PUSH2 0xDEA PUSH1 0x20 DUP5 ADD PUSH2 0xD2C JUMP JUMPDEST SWAP1 POP SWAP3 POP SWAP3 SWAP1 POP JUMP JUMPDEST DUP1 CALLDATALOAD PUSH8 0xFFFFFFFFFFFFFFFF DUP2 AND DUP2 EQ PUSH2 0xD43 JUMPI PUSH1 0x0 DUP1 REVERT JUMPDEST PUSH1 0x0 DUP1 DUP4 PUSH1 0x1F DUP5 ADD SLT PUSH2 0xE1D JUMPI PUSH1 0x0 DUP1 REVERT JUMPDEST POP DUP2 CALLDATALOAD PUSH8 0xFFFFFFFFFFFFFFFF DUP2 GT ISZERO PUSH2 0xE35 JUMPI PUSH1 0x0 DUP1 REVERT JUMPDEST PUSH1 0x20 DUP4 ADD SWAP2 POP DUP4 PUSH1 0x20 DUP3 DUP6 ADD ADD GT ISZERO PUSH2 0xE4D JUMPI PUSH1 0x0 DUP1 REVERT JUMPDEST SWAP3 POP SWAP3 SWAP1 POP JUMP JUMPDEST PUSH1 0x0 DUP1 PUSH1 0x0 DUP1 PUSH1 0x0 DUP1 PUSH1 0x0 DUP1 PUSH1 0xE0 DUP10 DUP12 SUB SLT ISZERO PUSH2 0xE70 JUMPI PUSH1 0x0 DUP1 REVERT JUMPDEST PUSH2 0xE79 DUP10 PUSH2 0xDF3 JUMP JUMPDEST SWAP8 POP PUSH1 0x20 DUP10 ADD CALLDATALOAD PUSH2 0xFFFF DUP2 AND DUP2 EQ PUSH2 0xE90 JUMPI PUSH1 0x0 DUP1 REVERT JUMPDEST SWAP7 POP PUSH1 0x40 DUP10 ADD CALLDATALOAD SWAP6 POP PUSH1 0x60 DUP10 ADD CALLDATALOAD PUSH1 0x1 PUSH1 0x1 PUSH1 0x80 SHL SUB DUP2 AND DUP2 EQ PUSH2 0xEB3 JUMPI PUSH1 0x0 DUP1 REVERT JUMPDEST SWAP5 POP PUSH1 0x80 DUP10 ADD CALLDATALOAD SWAP4 POP PUSH2 0xEC8 PUSH1 0xA0 DUP11 ADD PUSH2 0xDF3 JUMP JUMPDEST SWAP3 POP PUSH1 0xC0 DUP10 ADD CALLDATALOAD PUSH8 0xFFFFFFFFFFFFFFFF DUP2 GT ISZERO PUSH2 0xEE4 JUMPI PUSH1 0x0 DUP1 REVERT JUMPDEST PUSH2 0xEF0 DUP12 DUP3 DUP13 ADD PUSH2 0xE0B JUMP JUMPDEST SWAP10 SWAP13 SWAP9 SWAP12 POP SWAP7 SWAP10 POP SWAP5 SWAP8 SWAP4 SWAP7 SWAP3 SWAP6 SWAP5 POP POP POP JUMP JUMPDEST PUSH1 0x0 PUSH1 0x20 DUP3 DUP5 SUB SLT ISZERO PUSH2 0xF16 JUMPI PUSH1 0x0 DUP1 REVERT JUMPDEST PUSH2 0xCCC DUP3 PUSH2 0xD2C JUMP JUMPDEST PUSH1 0x0 DUP1 PUSH1 0x40 DUP4 DUP6 SUB SLT ISZERO PUSH2 0xF32 JUMPI PUSH1 0x0 DUP1 REVERT JUMPDEST PUSH2 0xF3B DUP4 PUSH2 0xD2C JUMP JUMPDEST SWAP2 POP PUSH2 0xDEA PUSH1 0x20 DUP5 ADD PUSH2 0xD2C JUMP JUMPDEST PUSH1 0x1 DUP2 DUP2 SHR SWAP1 DUP3 AND DUP1 PUSH2 0xF5D JUMPI PUSH1 0x7F DUP3 AND SWAP2 POP JUMPDEST PUSH1 0x20 DUP3 LT DUP2 SUB PUSH2 0xF7D JUMPI PUSH4 0x4E487B71 PUSH1 0xE0 SHL PUSH1 0x0 MSTORE PUSH1 0x22 PUSH1 0x4 MSTORE PUSH1 0x24 PUSH1 0x0 REVERT JUMPDEST POP SWAP2 SWAP1 POP JUMP JUMPDEST PUSH1 0x1 PUSH1 0x1 PUSH1 0xA0 SHL SUB DUP12 AND DUP2 MSTORE PUSH1 0x20 DUP2 ADD DUP11 SWAP1 MSTORE PUSH1 0x40 DUP2 ADD DUP10 SWAP1 MSTORE PUSH8 0xFFFFFFFFFFFFFFFF DUP9 DUP2 AND PUSH1 0x60 DUP4 ADD MSTORE PUSH2 0xFFFF DUP9 AND PUSH1 0x80 DUP4 ADD MSTORE PUSH1 0xA0 DUP3 ADD DUP8 SWAP1 MSTORE PUSH1 0x1 PUSH1 0x1 PUSH1 0x80 SHL SUB DUP7 AND PUSH1 0xC0 DUP4 ADD MSTORE DUP5 AND PUSH1 0xE0 DUP3 ADD MSTORE PUSH2 0x120 PUSH2 0x100 DUP3 ADD DUP2 SWAP1 MSTORE DUP2 ADD DUP3 SWAP1 MSTORE PUSH1 0x0 PUSH2 0x140 DUP4 DUP6 DUP3 DUP6 ADD CALLDATACOPY PUSH1 0x0 DUP4 DUP6 ADD DUP3 ADD MSTORE PUSH1 0x1F SWAP1 SWAP4 ADD PUSH1 0x1F NOT AND SWAP1 SWAP2 ADD SWAP1 SWAP2 ADD SWAP11 SWAP10 POP POP POP POP POP POP POP POP POP POP JUMP JUMPDEST PUSH1 0x0 PUSH1 0x20 DUP3 DUP5 SUB SLT ISZERO PUSH2 0x1027 JUMPI PUSH1 0x0 DUP1 REVERT JUMPDEST DUP2 MLOAD DUP1 ISZERO ISZERO DUP2 EQ PUSH2 0xCCC JUMPI PUSH1 0x0 DUP1 REVERT JUMPDEST PUSH1 0x1 PUSH1 0x1 PUSH1 0xA0 SHL SUB DUP5 AND DUP2 MSTORE PUSH1 0x60 PUSH1 0x20 DUP3 ADD DUP2 SWAP1 MSTORE PUSH1 0x0 SWAP1 PUSH2 0x105B SWAP1 DUP4 ADD DUP6 PUSH2 0xCD3 JUMP JUMPDEST SWAP1 POP PUSH4 0xFFFFFFFF DUP4 AND PUSH1 0x40 DUP4 ADD MSTORE SWAP5 SWAP4 POP POP POP POP JUMP JUMPDEST DUP1 DUP3 ADD DUP1 DUP3 GT ISZERO PUSH2 0x3A0 JUMPI PUSH4 0x4E487B71 PUSH1 0xE0 SHL PUSH1 0x0 MSTORE PUSH1 0x11 PUSH1 0x4 MSTORE PUSH1 0x24 PUSH1 0x0 REVERT INVALID LOG2 PUSH5 0x6970667358 0x22 SLT KECCAK256 ADD 0x2C SHR PUSH21 0xBA3950E7D86869D4DE95F693A15CE93A7F64E1F436 ISZERO CALLDATASIZE PUSH2 0x1456 0xFB DUP8 PUSH5 0x736F6C6343 STOP ADDMOD OR STOP CALLER "},"methodIdentifiers":{"DEFAULT_ADMIN_ROLE()":"a217fddf","REGISTRY_ADMIN_ROLE()":"bf584c4b","allowance(address,address)":"dd62ed3e","approve(address,uint256)":"095ea7b3","balanceOf(address)":"70a08231","decimals()":"313ce567","getRoleAdmin(bytes32)":"248a9ca3","grantRole(bytes32,address)":"2f2ff15d","hasRole(bytes32,address)":"91d14854","isDTUsed(bytes32)":"a3b9c1d8","l1Anchor()":"b2ced745","messenger()":"3cb747bf","mintWithProof(uint64,uint16,uint256,uint128,bytes32,uint64,bytes)":"3cd4d649","name()":"06fdde03","renounceRole(bytes32,address)":"36568abe","revokeRole(bytes32,address)":"d547741f","supportsInterface(bytes4)":"01ffc9a7","symbol()":"95d89b41","totalSupply()":"18160ddd","transfer(address,uint256)":"a9059cbb","transferFrom(address,address,uint256)":"23b872dd","verifier()":"2b7ac3f3"}}}}}