{"contracts/private/DataVer.sol":{"DataVer":{"abi":[{"inputs":[{"internalType":"address","name":"ra","type":"address"},{"internalType":"address","name":"oracle","type":"address"}],"stateMutability":"nonpayable","type":"constructor"},{"inputs":[],"name":"AccessControlBadConfirmation","type":"error"},{"inputs":[{"internalType":"address","name":"account","type":"address"},{"internalType":"bytes32","name":"neededRole","type":"bytes32"}],"name":"AccessControlUnauthorizedAccount","type":"error"},{"anonymous":false,"inputs":[{"indexed":true,"internalType":"bytes32","name":"readingHash","type":"bytes32"},{"indexed":false,"internalType":"bool","name":"isValid","type":"bool"}],"name":"OracleVerdictPosted","type":"event"},{"anonymous":false,"inputs":[{"indexed":true,"internalType":"bytes32","name":"readingHash","type":"bytes32"},{"indexed":true,"internalType":"address","name":"committer","type":"address"}],"name":"ReadingCommitted","type":"event"},{"anonymous":false,"inputs":[{"indexed":true,"internalType":"bytes32","name":"role","type":"bytes32"},{"indexed":true,"internalType":"bytes32","name":"previousAdminRole","type":"bytes32"},{"indexed":true,"internalType":"bytes32","name":"newAdminRole","type":"bytes32"}],"name":"RoleAdminChanged","type":"event"},{"anonymous":false,"inputs":[{"indexed":true,"internalType":"bytes32","name":"role","type":"bytes32"},{"indexed":true,"internalType":"address","name":"account","type":"address"},{"indexed":true,"internalType":"address","name":"sender","type":"address"}],"name":"RoleGranted","type":"event"},{"anonymous":false,"inputs":[{"indexed":true,"internalType":"bytes32","name":"role","type":"bytes32"},{"indexed":true,"internalType":"address","name":"account","type":"address"},{"indexed":true,"internalType":"address","name":"sender","type":"address"}],"name":"RoleRevoked","type":"event"},{"anonymous":false,"inputs":[{"indexed":true,"internalType":"bytes32","name":"vcHash","type":"bytes32"},{"indexed":true,"internalType":"bytes32","name":"readingHash","type":"bytes32"}],"name":"VCAnchored","type":"event"},{"inputs":[],"name":"DEFAULT_ADMIN_ROLE","outputs":[{"internalType":"bytes32","name":"","type":"bytes32"}],"stateMutability":"view","type":"function"},{"inputs":[],"name":"ORACLE_ROLE","outputs":[{"internalType":"bytes32","name":"","type":"bytes32"}],"stateMutability":"view","type":"function"},{"inputs":[],"name":"RA_ROLE","outputs":[{"internalType":"bytes32","name":"","type":"bytes32"}],"stateMutability":"view","type":"function"},{"inputs":[{"internalType":"bytes32","name":"vcHash","type":"bytes32"},{"internalType":"bytes32","name":"readingHash","type":"bytes32"}],"name":"anchorVC","outputs":[],"stateMutability":"nonpayable","type":"function"},{"inputs":[{"internalType":"bytes32","name":"readingHash","type":"bytes32"}],"name":"commitReading","outputs":[],"stateMutability":"nonpayable","type":"function"},{"inputs":[{"internalType":"bytes32","name":"","type":"bytes32"}],"name":"commitments","outputs":[{"internalType":"bool","name":"","type":"bool"}],"stateMutability":"view","type":"function"},{"inputs":[{"internalType":"bytes32","name":"role","type":"bytes32"}],"name":"getRoleAdmin","outputs":[{"internalType":"bytes32","name":"","type":"bytes32"}],"stateMutability":"view","type":"function"},{"inputs":[{"internalType":"bytes32","name":"role","type":"bytes32"},{"internalType":"address","name":"account","type":"address"}],"name":"grantRole","outputs":[],"stateMutability":"nonpayable","type":"function"},{"inputs":[{"internalType":"bytes32","name":"role","type":"bytes32"},{"internalType":"address","name":"account","type":"address"}],"name":"hasRole","outputs":[{"internalType":"bool","name":"","type":"bool"}],"stateMutability":"view","type":"function"},{"inputs":[{"internalType":"bytes32","name":"readingHash","type":"bytes32"}],"name":"hasValidVerdict","outputs":[{"internalType":"bool","name":"","type":"bool"}],"stateMutability":"view","type":"function"},{"inputs":[{"internalType":"bytes32","name":"vcHash","type":"bytes32"}],"name":"isVCAnchored","outputs":[{"internalType":"bool","name":"","type":"bool"}],"stateMutability":"view","type":"function"},{"inputs":[{"internalType":"bytes32","name":"","type":"bytes32"}],"name":"oraclePosted","outputs":[{"internalType":"bool","name":"","type":"bool"}],"stateMutability":"view","type":"function"},{"inputs":[{"internalType":"bytes32","name":"","type":"bytes32"}],"name":"oracleValid","outputs":[{"internalType":"bool","name":"","type":"bool"}],"stateMutability":"view","type":"function"},{"inputs":[{"internalType":"bytes32","name":"readingHash","type":"bytes32"},{"internalType":"bool","name":"valid","type":"bool"}],"name":"postVerdict","outputs":[],"stateMutability":"nonpayable","type":"function"},{"inputs":[{"internalType":"bytes32","name":"role","type":"bytes32"},{"internalType":"address","name":"callerConfirmation","type":"address"}],"name":"renounceRole","outputs":[],"stateMutability":"nonpayable","type":"function"},{"inputs":[{"internalType":"bytes32","name":"role","type":"bytes32"},{"internalType":"address","name":"account","type":"address"}],"name":"revokeRole","outputs":[],"stateMutability":"nonpayable","type":"function"},{"inputs":[{"internalType":"bytes32","name":"vcHash","type":"bytes32"},{"internalType":"bytes32","name":"readingHash","type":"bytes32"}],"name":"storeVCCommitment","outputs":[],"stateMutability":"nonpayable","type":"function"},{"inputs":[{"internalType":"bytes32","name":"readingHash","type":"bytes32"},{"internalType":"bool","name":"isValid","type":"bool"}],"name":"submitOracleVerification","outputs":[],"stateMutability":"nonpayable","type":"function"},{"inputs":[{"internalType":"bytes32","name":"readingHash","type":"bytes32"}],"name":"submitRECommitment","outputs":[],"stateMutability":"nonpayable","type":"function"},{"inputs":[{"internalType":"bytes4","name":"interfaceId","type":"bytes4"}],"name":"supportsInterface","outputs":[{"internalType":"bool","name":"","type":"bool"}],"stateMutability":"view","type":"function"},{"inputs":[{"internalType":"bytes32","name":"vcHash","type":"bytes32"}],"name":"vcToReading","outputs":[{"internalType":"bytes32","name":"","type":"bytes32"}],"stateMutability":"view","type":"function"}],"evm":{"bytecode":{"linkReferences":{},"object":"608060405234801561001057600080fd5b5060405162000d3e38038062000d3e833981016040819052610031916101f7565b6001600160a01b03821661007c5760405162461bcd60e51b815260206004820152600d60248201526c0446174615665723a2072613d3609c1b60448201526064015b60405180910390fd5b6001600160a01b0381166100c65760405162461bcd60e51b81526020600482015260116024820152700446174615665723a206f7261636c653d3607c1b6044820152606401610073565b6100d160008361012f565b506100fc7f6785eabb20d5cf67046260be3c357bd6a6316beacc7655be5eea637685299dcb8361012f565b506101277f68e79a7bf1e0bc45d0a330c573bc367f9cf464fd326078812f301165fbda4ef18261012f565b50505061022a565b6000828152602081815260408083206001600160a01b038516845290915281205460ff166101d1576000838152602081815260408083206001600160a01b03861684529091529020805460ff191660011790556101893390565b6001600160a01b0316826001600160a01b0316847f2f8788117e7eff1d82e926ec794901d17c78024a50270940304540a733656f0d60405160405180910390a45060016101d5565b5060005b92915050565b80516001600160a01b03811681146101f257600080fd5b919050565b6000806040838503121561020a57600080fd5b610213836101db565b9150610221602084016101db565b90509250929050565b610b04806200023a6000396000f3fe608060405234801561001057600080fd5b50600436106101375760003560e01c806391d14854116100b8578063b8f3dd3e1161007c578063b8f3dd3e146102da578063c1a6c103146102ed578063d2a5c3c71461030d578063d547741f14610320578063f8ac624214610333578063fd488c641461035657600080fd5b806391d1485414610277578063a0d76bb51461028a578063a217fddf1461029d578063ab3f0e47146102a5578063b8dde425146102b857600080fd5b806336568abe116100ff57806336568abe146101e45780634d143104146101f7578063602525f71461020a578063839df9451461022d5780638b48de701461025057600080fd5b806301ffc9a71461013c57806307e2cea514610164578063248a9ca3146101995780632f2ff15d146101bc5780633510690c146101d1575b600080fd5b61014f61014a3660046109fc565b610369565b60405190151581526020015b60405180910390f35b61018b7f68e79a7bf1e0bc45d0a330c573bc367f9cf464fd326078812f301165fbda4ef181565b60405190815260200161015b565b61018b6101a7366004610a2d565b60009081526020819052604090206001015490565b6101cf6101ca366004610a46565b6103a0565b005b6101cf6101df366004610a82565b6103cb565b6101cf6101f2366004610a46565b610404565b61014f610205366004610a2d565b610437565b61014f610218366004610a2d565b60036020526000908152604090205460ff1681565b61014f61023b366004610a2d565b60016020526000908152604090205460ff1681565b61018b7f6785eabb20d5cf67046260be3c357bd6a6316beacc7655be5eea637685299dcb81565b61014f610285366004610a46565b610466565b6101cf610298366004610aa4565b61048f565b61018b600081565b6101cf6102b3366004610a82565b6104c3565b61014f6102c6366004610a2d565b600090815260046020526040902054151590565b6101cf6102e8366004610a2d565b61064a565b61018b6102fb366004610a2d565b60009081526004602052604090205490565b6101cf61031b366004610aa4565b61073f565b6101cf61032e366004610a46565b610887565b61014f610341366004610a2d565b60026020526000908152604090205460ff1681565b6101cf610364366004610a2d565b6108ac565b60006001600160e01b03198216637965db0b60e01b148061039a57506301ffc9a760e01b6001600160e01b03198316145b92915050565b6000828152602081905260409020600101546103bb816108b8565b6103c583836108c2565b50505050565b7f6785eabb20d5cf67046260be3c357bd6a6316beacc7655be5eea637685299dcb6103f5816108b8565b6103ff83836104c3565b505050565b6001600160a01b038116331461042d5760405163334bd91960e11b815260040160405180910390fd5b6103ff8282610954565b60008181526002602052604081205460ff16801561039a57505060009081526003602052604090205460ff1690565b6000918252602082815260408084206001600160a01b0393909316845291905290205460ff1690565b7f68e79a7bf1e0bc45d0a330c573bc367f9cf464fd326078812f301165fbda4ef16104b9816108b8565b6103ff838361073f565b7f6785eabb20d5cf67046260be3c357bd6a6316beacc7655be5eea637685299dcb6104ed816108b8565b826105365760405162461bcd60e51b8152602060048201526014602482015273088c2e8c2accae47440f4cae4de40ecc690c2e6d60631b60448201526064015b60405180910390fd5b600083815260046020526040902054156105925760405162461bcd60e51b815260206004820152601c60248201527f446174615665723a20766320616c726561647920616e63686f72656400000000604482015260640161052d565b60008281526002602052604090205460ff1680156105be575060008281526003602052604090205460ff165b61060a5760405162461bcd60e51b815260206004820152601960248201527f446174615665723a206e6f2076616c6964207665726469637400000000000000604482015260640161052d565b60008381526004602052604080822084905551839185917f758060eb348aaf1bb53425f8f2fe498b2ec6641cff022af6e3a5164176f227cc9190a3505050565b806106975760405162461bcd60e51b815260206004820152601960248201527f446174615665723a207a65726f2072656164696e674861736800000000000000604482015260640161052d565b60008181526001602052604090205460ff16156106f65760405162461bcd60e51b815260206004820152601a60248201527f446174615665723a20616c726561647920636f6d6d6974746564000000000000604482015260640161052d565b6000818152600160208190526040808320805460ff191690921790915551339183917f4652c5740293baed0fcf7c238557592598e9082303dd991447ddf2879e31af1f9190a350565b7f68e79a7bf1e0bc45d0a330c573bc367f9cf464fd326078812f301165fbda4ef1610769816108b8565b60008381526001602052604090205460ff166107c05760405162461bcd60e51b815260206004820152601660248201527511185d1855995c8e881b9bc818dbdb5b5a5d1b595b9d60521b604482015260640161052d565b60008381526002602052604090205460ff161561081f5760405162461bcd60e51b815260206004820152601f60248201527f446174615665723a207665726469637420616c726561647920706f7374656400604482015260640161052d565b6000838152600260209081526040808320805460ff19908116600117909155600383529281902080548615159416841790555191825284917f9afde556ee3a9fd222a316a3148ef6aa0885f86578ba05c58a8caa4a8bed93be910160405180910390a2505050565b6000828152602081905260409020600101546108a2816108b8565b6103c58383610954565b6108b58161064a565b50565b6108b581336109bf565b60006108ce8383610466565b61094c576000838152602081815260408083206001600160a01b03861684529091529020805460ff191660011790556109043390565b6001600160a01b0316826001600160a01b0316847f2f8788117e7eff1d82e926ec794901d17c78024a50270940304540a733656f0d60405160405180910390a450600161039a565b50600061039a565b60006109608383610466565b1561094c576000838152602081815260408083206001600160a01b0386168085529252808320805460ff1916905551339286917ff6391f5c32d9c69d2a47ea670b442974b53935d1edc7fd64eb21e047a839171b9190a450600161039a565b6109c98282610466565b6109f85760405163e2517d3f60e01b81526001600160a01b03821660048201526024810183905260440161052d565b5050565b600060208284031215610a0e57600080fd5b81356001600160e01b031981168114610a2657600080fd5b9392505050565b600060208284031215610a3f57600080fd5b5035919050565b60008060408385031215610a5957600080fd5b8235915060208301356001600160a01b0381168114610a7757600080fd5b809150509250929050565b60008060408385031215610a9557600080fd5b50508035926020909101359150565b60008060408385031215610ab757600080fd5b8235915060208301358015158114610a7757600080fdfea2646970667358221220cf49395f586b1e48799a8a83cad3ee2534b9cdfd46de8eabe2eba70c9fb958fd64736f6c63430008170033","opcodes":"PUSH1 0x80 PUSH1 0x40 MSTORE CALLVALUE DUP1 ISZERO PUSH2 0x10 JUMPI PUSH1 0x0 DUP1 REVERT JUMPDEST POP PUSH1 0x40 MLOAD PUSH3 0xD3E CODESIZE SUB DUP1 PUSH3 0xD3E DUP4 CODECOPY DUP2 ADD PUSH1 0x40 DUP2 SWAP1 MSTORE PUSH2 0x31 SWAP2 PUSH2 0x1F7 JUMP JUMPDEST PUSH1 0x1 PUSH1 0x1 PUSH1 0xA0 SHL SUB DUP3 AND PUSH2 0x7C JUMPI PUSH1 0x40 MLOAD PUSH3 0x461BCD PUSH1 0xE5 SHL DUP2 MSTORE PUSH1 0x20 PUSH1 0x4 DUP3 ADD MSTORE PUSH1 0xD PUSH1 0x24 DUP3 ADD MSTORE PUSH13 0x446174615665723A2072613D3 PUSH1 0x9C SHL PUSH1 0x44 DUP3 ADD MSTORE PUSH1 0x64 ADD JUMPDEST PUSH1 0x40 MLOAD DUP1 SWAP2 SUB SWAP1 REVERT JUMPDEST PUSH1 0x1 PUSH1 0x1 PUSH1 0xA0 SHL SUB DUP2 AND PUSH2 0xC6 JUMPI PUSH1 0x40 MLOAD PUSH3 0x461BCD PUSH1 0xE5 SHL DUP2 MSTORE PUSH1 0x20 PUSH1 0x4 DUP3 ADD MSTORE PUSH1 0x11 PUSH1 0x24 DUP3 ADD MSTORE PUSH17 0x446174615665723A206F7261636C653D3 PUSH1 0x7C SHL PUSH1 0x44 DUP3 ADD MSTORE PUSH1 0x64 ADD PUSH2 0x73 JUMP JUMPDEST PUSH2 0xD1 PUSH1 0x0 DUP4 PUSH2 0x12F JUMP JUMPDEST POP PUSH2 0xFC PUSH32 0x6785EABB20D5CF67046260BE3C357BD6A6316BEACC7655BE5EEA637685299DCB DUP4 PUSH2 0x12F JUMP JUMPDEST POP PUSH2 0x127 PUSH32 0x68E79A7BF1E0BC45D0A330C573BC367F9CF464FD326078812F301165FBDA4EF1 DUP3 PUSH2 0x12F JUMP JUMPDEST POP POP POP PUSH2 0x22A JUMP JUMPDEST PUSH1 0x0 DUP3 DUP2 MSTORE PUSH1 0x20 DUP2 DUP2 MSTORE PUSH1 0x40 DUP1 DUP4 KECCAK256 PUSH1 0x1 PUSH1 0x1 PUSH1 0xA0 SHL SUB DUP6 AND DUP5 MSTORE SWAP1 SWAP2 MSTORE DUP2 KECCAK256 SLOAD PUSH1 0xFF AND PUSH2 0x1D1 JUMPI PUSH1 0x0 DUP4 DUP2 MSTORE PUSH1 0x20 DUP2 DUP2 MSTORE PUSH1 0x40 DUP1 DUP4 KECCAK256 PUSH1 0x1 PUSH1 0x1 PUSH1 0xA0 SHL SUB DUP7 AND DUP5 MSTORE SWAP1 SWAP2 MSTORE SWAP1 KECCAK256 DUP1 SLOAD PUSH1 0xFF NOT AND PUSH1 0x1 OR SWAP1 SSTORE PUSH2 0x189 CALLER SWAP1 JUMP JUMPDEST PUSH1 0x1 PUSH1 0x1 PUSH1 0xA0 SHL SUB AND DUP3 PUSH1 0x1 PUSH1 0x1 PUSH1 0xA0 SHL SUB AND DUP5 PUSH32 0x2F8788117E7EFF1D82E926EC794901D17C78024A50270940304540A733656F0D PUSH1 0x40 MLOAD PUSH1 0x40 MLOAD DUP1 SWAP2 SUB SWAP1 LOG4 POP PUSH1 0x1 PUSH2 0x1D5 JUMP JUMPDEST POP PUSH1 0x0 JUMPDEST SWAP3 SWAP2 POP POP JUMP JUMPDEST DUP1 MLOAD PUSH1 0x1 PUSH1 0x1 PUSH1 0xA0 SHL SUB DUP2 AND DUP2 EQ PUSH2 0x1F2 JUMPI PUSH1 0x0 DUP1 REVERT JUMPDEST SWAP2 SWAP1 POP JUMP JUMPDEST PUSH1 0x0 DUP1 PUSH1 0x40 DUP4 DUP6 SUB SLT ISZERO PUSH2 0x20A JUMPI PUSH1 0x0 DUP1 REVERT JUMPDEST PUSH2 0x213 DUP4 PUSH2 0x1DB JUMP JUMPDEST SWAP2 POP PUSH2 0x221 PUSH1 0x20 DUP5 ADD PUSH2 0x1DB JUMP JUMPDEST SWAP1 POP SWAP3 POP SWAP3 SWAP1 POP JUMP JUMPDEST PUSH2 0xB04 DUP1 PUSH3 0x23A PUSH1 0x0 CODECOPY PUSH1 0x0 RETURN INVALID PUSH1 0x80 PUSH1 0x40 MSTORE CALLVALUE DUP1 ISZERO PUSH2 0x10 JUMPI PUSH1 0x0 DUP1 REVERT JUMPDEST POP PUSH1 0x4 CALLDATASIZE LT PUSH2 0x137 JUMPI PUSH1 0x0 CALLDATALOAD PUSH1 0xE0 SHR DUP1 PUSH4 0x91D14854 GT PUSH2 0xB8 JUMPI DUP1 PUSH4 0xB8F3DD3E GT PUSH2 0x7C JUMPI DUP1 PUSH4 0xB8F3DD3E EQ PUSH2 0x2DA JUMPI DUP1 PUSH4 0xC1A6C103 EQ PUSH2 0x2ED JUMPI DUP1 PUSH4 0xD2A5C3C7 EQ PUSH2 0x30D JUMPI DUP1 PUSH4 0xD547741F EQ PUSH2 0x320 JUMPI DUP1 PUSH4 0xF8AC6242 EQ PUSH2 0x333 JUMPI DUP1 PUSH4 0xFD488C64 EQ PUSH2 0x356 JUMPI PUSH1 0x0 DUP1 REVERT JUMPDEST DUP1 PUSH4 0x91D14854 EQ PUSH2 0x277 JUMPI DUP1 PUSH4 0xA0D76BB5 EQ PUSH2 0x28A JUMPI DUP1 PUSH4 0xA217FDDF EQ PUSH2 0x29D JUMPI DUP1 PUSH4 0xAB3F0E47 EQ PUSH2 0x2A5 JUMPI DUP1 PUSH4 0xB8DDE425 EQ PUSH2 0x2B8 JUMPI PUSH1 0x0 DUP1 REVERT JUMPDEST DUP1 PUSH4 0x36568ABE GT PUSH2 0xFF JUMPI DUP1 PUSH4 0x36568ABE EQ PUSH2 0x1E4 JUMPI DUP1 PUSH4 0x4D143104 EQ PUSH2 0x1F7 JUMPI DUP1 PUSH4 0x602525F7 EQ PUSH2 0x20A JUMPI DUP1 PUSH4 0x839DF945 EQ PUSH2 0x22D JUMPI DUP1 PUSH4 0x8B48DE70 EQ PUSH2 0x250 JUMPI PUSH1 0x0 DUP1 REVERT JUMPDEST DUP1 PUSH4 0x1FFC9A7 EQ PUSH2 0x13C JUMPI DUP1 PUSH4 0x7E2CEA5 EQ PUSH2 0x164 JUMPI DUP1 PUSH4 0x248A9CA3 EQ PUSH2 0x199 JUMPI DUP1 PUSH4 0x2F2FF15D EQ PUSH2 0x1BC JUMPI DUP1 PUSH4 0x3510690C EQ PUSH2 0x1D1 JUMPI JUMPDEST PUSH1 0x0 DUP1 REVERT JUMPDEST PUSH2 0x14F PUSH2 0x14A CALLDATASIZE PUSH1 0x4 PUSH2 0x9FC JUMP JUMPDEST PUSH2 0x369 JUMP JUMPDEST PUSH1 0x40 MLOAD SWAP1 ISZERO ISZERO DUP2 MSTORE PUSH1 0x20 ADD JUMPDEST PUSH1 0x40 MLOAD DUP1 SWAP2 SUB SWAP1 RETURN JUMPDEST PUSH2 0x18B PUSH32 0x68E79A7BF1E0BC45D0A330C573BC367F9CF464FD326078812F301165FBDA4EF1 DUP2 JUMP JUMPDEST PUSH1 0x40 MLOAD SWAP1 DUP2 MSTORE PUSH1 0x20 ADD PUSH2 0x15B JUMP JUMPDEST PUSH2 0x18B PUSH2 0x1A7 CALLDATASIZE PUSH1 0x4 PUSH2 0xA2D JUMP JUMPDEST PUSH1 0x0 SWAP1 DUP2 MSTORE PUSH1 0x20 DUP2 SWAP1 MSTORE PUSH1 0x40 SWAP1 KECCAK256 PUSH1 0x1 ADD SLOAD SWAP1 JUMP JUMPDEST PUSH2 0x1CF PUSH2 0x1CA CALLDATASIZE PUSH1 0x4 PUSH2 0xA46 JUMP JUMPDEST PUSH2 0x3A0 JUMP JUMPDEST STOP JUMPDEST PUSH2 0x1CF PUSH2 0x1DF CALLDATASIZE PUSH1 0x4 PUSH2 0xA82 JUMP JUMPDEST PUSH2 0x3CB JUMP JUMPDEST PUSH2 0x1CF PUSH2 0x1F2 CALLDATASIZE PUSH1 0x4 PUSH2 0xA46 JUMP JUMPDEST PUSH2 0x404 JUMP JUMPDEST PUSH2 0x14F PUSH2 0x205 CALLDATASIZE PUSH1 0x4 PUSH2 0xA2D JUMP JUMPDEST PUSH2 0x437 JUMP JUMPDEST PUSH2 0x14F PUSH2 0x218 CALLDATASIZE PUSH1 0x4 PUSH2 0xA2D JUMP JUMPDEST PUSH1 0x3 PUSH1 0x20 MSTORE PUSH1 0x0 SWAP1 DUP2 MSTORE PUSH1 0x40 SWAP1 KECCAK256 SLOAD PUSH1 0xFF AND DUP2 JUMP JUMPDEST PUSH2 0x14F PUSH2 0x23B CALLDATASIZE PUSH1 0x4 PUSH2 0xA2D JUMP JUMPDEST PUSH1 0x1 PUSH1 0x20 MSTORE PUSH1 0x0 SWAP1 DUP2 MSTORE PUSH1 0x40 SWAP1 KECCAK256 SLOAD PUSH1 0xFF AND DUP2 JUMP JUMPDEST PUSH2 0x18B PUSH32 0x6785EABB20D5CF67046260BE3C357BD6A6316BEACC7655BE5EEA637685299DCB DUP2 JUMP JUMPDEST PUSH2 0x14F PUSH2 0x285 CALLDATASIZE PUSH1 0x4 PUSH2 0xA46 JUMP JUMPDEST PUSH2 0x466 JUMP JUMPDEST PUSH2 0x1CF PUSH2 0x298 CALLDATASIZE PUSH1 0x4 PUSH2 0xAA4 JUMP JUMPDEST PUSH2 0x48F JUMP JUMPDEST PUSH2 0x18B PUSH1 0x0 DUP2 JUMP JUMPDEST PUSH2 0x1CF PUSH2 0x2B3 CALLDATASIZE PUSH1 0x4 PUSH2 0xA82 JUMP JUMPDEST PUSH2 0x4C3 JUMP JUMPDEST PUSH2 0x14F PUSH2 0x2C6 CALLDATASIZE PUSH1 0x4 PUSH2 0xA2D JUMP JUMPDEST PUSH1 0x0 SWAP1 DUP2 MSTORE PUSH1 0x4 PUSH1 0x20 MSTORE PUSH1 0x40 SWAP1 KECCAK256 SLOAD ISZERO ISZERO SWAP1 JUMP JUMPDEST PUSH2 0x1CF PUSH2 0x2E8 CALLDATASIZE PUSH1 0x4 PUSH2 0xA2D JUMP JUMPDEST PUSH2 0x64A JUMP JUMPDEST PUSH2 0x18B PUSH2 0x2FB CALLDATASIZE PUSH1 0x4 PUSH2 0xA2D JUMP JUMPDEST PUSH1 0x0 SWAP1 DUP2 MSTORE PUSH1 0x4 PUSH1 0x20 MSTORE PUSH1 0x40 SWAP1 KECCAK256 SLOAD SWAP1 JUMP JUMPDEST PUSH2 0x1CF PUSH2 0x31B CALLDATASIZE PUSH1 0x4 PUSH2 0xAA4 JUMP JUMPDEST PUSH2 0x73F JUMP JUMPDEST PUSH2 0x1CF PUSH2 0x32E CALLDATASIZE PUSH1 0x4 PUSH2 0xA46 JUMP JUMPDEST PUSH2 0x887 JUMP JUMPDEST PUSH2 0x14F PUSH2 0x341 CALLDATASIZE PUSH1 0x4 PUSH2 0xA2D JUMP JUMPDEST PUSH1 0x2 PUSH1 0x20 MSTORE PUSH1 0x0 SWAP1 DUP2 MSTORE PUSH1 0x40 SWAP1 KECCAK256 SLOAD PUSH1 0xFF AND DUP2 JUMP JUMPDEST PUSH2 0x1CF PUSH2 0x364 CALLDATASIZE PUSH1 0x4 PUSH2 0xA2D JUMP JUMPDEST PUSH2 0x8AC JUMP JUMPDEST PUSH1 0x0 PUSH1 0x1 PUSH1 0x1 PUSH1 0xE0 SHL SUB NOT DUP3 AND PUSH4 0x7965DB0B PUSH1 0xE0 SHL EQ DUP1 PUSH2 0x39A JUMPI POP PUSH4 0x1FFC9A7 PUSH1 0xE0 SHL PUSH1 0x1 PUSH1 0x1 PUSH1 0xE0 SHL SUB NOT DUP4 AND EQ JUMPDEST SWAP3 SWAP2 POP POP JUMP JUMPDEST PUSH1 0x0 DUP3 DUP2 MSTORE PUSH1 0x20 DUP2 SWAP1 MSTORE PUSH1 0x40 SWAP1 KECCAK256 PUSH1 0x1 ADD SLOAD PUSH2 0x3BB DUP2 PUSH2 0x8B8 JUMP JUMPDEST PUSH2 0x3C5 DUP4 DUP4 PUSH2 0x8C2 JUMP JUMPDEST POP POP POP POP JUMP JUMPDEST PUSH32 0x6785EABB20D5CF67046260BE3C357BD6A6316BEACC7655BE5EEA637685299DCB PUSH2 0x3F5 DUP2 PUSH2 0x8B8 JUMP JUMPDEST PUSH2 0x3FF DUP4 DUP4 PUSH2 0x4C3 JUMP JUMPDEST POP POP POP JUMP JUMPDEST PUSH1 0x1 PUSH1 0x1 PUSH1 0xA0 SHL SUB DUP2 AND CALLER EQ PUSH2 0x42D JUMPI PUSH1 0x40 MLOAD PUSH4 0x334BD919 PUSH1 0xE1 SHL DUP2 MSTORE PUSH1 0x4 ADD PUSH1 0x40 MLOAD DUP1 SWAP2 SUB SWAP1 REVERT JUMPDEST PUSH2 0x3FF DUP3 DUP3 PUSH2 0x954 JUMP JUMPDEST PUSH1 0x0 DUP2 DUP2 MSTORE PUSH1 0x2 PUSH1 0x20 MSTORE PUSH1 0x40 DUP2 KECCAK256 SLOAD PUSH1 0xFF AND DUP1 ISZERO PUSH2 0x39A JUMPI POP POP PUSH1 0x0 SWAP1 DUP2 MSTORE PUSH1 0x3 PUSH1 0x20 MSTORE PUSH1 0x40 SWAP1 KECCAK256 SLOAD PUSH1 0xFF AND SWAP1 JUMP JUMPDEST PUSH1 0x0 SWAP2 DUP3 MSTORE PUSH1 0x20 DUP3 DUP2 MSTORE PUSH1 0x40 DUP1 DUP5 KECCAK256 PUSH1 0x1 PUSH1 0x1 PUSH1 0xA0 SHL SUB SWAP4 SWAP1 SWAP4 AND DUP5 MSTORE SWAP2 SWAP1 MSTORE SWAP1 KECCAK256 SLOAD PUSH1 0xFF AND SWAP1 JUMP JUMPDEST PUSH32 0x68E79A7BF1E0BC45D0A330C573BC367F9CF464FD326078812F301165FBDA4EF1 PUSH2 0x4B9 DUP2 PUSH2 0x8B8 JUMP JUMPDEST PUSH2 0x3FF DUP4 DUP4 PUSH2 0x73F JUMP JUMPDEST PUSH32 0x6785EABB20D5CF67046260BE3C357BD6A6316BEACC7655BE5EEA637685299DCB PUSH2 0x4ED DUP2 PUSH2 0x8B8 JUMP JUMPDEST DUP3 PUSH2 0x536 JUMPI PUSH1 0x40 MLOAD PUSH3 0x461BCD PUSH1 0xE5 SHL DUP2 MSTORE PUSH1 0x20 PUSH1 0x4 DUP3 ADD MSTORE PUSH1 0x14 PUSH1 0x24 DUP3 ADD MSTORE PUSH20 0x88C2E8C2ACCAE47440F4CAE4DE40ECC690C2E6D PUSH1 0x63 SHL PUSH1 0x44 DUP3 ADD MSTORE PUSH1 0x64 ADD JUMPDEST PUSH1 0x40 MLOAD DUP1 SWAP2 SUB SWAP1 REVERT JUMPDEST PUSH1 0x0 DUP4 DUP2 MSTORE PUSH1 0x4 PUSH1 0x20 MSTORE PUSH1 0x40 SWAP1 KECCAK256 SLOAD ISZERO PUSH2 0x592 JUMPI PUSH1 0x40 MLOAD PUSH3 0x461BCD PUSH1 0xE5 SHL DUP2 MSTORE PUSH1 0x20 PUSH1 0x4 DUP3 ADD MSTORE PUSH1 0x1C PUSH1 0x24 DUP3 ADD MSTORE PUSH32 0x446174615665723A20766320616C726561647920616E63686F72656400000000 PUSH1 0x44 DUP3 ADD MSTORE PUSH1 0x64 ADD PUSH2 0x52D JUMP JUMPDEST PUSH1 0x0 DUP3 DUP2 MSTORE PUSH1 0x2 PUSH1 0x20 MSTORE PUSH1 0x40 SWAP1 KECCAK256 SLOAD PUSH1 0xFF AND DUP1 ISZERO PUSH2 0x5BE JUMPI POP PUSH1 0x0 DUP3 DUP2 MSTORE PUSH1 0x3 PUSH1 0x20 MSTORE PUSH1 0x40 SWAP1 KECCAK256 SLOAD PUSH1 0xFF AND JUMPDEST PUSH2 0x60A JUMPI PUSH1 0x40 MLOAD PUSH3 0x461BCD PUSH1 0xE5 SHL DUP2 MSTORE PUSH1 0x20 PUSH1 0x4 DUP3 ADD MSTORE PUSH1 0x19 PUSH1 0x24 DUP3 ADD MSTORE PUSH32 0x446174615665723A206E6F2076616C6964207665726469637400000000000000 PUSH1 0x44 DUP3 ADD MSTORE PUSH1 0x64 ADD PUSH2 0x52D JUMP JUMPDEST PUSH1 0x0 DUP4 DUP2 MSTORE PUSH1 0x4 PUSH1 0x20 MSTORE PUSH1 0x40 DUP1 DUP3 KECCAK256 DUP5 SWAP1 SSTORE MLOAD DUP4 SWAP2 DUP6 SWAP2 PUSH32 0x758060EB348AAF1BB53425F8F2FE498B2EC6641CFF022AF6E3A5164176F227CC SWAP2 SWAP1 LOG3 POP POP POP JUMP JUMPDEST DUP1 PUSH2 0x697 JUMPI PUSH1 0x40 MLOAD PUSH3 0x461BCD PUSH1 0xE5 SHL DUP2 MSTORE PUSH1 0x20 PUSH1 0x4 DUP3 ADD MSTORE PUSH1 0x19 PUSH1 0x24 DUP3 ADD MSTORE PUSH32 0x446174615665723A207A65726F2072656164696E674861736800000000000000 PUSH1 0x44 DUP3 ADD MSTORE PUSH1 0x64 ADD PUSH2 0x52D JUMP JUMPDEST PUSH1 0x0 DUP2 DUP2 MSTORE PUSH1 0x1 PUSH1 0x20 MSTORE PUSH1 0x40 SWAP1 KECCAK256 SLOAD PUSH1 0xFF AND ISZERO PUSH2 0x6F6 JUMPI PUSH1 0x40 MLOAD PUSH3 0x461BCD PUSH1 0xE5 SHL DUP2 MSTORE PUSH1 0x20 PUSH1 0x4 DUP3 ADD MSTORE PUSH1 0x1A PUSH1 0x24 DUP3 ADD MSTORE PUSH32 0x446174615665723A20616C726561647920636F6D6D6974746564000000000000 PUSH1 0x44 DUP3 ADD MSTORE PUSH1 0x64 ADD PUSH2 0x52D JUMP JUMPDEST PUSH1 0x0 DUP2 DUP2 MSTORE PUSH1 0x1 PUSH1 0x20 DUP2 SWAP1 MSTORE PUSH1 0x40 DUP1 DUP4 KECCAK256 DUP1 SLOAD PUSH1 0xFF NOT AND SWAP1 SWAP3 OR SWAP1 SWAP2 SSTORE MLOAD CALLER SWAP2 DUP4 SWAP2 PUSH32 0x4652C5740293BAED0FCF7C238557592598E9082303DD991447DDF2879E31AF1F SWAP2 SWAP1 LOG3 POP JUMP JUMPDEST PUSH32 0x68E79A7BF1E0BC45D0A330C573BC367F9CF464FD326078812F301165FBDA4EF1 PUSH2 0x769 DUP2 PUSH2 0x8B8 JUMP JUMPDEST PUSH1 0x0 DUP4 DUP2 MSTORE PUSH1 0x1 PUSH1 0x20 MSTORE PUSH1 0x40 SWAP1 KECCAK256 SLOAD PUSH1 0xFF AND PUSH2 0x7C0 JUMPI PUSH1 0x40 MLOAD PUSH3 0x461BCD PUSH1 0xE5 SHL DUP2 MSTORE PUSH1 0x20 PUSH1 0x4 DUP3 ADD MSTORE PUSH1 0x16 PUSH1 0x24 DUP3 ADD MSTORE PUSH22 0x11185D1855995C8E881B9BC818DBDB5B5A5D1B595B9D PUSH1 0x52 SHL PUSH1 0x44 DUP3 ADD MSTORE PUSH1 0x64 ADD PUSH2 0x52D JUMP JUMPDEST PUSH1 0x0 DUP4 DUP2 MSTORE PUSH1 0x2 PUSH1 0x20 MSTORE PUSH1 0x40 SWAP1 KECCAK256 SLOAD PUSH1 0xFF AND ISZERO PUSH2 0x81F JUMPI PUSH1 0x40 MLOAD PUSH3 0x461BCD PUSH1 0xE5 SHL DUP2 MSTORE PUSH1 0x20 PUSH1 0x4 DUP3 ADD MSTORE PUSH1 0x1F PUSH1 0x24 DUP3 ADD MSTORE PUSH32 0x446174615665723A207665726469637420616C726561647920706F7374656400 PUSH1 0x44 DUP3 ADD MSTORE PUSH1 0x64 ADD PUSH2 0x52D JUMP JUMPDEST PUSH1 0x0 DUP4 DUP2 MSTORE PUSH1 0x2 PUSH1 0x20 SWAP1 DUP2 MSTORE PUSH1 0x40 DUP1 DUP4 KECCAK256 DUP1 SLOAD PUSH1 0xFF NOT SWAP1 DUP2 AND PUSH1 0x1 OR SWAP1 SWAP2 SSTORE PUSH1 0x3 DUP4 MSTORE SWAP3 DUP2 SWAP1 KECCAK256 DUP1 SLOAD DUP7 ISZERO ISZERO SWAP5 AND DUP5 OR SWAP1 SSTORE MLOAD SWAP2 DUP3 MSTORE DUP5 SWAP2 PUSH32 0x9AFDE556EE3A9FD222A316A3148EF6AA0885F86578BA05C58A8CAA4A8BED93BE SWAP2 ADD PUSH1 0x40 MLOAD DUP1 SWAP2 SUB SWAP1 LOG2 POP POP POP JUMP JUMPDEST PUSH1 0x0 DUP3 DUP2 MSTORE PUSH1 0x20 DUP2 SWAP1 MSTORE PUSH1 0x40 SWAP1 KECCAK256 PUSH1 0x1 ADD SLOAD PUSH2 0x8A2 DUP2 PUSH2 0x8B8 JUMP JUMPDEST PUSH2 0x3C5 DUP4 DUP4 PUSH2 0x954 JUMP JUMPDEST PUSH2 0x8B5 DUP2 PUSH2 0x64A JUMP JUMPDEST POP JUMP JUMPDEST PUSH2 0x8B5 DUP2 CALLER PUSH2 0x9BF JUMP JUMPDEST PUSH1 0x0 PUSH2 0x8CE DUP4 DUP4 PUSH2 0x466 JUMP JUMPDEST PUSH2 0x94C JUMPI PUSH1 0x0 DUP4 DUP2 MSTORE PUSH1 0x20 DUP2 DUP2 MSTORE PUSH1 0x40 DUP1 DUP4 KECCAK256 PUSH1 0x1 PUSH1 0x1 PUSH1 0xA0 SHL SUB DUP7 AND DUP5 MSTORE SWAP1 SWAP2 MSTORE SWAP1 KECCAK256 DUP1 SLOAD PUSH1 0xFF NOT AND PUSH1 0x1 OR SWAP1 SSTORE PUSH2 0x904 CALLER SWAP1 JUMP JUMPDEST PUSH1 0x1 PUSH1 0x1 PUSH1 0xA0 SHL SUB AND DUP3 PUSH1 0x1 PUSH1 0x1 PUSH1 0xA0 SHL SUB AND DUP5 PUSH32 0x2F8788117E7EFF1D82E926EC794901D17C78024A50270940304540A733656F0D PUSH1 0x40 MLOAD PUSH1 0x40 MLOAD DUP1 SWAP2 SUB SWAP1 LOG4 POP PUSH1 0x1 PUSH2 0x39A JUMP JUMPDEST POP PUSH1 0x0 PUSH2 0x39A JUMP JUMPDEST PUSH1 0x0 PUSH2 0x960 DUP4 DUP4 PUSH2 0x466 JUMP JUMPDEST ISZERO PUSH2 0x94C JUMPI PUSH1 0x0 DUP4 DUP2 MSTORE PUSH1 0x20 DUP2 DUP2 MSTORE PUSH1 0x40 DUP1 DUP4 KECCAK256 PUSH1 0x1 PUSH1 0x1 PUSH1 0xA0 SHL SUB DUP7 AND DUP1 DUP6 MSTORE SWAP3 MSTORE DUP1 DUP4 KECCAK256 DUP1 SLOAD PUSH1 0xFF NOT AND SWAP1 SSTORE MLOAD CALLER SWAP3 DUP7 SWAP2 PUSH32 0xF6391F5C32D9C69D2A47EA670B442974B53935D1EDC7FD64EB21E047A839171B SWAP2 SWAP1 LOG4 POP PUSH1 0x1 PUSH2 0x39A JUMP JUMPDEST PUSH2 0x9C9 DUP3 DUP3 PUSH2 0x466 JUMP JUMPDEST PUSH2 0x9F8 JUMPI PUSH1 0x40 MLOAD PUSH4 0xE2517D3F PUSH1 0xE0 SHL DUP2 MSTORE PUSH1 0x1 PUSH1 0x1 PUSH1 0xA0 SHL SUB DUP3 AND PUSH1 0x4 DUP3 ADD MSTORE PUSH1 0x24 DUP2 ADD DUP4 SWAP1 MSTORE PUSH1 0x44 ADD PUSH2 0x52D JUMP JUMPDEST POP POP JUMP JUMPDEST PUSH1 0x0 PUSH1 0x20 DUP3 DUP5 SUB SLT ISZERO PUSH2 0xA0E JUMPI PUSH1 0x0 DUP1 REVERT JUMPDEST DUP2 CALLDATALOAD PUSH1 0x1 PUSH1 0x1 PUSH1 0xE0 SHL SUB NOT DUP2 AND DUP2 EQ PUSH2 0xA26 JUMPI PUSH1 0x0 DUP1 REVERT JUMPDEST SWAP4 SWAP3 POP POP POP JUMP JUMPDEST PUSH1 0x0 PUSH1 0x20 DUP3 DUP5 SUB SLT ISZERO PUSH2 0xA3F JUMPI PUSH1 0x0 DUP1 REVERT JUMPDEST POP CALLDATALOAD SWAP2 SWAP1 POP JUMP JUMPDEST PUSH1 0x0 DUP1 PUSH1 0x40 DUP4 DUP6 SUB SLT ISZERO PUSH2 0xA59 JUMPI PUSH1 0x0 DUP1 REVERT JUMPDEST DUP3 CALLDATALOAD SWAP2 POP PUSH1 0x20 DUP4 ADD CALLDATALOAD PUSH1 0x1 PUSH1 0x1 PUSH1 0xA0 SHL SUB DUP2 AND DUP2 EQ PUSH2 0xA77 JUMPI PUSH1 0x0 DUP1 REVERT JUMPDEST DUP1 SWAP2 POP POP SWAP3 POP SWAP3 SWAP1 POP JUMP JUMPDEST PUSH1 0x0 DUP1 PUSH1 0x40 DUP4 DUP6 SUB SLT ISZERO PUSH2 0xA95 JUMPI PUSH1 0x0 DUP1 REVERT JUMPDEST POP POP DUP1 CALLDATALOAD SWAP3 PUSH1 0x20 SWAP1 SWAP2 ADD CALLDATALOAD SWAP2 POP JUMP JUMPDEST PUSH1 0x0 DUP1 PUSH1 0x40 DUP4 DUP6 SUB SLT ISZERO PUSH2 0xAB7 JUMPI PUSH1 0x0 DUP1 REVERT JUMPDEST DUP3 CALLDATALOAD SWAP2 POP PUSH1 0x20 DUP4 ADD CALLDATALOAD DUP1 ISZERO ISZERO DUP2 EQ PUSH2 0xA77 JUMPI PUSH1 0x0 DUP1 REVERT INVALID LOG2 PUSH5 0x6970667358 0x22 SLT KECCAK256 0xCF 0x49 CODECOPY PUSH0 PC PUSH12 0x1E48799A8A83CAD3EE2534B9 0xCD REVERT CHAINID 0xDE DUP15 0xAB 0xE2 0xEB 0xA7 0xC SWAP16 0xB9 PC REVERT PUSH5 0x736F6C6343 STOP ADDMOD OR STOP CALLER "},"methodIdentifiers":{"DEFAULT_ADMIN_ROLE()":"a217fddf","ORACLE_ROLE()":"07e2cea5","RA_ROLE()":"8b48de70","anchorVC(bytes32,bytes32)":"3510690c","commitReading(bytes32)":"fd488c64","commitments(bytes32)":"839df945","getRoleAdmin(bytes32)":"248a9ca3","grantRole(bytes32,address)":"2f2ff15d","hasRole(bytes32,address)":"91d14854","hasValidVerdict(bytes32)":"4d143104","isVCAnchored(bytes32)":"b8dde425","oraclePosted(bytes32)":"f8ac6242","oracleValid(bytes32)":"602525f7","postVerdict(bytes32,bool)":"a0d76bb5","renounceRole(bytes32,address)":"36568abe","revokeRole(bytes32,address)":"d547741f","storeVCCommitment(bytes32,bytes32)":"ab3f0e47","submitOracleVerification(bytes32,bool)":"d2a5c3c7","submitRECommitment(bytes32)":"b8f3dd3e","supportsInterface(bytes4)":"01ffc9a7","vcToReading(bytes32)":"c1a6c103"}}}}}