{"contracts/private/MetReg.sol":{"MetReg":{"abi":[{"inputs":[{"internalType":"address","name":"ga","type":"address"},{"internalType":"address","name":"ra","type":"address"}],"stateMutability":"nonpayable","type":"constructor"},{"inputs":[],"name":"AccessControlBadConfirmation","type":"error"},{"inputs":[{"internalType":"address","name":"account","type":"address"},{"internalType":"bytes32","name":"neededRole","type":"bytes32"}],"name":"AccessControlUnauthorizedAccount","type":"error"},{"inputs":[{"internalType":"bytes32","name":"meterIDHash","type":"bytes32"}],"name":"MeterAlreadyRegistered","type":"error"},{"anonymous":false,"inputs":[{"indexed":true,"internalType":"bytes32","name":"meterIDHash","type":"bytes32"},{"indexed":false,"internalType":"bool","name":"isActive","type":"bool"},{"indexed":false,"internalType":"bytes32","name":"certHash","type":"bytes32"}],"name":"MeterRegistered","type":"event"},{"anonymous":false,"inputs":[{"indexed":true,"internalType":"bytes32","name":"meterIDHash","type":"bytes32"},{"indexed":false,"internalType":"bool","name":"isActive","type":"bool"}],"name":"MeterStatusUpdated","type":"event"},{"anonymous":false,"inputs":[{"indexed":true,"internalType":"bytes32","name":"role","type":"bytes32"},{"indexed":true,"internalType":"bytes32","name":"previousAdminRole","type":"bytes32"},{"indexed":true,"internalType":"bytes32","name":"newAdminRole","type":"bytes32"}],"name":"RoleAdminChanged","type":"event"},{"anonymous":false,"inputs":[{"indexed":true,"internalType":"bytes32","name":"role","type":"bytes32"},{"indexed":true,"internalType":"address","name":"account","type":"address"},{"indexed":true,"internalType":"address","name":"sender","type":"address"}],"name":"RoleGranted","type":"event"},{"anonymous":false,"inputs":[{"indexed":true,"internalType":"bytes32","name":"role","type":"bytes32"},{"indexed":true,"internalType":"address","name":"account","type":"address"},{"indexed":true,"internalType":"address","name":"sender","type":"address"}],"name":"RoleRevoked","type":"event"},{"inputs":[],"name":"DEFAULT_ADMIN_ROLE","outputs":[{"internalType":"bytes32","name":"","type":"bytes32"}],"stateMutability":"view","type":"function"},{"inputs":[],"name":"GA_ROLE","outputs":[{"internalType":"bytes32","name":"","type":"bytes32"}],"stateMutability":"view","type":"function"},{"inputs":[],"name":"RA_ROLE","outputs":[{"internalType":"bytes32","name":"","type":"bytes32"}],"stateMutability":"view","type":"function"},{"inputs":[{"internalType":"bytes32","name":"meterIDHash","type":"bytes32"}],"name":"getMeter","outputs":[{"components":[{"internalType":"bool","name":"isActive","type":"bool"},{"internalType":"bytes","name":"cert","type":"bytes"},{"internalType":"uint64","name":"updatedAt","type":"uint64"}],"internalType":"struct MetReg.MeterRecord","name":"","type":"tuple"}],"stateMutability":"view","type":"function"},{"inputs":[{"internalType":"bytes32","name":"role","type":"bytes32"}],"name":"getRoleAdmin","outputs":[{"internalType":"bytes32","name":"","type":"bytes32"}],"stateMutability":"view","type":"function"},{"inputs":[{"internalType":"bytes32","name":"role","type":"bytes32"},{"internalType":"address","name":"account","type":"address"}],"name":"grantRole","outputs":[],"stateMutability":"nonpayable","type":"function"},{"inputs":[{"internalType":"bytes32","name":"role","type":"bytes32"},{"internalType":"address","name":"account","type":"address"}],"name":"hasRole","outputs":[{"internalType":"bool","name":"","type":"bool"}],"stateMutability":"view","type":"function"},{"inputs":[{"internalType":"bytes32","name":"meterIDHash","type":"bytes32"}],"name":"isMeterActive","outputs":[{"internalType":"bool","name":"","type":"bool"}],"stateMutability":"view","type":"function"},{"inputs":[{"internalType":"bytes32","name":"meterIDHash","type":"bytes32"},{"internalType":"bytes","name":"cert","type":"bytes"},{"internalType":"bool","name":"isActive","type":"bool"}],"name":"registerMeter","outputs":[],"stateMutability":"nonpayable","type":"function"},{"inputs":[{"internalType":"bytes32","name":"role","type":"bytes32"},{"internalType":"address","name":"callerConfirmation","type":"address"}],"name":"renounceRole","outputs":[],"stateMutability":"nonpayable","type":"function"},{"inputs":[{"internalType":"bytes32","name":"role","type":"bytes32"},{"internalType":"address","name":"account","type":"address"}],"name":"revokeRole","outputs":[],"stateMutability":"nonpayable","type":"function"},{"inputs":[{"internalType":"bytes4","name":"interfaceId","type":"bytes4"}],"name":"supportsInterface","outputs":[{"internalType":"bool","name":"","type":"bool"}],"stateMutability":"view","type":"function"},{"inputs":[{"internalType":"bytes32","name":"meterIDHash","type":"bytes32"},{"internalType":"bool","name":"isActive","type":"bool"}],"name":"updateMeterStatus","outputs":[],"stateMutability":"nonpayable","type":"function"},{"inputs":[{"internalType":"bytes32","name":"meterIDHash","type":"bytes32"}],"name":"verifyMeter","outputs":[{"internalType":"bool","name":"","type":"bool"}],"stateMutability":"view","type":"function"}],"evm":{"bytecode":{"linkReferences":{},"object":"608060405234801561001057600080fd5b50604051610d91380380610d9183398101604081905261002f91610160565b61003a600083610098565b506100657f7bf4eae929a5beb3de86b09399e1e9400865b34278f5c9ea4d28c2fba843d87a83610098565b506100907f6785eabb20d5cf67046260be3c357bd6a6316beacc7655be5eea637685299dcb82610098565b505050610193565b6000828152602081815260408083206001600160a01b038516845290915281205460ff1661013a576000838152602081815260408083206001600160a01b03861684529091529020805460ff191660011790556100f23390565b6001600160a01b0316826001600160a01b0316847f2f8788117e7eff1d82e926ec794901d17c78024a50270940304540a733656f0d60405160405180910390a450600161013e565b5060005b92915050565b80516001600160a01b038116811461015b57600080fd5b919050565b6000806040838503121561017357600080fd5b61017c83610144565b915061018a60208401610144565b90509250929050565b610bef806101a26000396000f3fe608060405234801561001057600080fd5b50600436106100ea5760003560e01c806391d148541161008c578063a4bc68ac11610066578063a4bc68ac146101eb578063a738707c1461020b578063c31adadd1461021e578063d547741f1461024557600080fd5b806391d14854146101bd578063a1fefb58146101d0578063a217fddf146101e357600080fd5b80632f2ff15d116100c85780632f2ff15d1461015d57806336568abe1461017057806380c36c5d146101835780638b48de701461019657600080fd5b806301ffc9a7146100ef5780631534e23114610117578063248a9ca31461012c575b600080fd5b6101026100fd366004610888565b610258565b60405190151581526020015b60405180910390f35b61012a6101253660046108c7565b61028f565b005b61014f61013a366004610954565b60009081526020819052604090206001015490565b60405190815260200161010e565b61012a61016b36600461096d565b61040f565b61012a61017e36600461096d565b61043a565b610102610191366004610954565b610472565b61014f7f6785eabb20d5cf67046260be3c357bd6a6316beacc7655be5eea637685299dcb81565b6101026101cb36600461096d565b6104f0565b61012a6101de3660046109a9565b610519565b61014f600081565b6101fe6101f9366004610954565b6105ba565b60405161010e91906109d5565b610102610219366004610954565b6106e9565b61014f7f7bf4eae929a5beb3de86b09399e1e9400865b34278f5c9ea4d28c2fba843d87a81565b61012a61025336600461096d565b61071c565b60006001600160e01b03198216637965db0b60e01b148061028957506301ffc9a760e01b6001600160e01b03198316145b92915050565b7f7bf4eae929a5beb3de86b09399e1e9400865b34278f5c9ea4d28c2fba843d87a6102b981610741565b60008581526001602052604090206002015467ffffffffffffffff16156102fb576040516338dab46f60e11b8152600481018690526024015b60405180910390fd5b6040518060600160405280831515815260200185858080601f01602080910402602001604051908101604052809392919081815260200183838082843760009201829052509385525050504267ffffffffffffffff16602092830152878152600180835260409091208351815460ff191690151517815591830151908201906103849082610ae9565b50604091820151600291909101805467ffffffffffffffff191667ffffffffffffffff9092169190911790555185907fa96ae566bc11a3c96a48d106f296643a1610f9af6d6c19106f2c5e61441b7af89084906103e49088908890610ba9565b6040519081900381206104009215158252602082015260400190565b60405180910390a25050505050565b60008281526020819052604090206001015461042a81610741565b610434838361074e565b50505050565b6001600160a01b03811633146104635760405163334bd91960e11b815260040160405180910390fd5b61046d82826107e0565b505050565b60007f6785eabb20d5cf67046260be3c357bd6a6316beacc7655be5eea637685299dcb61049e81610741565b6000838152600160205260409020805460ff1680156104ca5750600281015467ffffffffffffffff1615155b80156104e6575060008160010180546104e290610a65565b9050115b9250505b50919050565b6000918252602082815260408084206001600160a01b0393909316845291905290205460ff1690565b7f7bf4eae929a5beb3de86b09399e1e9400865b34278f5c9ea4d28c2fba843d87a61054381610741565b600083815260016020908152604091829020805460ff191685151590811782556002909101805467ffffffffffffffff19164267ffffffffffffffff16179055915191825284917f626041a363fd5a162f61a14c62ce69d4e4ec5dfc8ac61d6156f263c9418947e9910160405180910390a2505050565b6105ea604051806060016040528060001515815260200160608152602001600067ffffffffffffffff1681525090565b7f6785eabb20d5cf67046260be3c357bd6a6316beacc7655be5eea637685299dcb61061481610741565b600083815260016020818152604092839020835160608101909452805460ff161515845291820180549184019161064a90610a65565b80601f016020809104026020016040519081016040528092919081815260200182805461067690610a65565b80156106c35780601f10610698576101008083540402835291602001916106c3565b820191906000526020600020905b8154815290600101906020018083116106a657829003601f168201915b50505091835250506002919091015467ffffffffffffffff166020909101529392505050565b6000818152600160205260408120805460ff1680156107155750600281015467ffffffffffffffff1615155b9392505050565b60008281526020819052604090206001015461073781610741565b61043483836107e0565b61074b813361084b565b50565b600061075a83836104f0565b6107d8576000838152602081815260408083206001600160a01b03861684529091529020805460ff191660011790556107903390565b6001600160a01b0316826001600160a01b0316847f2f8788117e7eff1d82e926ec794901d17c78024a50270940304540a733656f0d60405160405180910390a4506001610289565b506000610289565b60006107ec83836104f0565b156107d8576000838152602081815260408083206001600160a01b0386168085529252808320805460ff1916905551339286917ff6391f5c32d9c69d2a47ea670b442974b53935d1edc7fd64eb21e047a839171b9190a4506001610289565b61085582826104f0565b6108845760405163e2517d3f60e01b81526001600160a01b0382166004820152602481018390526044016102f2565b5050565b60006020828403121561089a57600080fd5b81356001600160e01b03198116811461071557600080fd5b803580151581146108c257600080fd5b919050565b600080600080606085870312156108dd57600080fd5b84359350602085013567ffffffffffffffff808211156108fc57600080fd5b818701915087601f83011261091057600080fd5b81358181111561091f57600080fd5b88602082850101111561093157600080fd5b602083019550809450505050610949604086016108b2565b905092959194509250565b60006020828403121561096657600080fd5b5035919050565b6000806040838503121561098057600080fd5b8235915060208301356001600160a01b038116811461099e57600080fd5b809150509250929050565b600080604083850312156109bc57600080fd5b823591506109cc602084016108b2565b90509250929050565b60006020808352835115156020840152602084015160606040850152805180608086015260005b81811015610a185782810184015186820160a0015283016109fc565b50600085820160a00152604086015167ffffffffffffffff811660608701529250601f01601f19169390930160a001949350505050565b634e487b7160e01b600052604160045260246000fd5b600181811c90821680610a7957607f821691505b6020821081036104ea57634e487b7160e01b600052602260045260246000fd5b601f82111561046d576000816000526020600020601f850160051c81016020861015610ac25750805b601f850160051c820191505b81811015610ae157828155600101610ace565b505050505050565b815167ffffffffffffffff811115610b0357610b03610a4f565b610b1781610b118454610a65565b84610a99565b602080601f831160018114610b4c5760008415610b345750858301515b600019600386901b1c1916600185901b178555610ae1565b600085815260208120601f198616915b82811015610b7b57888601518255948401946001909101908401610b5c565b5085821015610b995787850151600019600388901b60f8161c191681555b5050505050600190811b01905550565b818382376000910190815291905056fea2646970667358221220359d5983ffdcea357c4e9684a8ada706bc8a8e17499f4cb75a541afb84a7f39064736f6c63430008170033","opcodes":"PUSH1 0x80 PUSH1 0x40 MSTORE CALLVALUE DUP1 ISZERO PUSH2 0x10 JUMPI PUSH1 0x0 DUP1 REVERT JUMPDEST POP PUSH1 0x40 MLOAD PUSH2 0xD91 CODESIZE SUB DUP1 PUSH2 0xD91 DUP4 CODECOPY DUP2 ADD PUSH1 0x40 DUP2 SWAP1 MSTORE PUSH2 0x2F SWAP2 PUSH2 0x160 JUMP JUMPDEST PUSH2 0x3A PUSH1 0x0 DUP4 PUSH2 0x98 JUMP JUMPDEST POP PUSH2 0x65 PUSH32 0x7BF4EAE929A5BEB3DE86B09399E1E9400865B34278F5C9EA4D28C2FBA843D87A DUP4 PUSH2 0x98 JUMP JUMPDEST POP PUSH2 0x90 PUSH32 0x6785EABB20D5CF67046260BE3C357BD6A6316BEACC7655BE5EEA637685299DCB DUP3 PUSH2 0x98 JUMP JUMPDEST POP POP POP PUSH2 0x193 JUMP JUMPDEST PUSH1 0x0 DUP3 DUP2 MSTORE PUSH1 0x20 DUP2 DUP2 MSTORE PUSH1 0x40 DUP1 DUP4 KECCAK256 PUSH1 0x1 PUSH1 0x1 PUSH1 0xA0 SHL SUB DUP6 AND DUP5 MSTORE SWAP1 SWAP2 MSTORE DUP2 KECCAK256 SLOAD PUSH1 0xFF AND PUSH2 0x13A JUMPI PUSH1 0x0 DUP4 DUP2 MSTORE PUSH1 0x20 DUP2 DUP2 MSTORE PUSH1 0x40 DUP1 DUP4 KECCAK256 PUSH1 0x1 PUSH1 0x1 PUSH1 0xA0 SHL SUB DUP7 AND DUP5 MSTORE SWAP1 SWAP2 MSTORE SWAP1 KECCAK256 DUP1 SLOAD PUSH1 0xFF NOT AND PUSH1 0x1 OR SWAP1 SSTORE PUSH2 0xF2 CALLER SWAP1 JUMP JUMPDEST PUSH1 0x1 PUSH1 0x1 PUSH1 0xA0 SHL SUB AND DUP3 PUSH1 0x1 PUSH1 0x1 PUSH1 0xA0 SHL SUB AND DUP5 PUSH32 0x2F8788117E7EFF1D82E926EC794901D17C78024A50270940304540A733656F0D PUSH1 0x40 MLOAD PUSH1 0x40 MLOAD DUP1 SWAP2 SUB SWAP1 LOG4 POP PUSH1 0x1 PUSH2 0x13E JUMP JUMPDEST POP PUSH1 0x0 JUMPDEST SWAP3 SWAP2 POP POP JUMP JUMPDEST DUP1 MLOAD PUSH1 0x1 PUSH1 0x1 PUSH1 0xA0 SHL SUB DUP2 AND DUP2 EQ PUSH2 0x15B JUMPI PUSH1 0x0 DUP1 REVERT JUMPDEST SWAP2 SWAP1 POP JUMP JUMPDEST PUSH1 0x0 DUP1 PUSH1 0x40 DUP4 DUP6 SUB SLT ISZERO PUSH2 0x173 JUMPI PUSH1 0x0 DUP1 REVERT JUMPDEST PUSH2 0x17C DUP4 PUSH2 0x144 JUMP JUMPDEST SWAP2 POP PUSH2 0x18A PUSH1 0x20 DUP5 ADD PUSH2 0x144 JUMP JUMPDEST SWAP1 POP SWAP3 POP SWAP3 SWAP1 POP JUMP JUMPDEST PUSH2 0xBEF DUP1 PUSH2 0x1A2 PUSH1 0x0 CODECOPY PUSH1 0x0 RETURN INVALID PUSH1 0x80 PUSH1 0x40 MSTORE CALLVALUE DUP1 ISZERO PUSH2 0x10 JUMPI PUSH1 0x0 DUP1 REVERT JUMPDEST POP PUSH1 0x4 CALLDATASIZE LT PUSH2 0xEA JUMPI PUSH1 0x0 CALLDATALOAD PUSH1 0xE0 SHR DUP1 PUSH4 0x91D14854 GT PUSH2 0x8C JUMPI DUP1 PUSH4 0xA4BC68AC GT PUSH2 0x66 JUMPI DUP1 PUSH4 0xA4BC68AC EQ PUSH2 0x1EB JUMPI DUP1 PUSH4 0xA738707C EQ PUSH2 0x20B JUMPI DUP1 PUSH4 0xC31ADADD EQ PUSH2 0x21E JUMPI DUP1 PUSH4 0xD547741F EQ PUSH2 0x245 JUMPI PUSH1 0x0 DUP1 REVERT JUMPDEST DUP1 PUSH4 0x91D14854 EQ PUSH2 0x1BD JUMPI DUP1 PUSH4 0xA1FEFB58 EQ PUSH2 0x1D0 JUMPI DUP1 PUSH4 0xA217FDDF EQ PUSH2 0x1E3 JUMPI PUSH1 0x0 DUP1 REVERT JUMPDEST DUP1 PUSH4 0x2F2FF15D GT PUSH2 0xC8 JUMPI DUP1 PUSH4 0x2F2FF15D EQ PUSH2 0x15D JUMPI DUP1 PUSH4 0x36568ABE EQ PUSH2 0x170 JUMPI DUP1 PUSH4 0x80C36C5D EQ PUSH2 0x183 JUMPI DUP1 PUSH4 0x8B48DE70 EQ PUSH2 0x196 JUMPI PUSH1 0x0 DUP1 REVERT JUMPDEST DUP1 PUSH4 0x1FFC9A7 EQ PUSH2 0xEF JUMPI DUP1 PUSH4 0x1534E231 EQ PUSH2 0x117 JUMPI DUP1 PUSH4 0x248A9CA3 EQ PUSH2 0x12C JUMPI JUMPDEST PUSH1 0x0 DUP1 REVERT JUMPDEST PUSH2 0x102 PUSH2 0xFD CALLDATASIZE PUSH1 0x4 PUSH2 0x888 JUMP JUMPDEST PUSH2 0x258 JUMP JUMPDEST PUSH1 0x40 MLOAD SWAP1 ISZERO ISZERO DUP2 MSTORE PUSH1 0x20 ADD JUMPDEST PUSH1 0x40 MLOAD DUP1 SWAP2 SUB SWAP1 RETURN JUMPDEST PUSH2 0x12A PUSH2 0x125 CALLDATASIZE PUSH1 0x4 PUSH2 0x8C7 JUMP JUMPDEST PUSH2 0x28F JUMP JUMPDEST STOP JUMPDEST PUSH2 0x14F PUSH2 0x13A CALLDATASIZE PUSH1 0x4 PUSH2 0x954 JUMP JUMPDEST PUSH1 0x0 SWAP1 DUP2 MSTORE PUSH1 0x20 DUP2 SWAP1 MSTORE PUSH1 0x40 SWAP1 KECCAK256 PUSH1 0x1 ADD SLOAD SWAP1 JUMP JUMPDEST PUSH1 0x40 MLOAD SWAP1 DUP2 MSTORE PUSH1 0x20 ADD PUSH2 0x10E JUMP JUMPDEST PUSH2 0x12A PUSH2 0x16B CALLDATASIZE PUSH1 0x4 PUSH2 0x96D JUMP JUMPDEST PUSH2 0x40F JUMP JUMPDEST PUSH2 0x12A PUSH2 0x17E CALLDATASIZE PUSH1 0x4 PUSH2 0x96D JUMP JUMPDEST PUSH2 0x43A JUMP JUMPDEST PUSH2 0x102 PUSH2 0x191 CALLDATASIZE PUSH1 0x4 PUSH2 0x954 JUMP JUMPDEST PUSH2 0x472 JUMP JUMPDEST PUSH2 0x14F PUSH32 0x6785EABB20D5CF67046260BE3C357BD6A6316BEACC7655BE5EEA637685299DCB DUP2 JUMP JUMPDEST PUSH2 0x102 PUSH2 0x1CB CALLDATASIZE PUSH1 0x4 PUSH2 0x96D JUMP JUMPDEST PUSH2 0x4F0 JUMP JUMPDEST PUSH2 0x12A PUSH2 0x1DE CALLDATASIZE PUSH1 0x4 PUSH2 0x9A9 JUMP JUMPDEST PUSH2 0x519 JUMP JUMPDEST PUSH2 0x14F PUSH1 0x0 DUP2 JUMP JUMPDEST PUSH2 0x1FE PUSH2 0x1F9 CALLDATASIZE PUSH1 0x4 PUSH2 0x954 JUMP JUMPDEST PUSH2 0x5BA JUMP JUMPDEST PUSH1 0x40 MLOAD PUSH2 0x10E SWAP2 SWAP1 PUSH2 0x9D5 JUMP JUMPDEST PUSH2 0x102 PUSH2 0x219 CALLDATASIZE PUSH1 0x4 PUSH2 0x954 JUMP JUMPDEST PUSH2 0x6E9 JUMP JUMPDEST PUSH2 0x14F PUSH32 0x7BF4EAE929A5BEB3DE86B09399E1E9400865B34278F5C9EA4D28C2FBA843D87A DUP2 JUMP JUMPDEST PUSH2 0x12A PUSH2 0x253 CALLDATASIZE PUSH1 0x4 PUSH2 0x96D JUMP JUMPDEST PUSH2 0x71C JUMP JUMPDEST PUSH1 0x0 PUSH1 0x1 PUSH1 0x1 PUSH1 0xE0 SHL SUB NOT DUP3 AND PUSH4 0x7965DB0B PUSH1 0xE0 SHL EQ DUP1 PUSH2 0x289 JUMPI POP PUSH4 0x1FFC9A7 PUSH1 0xE0 SHL PUSH1 0x1 PUSH1 0x1 PUSH1 0xE0 SHL SUB NOT DUP4 AND EQ JUMPDEST SWAP3 SWAP2 POP POP JUMP JUMPDEST PUSH32 0x7BF4EAE929A5BEB3DE86B09399E1E9400865B34278F5C9EA4D28C2FBA843D87A PUSH2 0x2B9 DUP2 PUSH2 0x741 JUMP JUMPDEST PUSH1 0x0 DUP6 DUP2 MSTORE PUSH1 0x1 PUSH1 0x20 MSTORE PUSH1 0x40 SWAP1 KECCAK256 PUSH1 0x2 ADD SLOAD PUSH8 0xFFFFFFFFFFFFFFFF AND ISZERO PUSH2 0x2FB JUMPI PUSH1 0x40 MLOAD PUSH4 0x38DAB46F PUSH1 0xE1 SHL DUP2 MSTORE PUSH1 0x4 DUP2 ADD DUP7 SWAP1 MSTORE PUSH1 0x24 ADD JUMPDEST PUSH1 0x40 MLOAD DUP1 SWAP2 SUB SWAP1 REVERT JUMPDEST PUSH1 0x40 MLOAD DUP1 PUSH1 0x60 ADD PUSH1 0x40 MSTORE DUP1 DUP4 ISZERO ISZERO DUP2 MSTORE PUSH1 0x20 ADD DUP6 DUP6 DUP1 DUP1 PUSH1 0x1F ADD PUSH1 0x20 DUP1 SWAP2 DIV MUL PUSH1 0x20 ADD PUSH1 0x40 MLOAD SWAP1 DUP2 ADD PUSH1 0x40 MSTORE DUP1 SWAP4 SWAP3 SWAP2 SWAP1 DUP2 DUP2 MSTORE PUSH1 0x20 ADD DUP4 DUP4 DUP1 DUP3 DUP5 CALLDATACOPY PUSH1 0x0 SWAP3 ADD DUP3 SWAP1 MSTORE POP SWAP4 DUP6 MSTORE POP POP POP TIMESTAMP PUSH8 0xFFFFFFFFFFFFFFFF AND PUSH1 0x20 SWAP3 DUP4 ADD MSTORE DUP8 DUP2 MSTORE PUSH1 0x1 DUP1 DUP4 MSTORE PUSH1 0x40 SWAP1 SWAP2 KECCAK256 DUP4 MLOAD DUP2 SLOAD PUSH1 0xFF NOT AND SWAP1 ISZERO ISZERO OR DUP2 SSTORE SWAP2 DUP4 ADD MLOAD SWAP1 DUP3 ADD SWAP1 PUSH2 0x384 SWAP1 DUP3 PUSH2 0xAE9 JUMP JUMPDEST POP PUSH1 0x40 SWAP2 DUP3 ADD MLOAD PUSH1 0x2 SWAP2 SWAP1 SWAP2 ADD DUP1 SLOAD PUSH8 0xFFFFFFFFFFFFFFFF NOT AND PUSH8 0xFFFFFFFFFFFFFFFF SWAP1 SWAP3 AND SWAP2 SWAP1 SWAP2 OR SWAP1 SSTORE MLOAD DUP6 SWAP1 PUSH32 0xA96AE566BC11A3C96A48D106F296643A1610F9AF6D6C19106F2C5E61441B7AF8 SWAP1 DUP5 SWAP1 PUSH2 0x3E4 SWAP1 DUP9 SWAP1 DUP9 SWAP1 PUSH2 0xBA9 JUMP JUMPDEST PUSH1 0x40 MLOAD SWAP1 DUP2 SWAP1 SUB DUP2 KECCAK256 PUSH2 0x400 SWAP3 ISZERO ISZERO DUP3 MSTORE PUSH1 0x20 DUP3 ADD MSTORE PUSH1 0x40 ADD SWAP1 JUMP JUMPDEST PUSH1 0x40 MLOAD DUP1 SWAP2 SUB SWAP1 LOG2 POP POP POP POP POP JUMP JUMPDEST PUSH1 0x0 DUP3 DUP2 MSTORE PUSH1 0x20 DUP2 SWAP1 MSTORE PUSH1 0x40 SWAP1 KECCAK256 PUSH1 0x1 ADD SLOAD PUSH2 0x42A DUP2 PUSH2 0x741 JUMP JUMPDEST PUSH2 0x434 DUP4 DUP4 PUSH2 0x74E JUMP JUMPDEST POP POP POP POP JUMP JUMPDEST PUSH1 0x1 PUSH1 0x1 PUSH1 0xA0 SHL SUB DUP2 AND CALLER EQ PUSH2 0x463 JUMPI PUSH1 0x40 MLOAD PUSH4 0x334BD919 PUSH1 0xE1 SHL DUP2 MSTORE PUSH1 0x4 ADD PUSH1 0x40 MLOAD DUP1 SWAP2 SUB SWAP1 REVERT JUMPDEST PUSH2 0x46D DUP3 DUP3 PUSH2 0x7E0 JUMP JUMPDEST POP POP POP JUMP JUMPDEST PUSH1 0x0 PUSH32 0x6785EABB20D5CF67046260BE3C357BD6A6316BEACC7655BE5EEA637685299DCB PUSH2 0x49E DUP2 PUSH2 0x741 JUMP JUMPDEST PUSH1 0x0 DUP4 DUP2 MSTORE PUSH1 0x1 PUSH1 0x20 MSTORE PUSH1 0x40 SWAP1 KECCAK256 DUP1 SLOAD PUSH1 0xFF AND DUP1 ISZERO PUSH2 0x4CA JUMPI POP PUSH1 0x2 DUP2 ADD SLOAD PUSH8 0xFFFFFFFFFFFFFFFF AND ISZERO ISZERO JUMPDEST DUP1 ISZERO PUSH2 0x4E6 JUMPI POP PUSH1 0x0 DUP2 PUSH1 0x1 ADD DUP1 SLOAD PUSH2 0x4E2 SWAP1 PUSH2 0xA65 JUMP JUMPDEST SWAP1 POP GT JUMPDEST SWAP3 POP POP JUMPDEST POP SWAP2 SWAP1 POP JUMP JUMPDEST PUSH1 0x0 SWAP2 DUP3 MSTORE PUSH1 0x20 DUP3 DUP2 MSTORE PUSH1 0x40 DUP1 DUP5 KECCAK256 PUSH1 0x1 PUSH1 0x1 PUSH1 0xA0 SHL SUB SWAP4 SWAP1 SWAP4 AND DUP5 MSTORE SWAP2 SWAP1 MSTORE SWAP1 KECCAK256 SLOAD PUSH1 0xFF AND SWAP1 JUMP JUMPDEST PUSH32 0x7BF4EAE929A5BEB3DE86B09399E1E9400865B34278F5C9EA4D28C2FBA843D87A PUSH2 0x543 DUP2 PUSH2 0x741 JUMP JUMPDEST PUSH1 0x0 DUP4 DUP2 MSTORE PUSH1 0x1 PUSH1 0x20 SWAP1 DUP2 MSTORE PUSH1 0x40 SWAP2 DUP3 SWAP1 KECCAK256 DUP1 SLOAD PUSH1 0xFF NOT AND DUP6 ISZERO ISZERO SWAP1 DUP2 OR DUP3 SSTORE PUSH1 0x2 SWAP1 SWAP2 ADD DUP1 SLOAD PUSH8 0xFFFFFFFFFFFFFFFF NOT AND TIMESTAMP PUSH8 0xFFFFFFFFFFFFFFFF AND OR SWAP1 SSTORE SWAP2 MLOAD SWAP2 DUP3 MSTORE DUP5 SWAP2 PUSH32 0x626041A363FD5A162F61A14C62CE69D4E4EC5DFC8AC61D6156F263C9418947E9 SWAP2 ADD PUSH1 0x40 MLOAD DUP1 SWAP2 SUB SWAP1 LOG2 POP POP POP JUMP JUMPDEST PUSH2 0x5EA PUSH1 0x40 MLOAD DUP1 PUSH1 0x60 ADD PUSH1 0x40 MSTORE DUP1 PUSH1 0x0 ISZERO ISZERO DUP2 MSTORE PUSH1 0x20 ADD PUSH1 0x60 DUP2 MSTORE PUSH1 0x20 ADD PUSH1 0x0 PUSH8 0xFFFFFFFFFFFFFFFF AND DUP2 MSTORE POP SWAP1 JUMP JUMPDEST PUSH32 0x6785EABB20D5CF67046260BE3C357BD6A6316BEACC7655BE5EEA637685299DCB PUSH2 0x614 DUP2 PUSH2 0x741 JUMP JUMPDEST PUSH1 0x0 DUP4 DUP2 MSTORE PUSH1 0x1 PUSH1 0x20 DUP2 DUP2 MSTORE PUSH1 0x40 SWAP3 DUP4 SWAP1 KECCAK256 DUP4 MLOAD PUSH1 0x60 DUP2 ADD SWAP1 SWAP5 MSTORE DUP1 SLOAD PUSH1 0xFF AND ISZERO ISZERO DUP5 MSTORE SWAP2 DUP3 ADD DUP1 SLOAD SWAP2 DUP5 ADD SWAP2 PUSH2 0x64A SWAP1 PUSH2 0xA65 JUMP JUMPDEST DUP1 PUSH1 0x1F ADD PUSH1 0x20 DUP1 SWAP2 DIV MUL PUSH1 0x20 ADD PUSH1 0x40 MLOAD SWAP1 DUP2 ADD PUSH1 0x40 MSTORE DUP1 SWAP3 SWAP2 SWAP1 DUP2 DUP2 MSTORE PUSH1 0x20 ADD DUP3 DUP1 SLOAD PUSH2 0x676 SWAP1 PUSH2 0xA65 JUMP JUMPDEST DUP1 ISZERO PUSH2 0x6C3 JUMPI DUP1 PUSH1 0x1F LT PUSH2 0x698 JUMPI PUSH2 0x100 DUP1 DUP4 SLOAD DIV MUL DUP4 MSTORE SWAP2 PUSH1 0x20 ADD SWAP2 PUSH2 0x6C3 JUMP JUMPDEST DUP3 ADD SWAP2 SWAP1 PUSH1 0x0 MSTORE PUSH1 0x20 PUSH1 0x0 KECCAK256 SWAP1 JUMPDEST DUP2 SLOAD DUP2 MSTORE SWAP1 PUSH1 0x1 ADD SWAP1 PUSH1 0x20 ADD DUP1 DUP4 GT PUSH2 0x6A6 JUMPI DUP3 SWAP1 SUB PUSH1 0x1F AND DUP3 ADD SWAP2 JUMPDEST POP POP POP SWAP2 DUP4 MSTORE POP POP PUSH1 0x2 SWAP2 SWAP1 SWAP2 ADD SLOAD PUSH8 0xFFFFFFFFFFFFFFFF AND PUSH1 0x20 SWAP1 SWAP2 ADD MSTORE SWAP4 SWAP3 POP POP POP JUMP JUMPDEST PUSH1 0x0 DUP2 DUP2 MSTORE PUSH1 0x1 PUSH1 0x20 MSTORE PUSH1 0x40 DUP2 KECCAK256 DUP1 SLOAD PUSH1 0xFF AND DUP1 ISZERO PUSH2 0x715 JUMPI POP PUSH1 0x2 DUP2 ADD SLOAD PUSH8 0xFFFFFFFFFFFFFFFF AND ISZERO ISZERO JUMPDEST SWAP4 SWAP3 POP POP POP JUMP JUMPDEST PUSH1 0x0 DUP3 DUP2 MSTORE PUSH1 0x20 DUP2 SWAP1 MSTORE PUSH1 0x40 SWAP1 KECCAK256 PUSH1 0x1 ADD SLOAD PUSH2 0x737 DUP2 PUSH2 0x741 JUMP JUMPDEST PUSH2 0x434 DUP4 DUP4 PUSH2 0x7E0 JUMP JUMPDEST PUSH2 0x74B DUP2 CALLER PUSH2 0x84B JUMP JUMPDEST POP JUMP JUMPDEST PUSH1 0x0 PUSH2 0x75A DUP4 DUP4 PUSH2 0x4F0 JUMP JUMPDEST PUSH2 0x7D8 JUMPI PUSH1 0x0 DUP4 DUP2 MSTORE PUSH1 0x20 DUP2 DUP2 MSTORE PUSH1 0x40 DUP1 DUP4 KECCAK256 PUSH1 0x1 PUSH1 0x1 PUSH1 0xA0 SHL SUB DUP7 AND DUP5 MSTORE SWAP1 SWAP2 MSTORE SWAP1 KECCAK256 DUP1 SLOAD PUSH1 0xFF NOT AND PUSH1 0x1 OR SWAP1 SSTORE PUSH2 0x790 CALLER SWAP1 JUMP JUMPDEST PUSH1 0x1 PUSH1 0x1 PUSH1 0xA0 SHL SUB AND DUP3 PUSH1 0x1 PUSH1 0x1 PUSH1 0xA0 SHL SUB AND DUP5 PUSH32 0x2F8788117E7EFF1D82E926EC794901D17C78024A50270940304540A733656F0D PUSH1 0x40 MLOAD PUSH1 0x40 MLOAD DUP1 SWAP2 SUB SWAP1 LOG4 POP PUSH1 0x1 PUSH2 0x289 JUMP JUMPDEST POP PUSH1 0x0 PUSH2 0x289 JUMP JUMPDEST PUSH1 0x0 PUSH2 0x7EC DUP4 DUP4 PUSH2 0x4F0 JUMP JUMPDEST ISZERO PUSH2 0x7D8 JUMPI PUSH1 0x0 DUP4 DUP2 MSTORE PUSH1 0x20 DUP2 DUP2 MSTORE PUSH1 0x40 DUP1 DUP4 KECCAK256 PUSH1 0x1 PUSH1 0x1 PUSH1 0xA0 SHL SUB DUP7 AND DUP1 DUP6 MSTORE SWAP3 MSTORE DUP1 DUP4 KECCAK256 DUP1 SLOAD PUSH1 0xFF NOT AND SWAP1 SSTORE MLOAD CALLER SWAP3 DUP7 SWAP2 PUSH32 0xF6391F5C32D9C69D2A47EA670B442974B53935D1EDC7FD64EB21E047A839171B SWAP2 SWAP1 LOG4 POP PUSH1 0x1 PUSH2 0x289 JUMP JUMPDEST PUSH2 0x855 DUP3 DUP3 PUSH2 0x4F0 JUMP JUMPDEST PUSH2 0x884 JUMPI PUSH1 0x40 MLOAD PUSH4 0xE2517D3F PUSH1 0xE0 SHL DUP2 MSTORE PUSH1 0x1 PUSH1 0x1 PUSH1 0xA0 SHL SUB DUP3 AND PUSH1 0x4 DUP3 ADD MSTORE PUSH1 0x24 DUP2 ADD DUP4 SWAP1 MSTORE PUSH1 0x44 ADD PUSH2 0x2F2 JUMP JUMPDEST POP POP JUMP JUMPDEST PUSH1 0x0 PUSH1 0x20 DUP3 DUP5 SUB SLT ISZERO PUSH2 0x89A JUMPI PUSH1 0x0 DUP1 REVERT JUMPDEST DUP2 CALLDATALOAD PUSH1 0x1 PUSH1 0x1 PUSH1 0xE0 SHL SUB NOT DUP2 AND DUP2 EQ PUSH2 0x715 JUMPI PUSH1 0x0 DUP1 REVERT JUMPDEST DUP1 CALLDATALOAD DUP1 ISZERO ISZERO DUP2 EQ PUSH2 0x8C2 JUMPI PUSH1 0x0 DUP1 REVERT JUMPDEST SWAP2 SWAP1 POP JUMP JUMPDEST PUSH1 0x0 DUP1 PUSH1 0x0 DUP1 PUSH1 0x60 DUP6 DUP8 SUB SLT ISZERO PUSH2 0x8DD JUMPI PUSH1 0x0 DUP1 REVERT JUMPDEST DUP5 CALLDATALOAD SWAP4 POP PUSH1 0x20 DUP6 ADD CALLDATALOAD PUSH8 0xFFFFFFFFFFFFFFFF DUP1 DUP3 GT ISZERO PUSH2 0x8FC JUMPI PUSH1 0x0 DUP1 REVERT JUMPDEST DUP2 DUP8 ADD SWAP2 POP DUP8 PUSH1 0x1F DUP4 ADD SLT PUSH2 0x910 JUMPI PUSH1 0x0 DUP1 REVERT JUMPDEST DUP2 CALLDATALOAD DUP2 DUP2 GT ISZERO PUSH2 0x91F JUMPI PUSH1 0x0 DUP1 REVERT JUMPDEST DUP9 PUSH1 0x20 DUP3 DUP6 ADD ADD GT ISZERO PUSH2 0x931 JUMPI PUSH1 0x0 DUP1 REVERT JUMPDEST PUSH1 0x20 DUP4 ADD SWAP6 POP DUP1 SWAP5 POP POP POP POP PUSH2 0x949 PUSH1 0x40 DUP7 ADD PUSH2 0x8B2 JUMP JUMPDEST SWAP1 POP SWAP3 SWAP6 SWAP2 SWAP5 POP SWAP3 POP JUMP JUMPDEST PUSH1 0x0 PUSH1 0x20 DUP3 DUP5 SUB SLT ISZERO PUSH2 0x966 JUMPI PUSH1 0x0 DUP1 REVERT JUMPDEST POP CALLDATALOAD SWAP2 SWAP1 POP JUMP JUMPDEST PUSH1 0x0 DUP1 PUSH1 0x40 DUP4 DUP6 SUB SLT ISZERO PUSH2 0x980 JUMPI PUSH1 0x0 DUP1 REVERT JUMPDEST DUP3 CALLDATALOAD SWAP2 POP PUSH1 0x20 DUP4 ADD CALLDATALOAD PUSH1 0x1 PUSH1 0x1 PUSH1 0xA0 SHL SUB DUP2 AND DUP2 EQ PUSH2 0x99E JUMPI PUSH1 0x0 DUP1 REVERT JUMPDEST DUP1 SWAP2 POP POP SWAP3 POP SWAP3 SWAP1 POP JUMP JUMPDEST PUSH1 0x0 DUP1 PUSH1 0x40 DUP4 DUP6 SUB SLT ISZERO PUSH2 0x9BC JUMPI PUSH1 0x0 DUP1 REVERT JUMPDEST DUP3 CALLDATALOAD SWAP2 POP PUSH2 0x9CC PUSH1 0x20 DUP5 ADD PUSH2 0x8B2 JUMP JUMPDEST SWAP1 POP SWAP3 POP SWAP3 SWAP1 POP JUMP JUMPDEST PUSH1 0x0 PUSH1 0x20 DUP1 DUP4 MSTORE DUP4 MLOAD ISZERO ISZERO PUSH1 0x20 DUP5 ADD MSTORE PUSH1 0x20 DUP5 ADD MLOAD PUSH1 0x60 PUSH1 0x40 DUP6 ADD MSTORE DUP1 MLOAD DUP1 PUSH1 0x80 DUP7 ADD MSTORE PUSH1 0x0 JUMPDEST DUP2 DUP2 LT ISZERO PUSH2 0xA18 JUMPI DUP3 DUP2 ADD DUP5 ADD MLOAD DUP7 DUP3 ADD PUSH1 0xA0 ADD MSTORE DUP4 ADD PUSH2 0x9FC JUMP JUMPDEST POP PUSH1 0x0 DUP6 DUP3 ADD PUSH1 0xA0 ADD MSTORE PUSH1 0x40 DUP7 ADD MLOAD PUSH8 0xFFFFFFFFFFFFFFFF DUP2 AND PUSH1 0x60 DUP8 ADD MSTORE SWAP3 POP PUSH1 0x1F ADD PUSH1 0x1F NOT AND SWAP4 SWAP1 SWAP4 ADD PUSH1 0xA0 ADD SWAP5 SWAP4 POP POP POP POP JUMP JUMPDEST PUSH4 0x4E487B71 PUSH1 0xE0 SHL PUSH1 0x0 MSTORE PUSH1 0x41 PUSH1 0x4 MSTORE PUSH1 0x24 PUSH1 0x0 REVERT JUMPDEST PUSH1 0x1 DUP2 DUP2 SHR SWAP1 DUP3 AND DUP1 PUSH2 0xA79 JUMPI PUSH1 0x7F DUP3 AND SWAP2 POP JUMPDEST PUSH1 0x20 DUP3 LT DUP2 SUB PUSH2 0x4EA JUMPI PUSH4 0x4E487B71 PUSH1 0xE0 SHL PUSH1 0x0 MSTORE PUSH1 0x22 PUSH1 0x4 MSTORE PUSH1 0x24 PUSH1 0x0 REVERT JUMPDEST PUSH1 0x1F DUP3 GT ISZERO PUSH2 0x46D JUMPI PUSH1 0x0 DUP2 PUSH1 0x0 MSTORE PUSH1 0x20 PUSH1 0x0 KECCAK256 PUSH1 0x1F DUP6 ADD PUSH1 0x5 SHR DUP2 ADD PUSH1 0x20 DUP7 LT ISZERO PUSH2 0xAC2 JUMPI POP DUP1 JUMPDEST PUSH1 0x1F DUP6 ADD PUSH1 0x5 SHR DUP3 ADD SWAP2 POP JUMPDEST DUP2 DUP2 LT ISZERO PUSH2 0xAE1 JUMPI DUP3 DUP2 SSTORE PUSH1 0x1 ADD PUSH2 0xACE JUMP JUMPDEST POP POP POP POP POP POP JUMP JUMPDEST DUP2 MLOAD PUSH8 0xFFFFFFFFFFFFFFFF DUP2 GT ISZERO PUSH2 0xB03 JUMPI PUSH2 0xB03 PUSH2 0xA4F JUMP JUMPDEST PUSH2 0xB17 DUP2 PUSH2 0xB11 DUP5 SLOAD PUSH2 0xA65 JUMP JUMPDEST DUP5 PUSH2 0xA99 JUMP JUMPDEST PUSH1 0x20 DUP1 PUSH1 0x1F DUP4 GT PUSH1 0x1 DUP2 EQ PUSH2 0xB4C JUMPI PUSH1 0x0 DUP5 ISZERO PUSH2 0xB34 JUMPI POP DUP6 DUP4 ADD MLOAD JUMPDEST PUSH1 0x0 NOT PUSH1 0x3 DUP7 SWAP1 SHL SHR NOT AND PUSH1 0x1 DUP6 SWAP1 SHL OR DUP6 SSTORE PUSH2 0xAE1 JUMP JUMPDEST PUSH1 0x0 DUP6 DUP2 MSTORE PUSH1 0x20 DUP2 KECCAK256 PUSH1 0x1F NOT DUP7 AND SWAP2 JUMPDEST DUP3 DUP2 LT ISZERO PUSH2 0xB7B JUMPI DUP9 DUP7 ADD MLOAD DUP3 SSTORE SWAP5 DUP5 ADD SWAP5 PUSH1 0x1 SWAP1 SWAP2 ADD SWAP1 DUP5 ADD PUSH2 0xB5C JUMP JUMPDEST POP DUP6 DUP3 LT ISZERO PUSH2 0xB99 JUMPI DUP8 DUP6 ADD MLOAD PUSH1 0x0 NOT PUSH1 0x3 DUP9 SWAP1 SHL PUSH1 0xF8 AND SHR NOT AND DUP2 SSTORE JUMPDEST POP POP POP POP POP PUSH1 0x1 SWAP1 DUP2 SHL ADD SWAP1 SSTORE POP JUMP JUMPDEST DUP2 DUP4 DUP3 CALLDATACOPY PUSH1 0x0 SWAP2 ADD SWAP1 DUP2 MSTORE SWAP2 SWAP1 POP JUMP INVALID LOG2 PUSH5 0x6970667358 0x22 SLT KECCAK256 CALLDATALOAD SWAP14 MSIZE DUP4 SELFDESTRUCT 0xDC 0xEA CALLDATALOAD PUSH29 0x4E9684A8ADA706BC8A8E17499F4CB75A541AFB84A7F39064736F6C6343 STOP ADDMOD OR STOP CALLER "},"methodIdentifiers":{"DEFAULT_ADMIN_ROLE()":"a217fddf","GA_ROLE()":"c31adadd","RA_ROLE()":"8b48de70","getMeter(bytes32)":"a4bc68ac","getRoleAdmin(bytes32)":"248a9ca3","grantRole(bytes32,address)":"2f2ff15d","hasRole(bytes32,address)":"91d14854","isMeterActive(bytes32)":"a738707c","registerMeter(bytes32,bytes,bool)":"1534e231","renounceRole(bytes32,address)":"36568abe","revokeRole(bytes32,address)":"d547741f","supportsInterface(bytes4)":"01ffc9a7","updateMeterStatus(bytes32,bool)":"a1fefb58","verifyMeter(bytes32)":"80c36c5d"}}}}}