{"contracts/mocks/MockCrossDomainMessenger.sol":{"MockCrossDomainMessenger":{"abi":[{"anonymous":false,"inputs":[{"indexed":true,"internalType":"address","name":"from","type":"address"},{"indexed":true,"internalType":"address","name":"target","type":"address"},{"indexed":false,"internalType":"bytes","name":"message","type":"bytes"},{"indexed":false,"internalType":"uint32","name":"gasLimit","type":"uint32"}],"name":"MessageSent","type":"event"},{"inputs":[{"internalType":"address","name":"target","type":"address"},{"internalType":"bytes","name":"message","type":"bytes"},{"internalType":"uint32","name":"gasLimit","type":"uint32"}],"name":"sendMessage","outputs":[],"stateMutability":"nonpayable","type":"function"},{"inputs":[],"name":"xDomainMessageSender","outputs":[{"internalType":"address","name":"","type":"address"}],"stateMutability":"view","type":"function"}],"evm":{"bytecode":{"linkReferences":{},"object":"608060405234801561001057600080fd5b50610287806100206000396000f3fe608060405234801561001057600080fd5b50600436106100365760003560e01c80633dbb202b1461003b5780636e296e4514610050575b600080fd5b61004e610049366004610155565b61006f565b005b600054604080516001600160a01b039092168252519081900360200190f35b600080546001600160a01b031916339081179091556040516001600160a01b03861691907feee621abb842b15d4a9c743701870f3fb19eb4b14f05e9814a0779d8324d281a906100c490879087908790610202565b60405180910390a3600080856001600160a01b031685856040516100e9929190610241565b6000604051808303816000865af19150503d8060008114610126576040519150601f19603f3d011682016040523d82523d6000602084013e61012b565b606091505b50915091508161013d57805160208201fd5b5050600080546001600160a01b031916905550505050565b6000806000806060858703121561016b57600080fd5b84356001600160a01b038116811461018257600080fd5b9350602085013567ffffffffffffffff8082111561019f57600080fd5b818701915087601f8301126101b357600080fd5b8135818111156101c257600080fd5b8860208285010111156101d457600080fd5b602083019550809450505050604085013563ffffffff811681146101f757600080fd5b939692955090935050565b604081528260408201528284606083013760006060848301015260006060601f19601f860116830101905063ffffffff83166020830152949350505050565b818382376000910190815291905056fea26469706673582212208f3f9d369ff1772b6068040bd83ba7dfea0ecdb899acab7ce2dce1346f54ebc764736f6c63430008170033","opcodes":"PUSH1 0x80 PUSH1 0x40 MSTORE CALLVALUE DUP1 ISZERO PUSH2 0x10 JUMPI PUSH1 0x0 DUP1 REVERT JUMPDEST POP PUSH2 0x287 DUP1 PUSH2 0x20 PUSH1 0x0 CODECOPY PUSH1 0x0 RETURN INVALID PUSH1 0x80 PUSH1 0x40 MSTORE CALLVALUE DUP1 ISZERO PUSH2 0x10 JUMPI PUSH1 0x0 DUP1 REVERT JUMPDEST POP PUSH1 0x4 CALLDATASIZE LT PUSH2 0x36 JUMPI PUSH1 0x0 CALLDATALOAD PUSH1 0xE0 SHR DUP1 PUSH4 0x3DBB202B EQ PUSH2 0x3B JUMPI DUP1 PUSH4 0x6E296E45 EQ PUSH2 0x50 JUMPI JUMPDEST PUSH1 0x0 DUP1 REVERT JUMPDEST PUSH2 0x4E PUSH2 0x49 CALLDATASIZE PUSH1 0x4 PUSH2 0x155 JUMP JUMPDEST PUSH2 0x6F JUMP JUMPDEST STOP JUMPDEST PUSH1 0x0 SLOAD PUSH1 0x40 DUP1 MLOAD PUSH1 0x1 PUSH1 0x1 PUSH1 0xA0 SHL SUB SWAP1 SWAP3 AND DUP3 MSTORE MLOAD SWAP1 DUP2 SWAP1 SUB PUSH1 0x20 ADD SWAP1 RETURN JUMPDEST PUSH1 0x0 DUP1 SLOAD PUSH1 0x1 PUSH1 0x1 PUSH1 0xA0 SHL SUB NOT AND CALLER SWAP1 DUP2 OR SWAP1 SWAP2 SSTORE PUSH1 0x40 MLOAD PUSH1 0x1 PUSH1 0x1 PUSH1 0xA0 SHL SUB DUP7 AND SWAP2 SWAP1 PUSH32 0xEEE621ABB842B15D4A9C743701870F3FB19EB4B14F05E9814A0779D8324D281A SWAP1 PUSH2 0xC4 SWAP1 DUP8 SWAP1 DUP8 SWAP1 DUP8 SWAP1 PUSH2 0x202 JUMP JUMPDEST PUSH1 0x40 MLOAD DUP1 SWAP2 SUB SWAP1 LOG3 PUSH1 0x0 DUP1 DUP6 PUSH1 0x1 PUSH1 0x1 PUSH1 0xA0 SHL SUB AND DUP6 DUP6 PUSH1 0x40 MLOAD PUSH2 0xE9 SWAP3 SWAP2 SWAP1 PUSH2 0x241 JUMP JUMPDEST PUSH1 0x0 PUSH1 0x40 MLOAD DUP1 DUP4 SUB DUP2 PUSH1 0x0 DUP7 GAS CALL SWAP2 POP POP RETURNDATASIZE DUP1 PUSH1 0x0 DUP2 EQ PUSH2 0x126 JUMPI PUSH1 0x40 MLOAD SWAP2 POP PUSH1 0x1F NOT PUSH1 0x3F RETURNDATASIZE ADD AND DUP3 ADD PUSH1 0x40 MSTORE RETURNDATASIZE DUP3 MSTORE RETURNDATASIZE PUSH1 0x0 PUSH1 0x20 DUP5 ADD RETURNDATACOPY PUSH2 0x12B JUMP JUMPDEST PUSH1 0x60 SWAP2 POP JUMPDEST POP SWAP2 POP SWAP2 POP DUP2 PUSH2 0x13D JUMPI DUP1 MLOAD PUSH1 0x20 DUP3 ADD REVERT JUMPDEST POP POP PUSH1 0x0 DUP1 SLOAD PUSH1 0x1 PUSH1 0x1 PUSH1 0xA0 SHL SUB NOT AND SWAP1 SSTORE POP POP POP POP JUMP JUMPDEST PUSH1 0x0 DUP1 PUSH1 0x0 DUP1 PUSH1 0x60 DUP6 DUP8 SUB SLT ISZERO PUSH2 0x16B JUMPI PUSH1 0x0 DUP1 REVERT JUMPDEST DUP5 CALLDATALOAD PUSH1 0x1 PUSH1 0x1 PUSH1 0xA0 SHL SUB DUP2 AND DUP2 EQ PUSH2 0x182 JUMPI PUSH1 0x0 DUP1 REVERT JUMPDEST SWAP4 POP PUSH1 0x20 DUP6 ADD CALLDATALOAD PUSH8 0xFFFFFFFFFFFFFFFF DUP1 DUP3 GT ISZERO PUSH2 0x19F JUMPI PUSH1 0x0 DUP1 REVERT JUMPDEST DUP2 DUP8 ADD SWAP2 POP DUP8 PUSH1 0x1F DUP4 ADD SLT PUSH2 0x1B3 JUMPI PUSH1 0x0 DUP1 REVERT JUMPDEST DUP2 CALLDATALOAD DUP2 DUP2 GT ISZERO PUSH2 0x1C2 JUMPI PUSH1 0x0 DUP1 REVERT JUMPDEST DUP9 PUSH1 0x20 DUP3 DUP6 ADD ADD GT ISZERO PUSH2 0x1D4 JUMPI PUSH1 0x0 DUP1 REVERT JUMPDEST PUSH1 0x20 DUP4 ADD SWAP6 POP DUP1 SWAP5 POP POP POP POP PUSH1 0x40 DUP6 ADD CALLDATALOAD PUSH4 0xFFFFFFFF DUP2 AND DUP2 EQ PUSH2 0x1F7 JUMPI PUSH1 0x0 DUP1 REVERT JUMPDEST SWAP4 SWAP7 SWAP3 SWAP6 POP SWAP1 SWAP4 POP POP JUMP JUMPDEST PUSH1 0x40 DUP2 MSTORE DUP3 PUSH1 0x40 DUP3 ADD MSTORE DUP3 DUP5 PUSH1 0x60 DUP4 ADD CALLDATACOPY PUSH1 0x0 PUSH1 0x60 DUP5 DUP4 ADD ADD MSTORE PUSH1 0x0 PUSH1 0x60 PUSH1 0x1F NOT PUSH1 0x1F DUP7 ADD AND DUP4 ADD ADD SWAP1 POP PUSH4 0xFFFFFFFF DUP4 AND PUSH1 0x20 DUP4 ADD MSTORE SWAP5 SWAP4 POP POP POP POP JUMP JUMPDEST DUP2 DUP4 DUP3 CALLDATACOPY PUSH1 0x0 SWAP2 ADD SWAP1 DUP2 MSTORE SWAP2 SWAP1 POP JUMP INVALID LOG2 PUSH5 0x6970667358 0x22 SLT KECCAK256 DUP16 EXTCODEHASH SWAP14 CALLDATASIZE SWAP16 CALL PUSH24 0x2B6068040BD83BA7DFEA0ECDB899ACAB7CE2DCE1346F54EB 0xC7 PUSH5 0x736F6C6343 STOP ADDMOD OR STOP CALLER "},"methodIdentifiers":{"sendMessage(address,bytes,uint32)":"3dbb202b","xDomainMessageSender()":"6e296e45"}}}}}