{"contracts/mocks/DemoIssuerVerifier.sol":{"DemoIssuerVerifier":{"abi":[{"inputs":[{"internalType":"address","name":"issuerSigner_","type":"address"}],"stateMutability":"nonpayable","type":"constructor"},{"inputs":[],"name":"ECDSAInvalidSignature","type":"error"},{"inputs":[{"internalType":"uint256","name":"length","type":"uint256"}],"name":"ECDSAInvalidSignatureLength","type":"error"},{"inputs":[{"internalType":"bytes32","name":"s","type":"bytes32"}],"name":"ECDSAInvalidSignatureS","type":"error"},{"inputs":[],"name":"DOMAIN","outputs":[{"internalType":"bytes32","name":"","type":"bytes32"}],"stateMutability":"view","type":"function"},{"inputs":[{"internalType":"address","name":"to","type":"address"},{"internalType":"bytes32","name":"dtHash","type":"bytes32"},{"internalType":"bytes32","name":"hiddenCommitment","type":"bytes32"},{"internalType":"uint64","name":"epochIndex","type":"uint64"},{"internalType":"uint16","name":"typeCode","type":"uint16"},{"internalType":"uint256","name":"qtyKWh","type":"uint256"},{"internalType":"uint128","name":"policyNonce","type":"uint128"},{"internalType":"uint64","name":"expiry","type":"uint64"}],"name":"computeDigest","outputs":[{"internalType":"bytes32","name":"","type":"bytes32"}],"stateMutability":"pure","type":"function"},{"inputs":[{"internalType":"address","name":"to","type":"address"},{"internalType":"bytes32","name":"dtHash","type":"bytes32"},{"internalType":"bytes32","name":"hiddenCommitment","type":"bytes32"},{"internalType":"uint64","name":"epochIndex","type":"uint64"},{"internalType":"uint16","name":"typeCode","type":"uint16"},{"internalType":"uint256","name":"qtyKWh","type":"uint256"},{"internalType":"uint128","name":"policyNonce","type":"uint128"},{"internalType":"uint64","name":"expiry","type":"uint64"}],"name":"digest","outputs":[{"internalType":"bytes32","name":"","type":"bytes32"}],"stateMutability":"pure","type":"function"},{"inputs":[],"name":"issuerSigner","outputs":[{"internalType":"address","name":"","type":"address"}],"stateMutability":"view","type":"function"},{"inputs":[{"internalType":"address","name":"issuerSigner_","type":"address"}],"name":"setIssuerSigner","outputs":[],"stateMutability":"nonpayable","type":"function"},{"inputs":[{"internalType":"address","name":"to","type":"address"},{"internalType":"bytes32","name":"dtHash","type":"bytes32"},{"internalType":"bytes32","name":"hiddenCommitment","type":"bytes32"},{"internalType":"uint64","name":"epochIndex","type":"uint64"},{"internalType":"uint16","name":"typeCode","type":"uint16"},{"internalType":"uint256","name":"qtyKWh","type":"uint256"},{"internalType":"uint128","name":"policyNonce","type":"uint128"},{"internalType":"uint64","name":"expiry","type":"uint64"},{"internalType":"bytes","name":"proof","type":"bytes"}],"name":"verify","outputs":[{"internalType":"bool","name":"","type":"bool"}],"stateMutability":"view","type":"function"}],"evm":{"bytecode":{"linkReferences":{},"object":"608060405234801561001057600080fd5b5060405161082e38038061082e83398101604081905261002f91610099565b6001600160a01b0381166100745760405162461bcd60e51b815260206004820152600860248201526706973737565723d360c41b604482015260640160405180910390fd5b600080546001600160a01b0319166001600160a01b03929092169190911790556100c9565b6000602082840312156100ab57600080fd5b81516001600160a01b03811681146100c257600080fd5b9392505050565b610756806100d86000396000f3fe608060405234801561001057600080fd5b50600436106100625760003560e01c80631be96f55146100675780631da3b2d11461008f57806352a9674b146100b0578063794c5e90146100d7578063895c1697146100ec578063e717013814610117575b600080fd5b61007a610075366004610582565b61012a565b60405190151581526020015b60405180910390f35b6100a261009d366004610666565b6101f4565b604051908152602001610086565b6100a27fbcf3c5548d3d43b717e30dd6a79c8218e534c5235ef5757f103e5cb702d9a18b81565b6100ea6100e53660046106e8565b61029b565b005b6000546100ff906001600160a01b031681565b6040516001600160a01b039091168152602001610086565b6100a2610125366004610666565b610303565b60008367ffffffffffffffff16421115610146575060006101e6565b60006101588c8c8c8c8c8c8c8c6101f4565b7f19457468657265756d205369676e6564204d6573736167653a0a3332000000006000908152601c829052603c81209192505060006101cf86868080601f01602080910402602001604051908101604052809392919081815260200183838082843760009201919091525086939250506103229050565b6000546001600160a01b0391821691161493505050505b9a9950505050505050505050565b604080517fbcf3c5548d3d43b717e30dd6a79c8218e534c5235ef5757f103e5cb702d9a18b6020808301919091526001600160a01b039a909a16818301526060810198909852608088019690965267ffffffffffffffff94851660a088015261ffff9390931660c087015260e08601919091526001600160801b03166101008501521661012080840191909152815180840390910181526101409092019052805191012090565b6001600160a01b0381166102e15760405162461bcd60e51b815260206004820152600860248201526706973737565723d360c41b60448201526064015b60405180910390fd5b600080546001600160a01b0319166001600160a01b0392909216919091179055565b600061031589898989898989896101f4565b9998505050505050505050565b600080600080610332868661034c565b9250925092506103428282610399565b5090949350505050565b600080600083516041036103865760208401516040850151606086015160001a61037888828585610456565b955095509550505050610392565b50508151600091506002905b9250925092565b60008260038111156103ad576103ad61070a565b036103b6575050565b60018260038111156103ca576103ca61070a565b036103e85760405163f645eedf60e01b815260040160405180910390fd5b60028260038111156103fc576103fc61070a565b0361041d5760405163fce698f760e01b8152600481018290526024016102d8565b60038260038111156104315761043161070a565b03610452576040516335e2f38360e21b8152600481018290526024016102d8565b5050565b600080807f7fffffffffffffffffffffffffffffff5d576e7357a4501ddfe92f46681b20a0841115610491575060009150600390508261051b565b604080516000808252602082018084528a905260ff891692820192909252606081018790526080810186905260019060a0016020604051602081039080840390855afa1580156104e5573d6000803e3d6000fd5b5050604051601f1901519150506001600160a01b0381166105115750600092506001915082905061051b565b9250600091508190505b9450945094915050565b80356001600160a01b038116811461053c57600080fd5b919050565b803567ffffffffffffffff8116811461053c57600080fd5b803561ffff8116811461053c57600080fd5b80356001600160801b038116811461053c57600080fd5b6000806000806000806000806000806101208b8d0312156105a257600080fd5b6105ab8b610525565b995060208b0135985060408b013597506105c760608c01610541565b96506105d560808c01610559565b955060a08b013594506105ea60c08c0161056b565b93506105f860e08c01610541565b92506101008b013567ffffffffffffffff8082111561061657600080fd5b818d0191508d601f83011261062a57600080fd5b81358181111561063957600080fd5b8e602082850101111561064b57600080fd5b6020830194508093505050509295989b9194979a5092959850565b600080600080600080600080610100898b03121561068357600080fd5b61068c89610525565b975060208901359650604089013595506106a860608a01610541565b94506106b660808a01610559565b935060a089013592506106cb60c08a0161056b565b91506106d960e08a01610541565b90509295985092959890939650565b6000602082840312156106fa57600080fd5b61070382610525565b9392505050565b634e487b7160e01b600052602160045260246000fdfea2646970667358221220c4891faeefada43833d9a2945e0075706c4dfe392fae4140dc2a5850d315aa8b64736f6c63430008170033","opcodes":"PUSH1 0x80 PUSH1 0x40 MSTORE CALLVALUE DUP1 ISZERO PUSH2 0x10 JUMPI PUSH1 0x0 DUP1 REVERT JUMPDEST POP PUSH1 0x40 MLOAD PUSH2 0x82E CODESIZE SUB DUP1 PUSH2 0x82E DUP4 CODECOPY DUP2 ADD PUSH1 0x40 DUP2 SWAP1 MSTORE PUSH2 0x2F SWAP2 PUSH2 0x99 JUMP JUMPDEST PUSH1 0x1 PUSH1 0x1 PUSH1 0xA0 SHL SUB DUP2 AND PUSH2 0x74 JUMPI PUSH1 0x40 MLOAD PUSH3 0x461BCD PUSH1 0xE5 SHL DUP2 MSTORE PUSH1 0x20 PUSH1 0x4 DUP3 ADD MSTORE PUSH1 0x8 PUSH1 0x24 DUP3 ADD MSTORE PUSH8 0x6973737565723D3 PUSH1 0xC4 SHL PUSH1 0x44 DUP3 ADD MSTORE PUSH1 0x64 ADD PUSH1 0x40 MLOAD DUP1 SWAP2 SUB SWAP1 REVERT JUMPDEST PUSH1 0x0 DUP1 SLOAD PUSH1 0x1 PUSH1 0x1 PUSH1 0xA0 SHL SUB NOT AND PUSH1 0x1 PUSH1 0x1 PUSH1 0xA0 SHL SUB SWAP3 SWAP1 SWAP3 AND SWAP2 SWAP1 SWAP2 OR SWAP1 SSTORE PUSH2 0xC9 JUMP JUMPDEST PUSH1 0x0 PUSH1 0x20 DUP3 DUP5 SUB SLT ISZERO PUSH2 0xAB JUMPI PUSH1 0x0 DUP1 REVERT JUMPDEST DUP2 MLOAD PUSH1 0x1 PUSH1 0x1 PUSH1 0xA0 SHL SUB DUP2 AND DUP2 EQ PUSH2 0xC2 JUMPI PUSH1 0x0 DUP1 REVERT JUMPDEST SWAP4 SWAP3 POP POP POP JUMP JUMPDEST PUSH2 0x756 DUP1 PUSH2 0xD8 PUSH1 0x0 CODECOPY PUSH1 0x0 RETURN INVALID PUSH1 0x80 PUSH1 0x40 MSTORE CALLVALUE DUP1 ISZERO PUSH2 0x10 JUMPI PUSH1 0x0 DUP1 REVERT JUMPDEST POP PUSH1 0x4 CALLDATASIZE LT PUSH2 0x62 JUMPI PUSH1 0x0 CALLDATALOAD PUSH1 0xE0 SHR DUP1 PUSH4 0x1BE96F55 EQ PUSH2 0x67 JUMPI DUP1 PUSH4 0x1DA3B2D1 EQ PUSH2 0x8F JUMPI DUP1 PUSH4 0x52A9674B EQ PUSH2 0xB0 JUMPI DUP1 PUSH4 0x794C5E90 EQ PUSH2 0xD7 JUMPI DUP1 PUSH4 0x895C1697 EQ PUSH2 0xEC JUMPI DUP1 PUSH4 0xE7170138 EQ PUSH2 0x117 JUMPI JUMPDEST PUSH1 0x0 DUP1 REVERT JUMPDEST PUSH2 0x7A PUSH2 0x75 CALLDATASIZE PUSH1 0x4 PUSH2 0x582 JUMP JUMPDEST PUSH2 0x12A JUMP JUMPDEST PUSH1 0x40 MLOAD SWAP1 ISZERO ISZERO DUP2 MSTORE PUSH1 0x20 ADD JUMPDEST PUSH1 0x40 MLOAD DUP1 SWAP2 SUB SWAP1 RETURN JUMPDEST PUSH2 0xA2 PUSH2 0x9D CALLDATASIZE PUSH1 0x4 PUSH2 0x666 JUMP JUMPDEST PUSH2 0x1F4 JUMP JUMPDEST PUSH1 0x40 MLOAD SWAP1 DUP2 MSTORE PUSH1 0x20 ADD PUSH2 0x86 JUMP JUMPDEST PUSH2 0xA2 PUSH32 0xBCF3C5548D3D43B717E30DD6A79C8218E534C5235EF5757F103E5CB702D9A18B DUP2 JUMP JUMPDEST PUSH2 0xEA PUSH2 0xE5 CALLDATASIZE PUSH1 0x4 PUSH2 0x6E8 JUMP JUMPDEST PUSH2 0x29B JUMP JUMPDEST STOP JUMPDEST PUSH1 0x0 SLOAD PUSH2 0xFF SWAP1 PUSH1 0x1 PUSH1 0x1 PUSH1 0xA0 SHL SUB AND DUP2 JUMP JUMPDEST PUSH1 0x40 MLOAD PUSH1 0x1 PUSH1 0x1 PUSH1 0xA0 SHL SUB SWAP1 SWAP2 AND DUP2 MSTORE PUSH1 0x20 ADD PUSH2 0x86 JUMP JUMPDEST PUSH2 0xA2 PUSH2 0x125 CALLDATASIZE PUSH1 0x4 PUSH2 0x666 JUMP JUMPDEST PUSH2 0x303 JUMP JUMPDEST PUSH1 0x0 DUP4 PUSH8 0xFFFFFFFFFFFFFFFF AND TIMESTAMP GT ISZERO PUSH2 0x146 JUMPI POP PUSH1 0x0 PUSH2 0x1E6 JUMP JUMPDEST PUSH1 0x0 PUSH2 0x158 DUP13 DUP13 DUP13 DUP13 DUP13 DUP13 DUP13 DUP13 PUSH2 0x1F4 JUMP JUMPDEST PUSH32 0x19457468657265756D205369676E6564204D6573736167653A0A333200000000 PUSH1 0x0 SWAP1 DUP2 MSTORE PUSH1 0x1C DUP3 SWAP1 MSTORE PUSH1 0x3C DUP2 KECCAK256 SWAP2 SWAP3 POP POP PUSH1 0x0 PUSH2 0x1CF DUP7 DUP7 DUP1 DUP1 PUSH1 0x1F ADD PUSH1 0x20 DUP1 SWAP2 DIV MUL PUSH1 0x20 ADD PUSH1 0x40 MLOAD SWAP1 DUP2 ADD PUSH1 0x40 MSTORE DUP1 SWAP4 SWAP3 SWAP2 SWAP1 DUP2 DUP2 MSTORE PUSH1 0x20 ADD DUP4 DUP4 DUP1 DUP3 DUP5 CALLDATACOPY PUSH1 0x0 SWAP3 ADD SWAP2 SWAP1 SWAP2 MSTORE POP DUP7 SWAP4 SWAP3 POP POP PUSH2 0x322 SWAP1 POP JUMP JUMPDEST PUSH1 0x0 SLOAD PUSH1 0x1 PUSH1 0x1 PUSH1 0xA0 SHL SUB SWAP2 DUP3 AND SWAP2 AND EQ SWAP4 POP POP POP POP JUMPDEST SWAP11 SWAP10 POP POP POP POP POP POP POP POP POP POP JUMP JUMPDEST PUSH1 0x40 DUP1 MLOAD PUSH32 0xBCF3C5548D3D43B717E30DD6A79C8218E534C5235EF5757F103E5CB702D9A18B PUSH1 0x20 DUP1 DUP4 ADD SWAP2 SWAP1 SWAP2 MSTORE PUSH1 0x1 PUSH1 0x1 PUSH1 0xA0 SHL SUB SWAP11 SWAP1 SWAP11 AND DUP2 DUP4 ADD MSTORE PUSH1 0x60 DUP2 ADD SWAP9 SWAP1 SWAP9 MSTORE PUSH1 0x80 DUP9 ADD SWAP7 SWAP1 SWAP7 MSTORE PUSH8 0xFFFFFFFFFFFFFFFF SWAP5 DUP6 AND PUSH1 0xA0 DUP9 ADD MSTORE PUSH2 0xFFFF SWAP4 SWAP1 SWAP4 AND PUSH1 0xC0 DUP8 ADD MSTORE PUSH1 0xE0 DUP7 ADD SWAP2 SWAP1 SWAP2 MSTORE PUSH1 0x1 PUSH1 0x1 PUSH1 0x80 SHL SUB AND PUSH2 0x100 DUP6 ADD MSTORE AND PUSH2 0x120 DUP1 DUP5 ADD SWAP2 SWAP1 SWAP2 MSTORE DUP2 MLOAD DUP1 DUP5 SUB SWAP1 SWAP2 ADD DUP2 MSTORE PUSH2 0x140 SWAP1 SWAP3 ADD SWAP1 MSTORE DUP1 MLOAD SWAP2 ADD KECCAK256 SWAP1 JUMP JUMPDEST PUSH1 0x1 PUSH1 0x1 PUSH1 0xA0 SHL SUB DUP2 AND PUSH2 0x2E1 JUMPI PUSH1 0x40 MLOAD PUSH3 0x461BCD PUSH1 0xE5 SHL DUP2 MSTORE PUSH1 0x20 PUSH1 0x4 DUP3 ADD MSTORE PUSH1 0x8 PUSH1 0x24 DUP3 ADD MSTORE PUSH8 0x6973737565723D3 PUSH1 0xC4 SHL PUSH1 0x44 DUP3 ADD MSTORE PUSH1 0x64 ADD JUMPDEST PUSH1 0x40 MLOAD DUP1 SWAP2 SUB SWAP1 REVERT JUMPDEST PUSH1 0x0 DUP1 SLOAD PUSH1 0x1 PUSH1 0x1 PUSH1 0xA0 SHL SUB NOT AND PUSH1 0x1 PUSH1 0x1 PUSH1 0xA0 SHL SUB SWAP3 SWAP1 SWAP3 AND SWAP2 SWAP1 SWAP2 OR SWAP1 SSTORE JUMP JUMPDEST PUSH1 0x0 PUSH2 0x315 DUP10 DUP10 DUP10 DUP10 DUP10 DUP10 DUP10 DUP10 PUSH2 0x1F4 JUMP JUMPDEST SWAP10 SWAP9 POP POP POP POP POP POP POP POP POP JUMP JUMPDEST PUSH1 0x0 DUP1 PUSH1 0x0 DUP1 PUSH2 0x332 DUP7 DUP7 PUSH2 0x34C JUMP JUMPDEST SWAP3 POP SWAP3 POP SWAP3 POP PUSH2 0x342 DUP3 DUP3 PUSH2 0x399 JUMP JUMPDEST POP SWAP1 SWAP5 SWAP4 POP POP POP POP JUMP JUMPDEST PUSH1 0x0 DUP1 PUSH1 0x0 DUP4 MLOAD PUSH1 0x41 SUB PUSH2 0x386 JUMPI PUSH1 0x20 DUP5 ADD MLOAD PUSH1 0x40 DUP6 ADD MLOAD PUSH1 0x60 DUP7 ADD MLOAD PUSH1 0x0 BYTE PUSH2 0x378 DUP9 DUP3 DUP6 DUP6 PUSH2 0x456 JUMP JUMPDEST SWAP6 POP SWAP6 POP SWAP6 POP POP POP POP PUSH2 0x392 JUMP JUMPDEST POP POP DUP2 MLOAD PUSH1 0x0 SWAP2 POP PUSH1 0x2 SWAP1 JUMPDEST SWAP3 POP SWAP3 POP SWAP3 JUMP JUMPDEST PUSH1 0x0 DUP3 PUSH1 0x3 DUP2 GT ISZERO PUSH2 0x3AD JUMPI PUSH2 0x3AD PUSH2 0x70A JUMP JUMPDEST SUB PUSH2 0x3B6 JUMPI POP POP JUMP JUMPDEST PUSH1 0x1 DUP3 PUSH1 0x3 DUP2 GT ISZERO PUSH2 0x3CA JUMPI PUSH2 0x3CA PUSH2 0x70A JUMP JUMPDEST SUB PUSH2 0x3E8 JUMPI PUSH1 0x40 MLOAD PUSH4 0xF645EEDF PUSH1 0xE0 SHL DUP2 MSTORE PUSH1 0x4 ADD PUSH1 0x40 MLOAD DUP1 SWAP2 SUB SWAP1 REVERT JUMPDEST PUSH1 0x2 DUP3 PUSH1 0x3 DUP2 GT ISZERO PUSH2 0x3FC JUMPI PUSH2 0x3FC PUSH2 0x70A JUMP JUMPDEST SUB PUSH2 0x41D JUMPI PUSH1 0x40 MLOAD PUSH4 0xFCE698F7 PUSH1 0xE0 SHL DUP2 MSTORE PUSH1 0x4 DUP2 ADD DUP3 SWAP1 MSTORE PUSH1 0x24 ADD PUSH2 0x2D8 JUMP JUMPDEST PUSH1 0x3 DUP3 PUSH1 0x3 DUP2 GT ISZERO PUSH2 0x431 JUMPI PUSH2 0x431 PUSH2 0x70A JUMP JUMPDEST SUB PUSH2 0x452 JUMPI PUSH1 0x40 MLOAD PUSH4 0x35E2F383 PUSH1 0xE2 SHL DUP2 MSTORE PUSH1 0x4 DUP2 ADD DUP3 SWAP1 MSTORE PUSH1 0x24 ADD PUSH2 0x2D8 JUMP JUMPDEST POP POP JUMP JUMPDEST PUSH1 0x0 DUP1 DUP1 PUSH32 0x7FFFFFFFFFFFFFFFFFFFFFFFFFFFFFFF5D576E7357A4501DDFE92F46681B20A0 DUP5 GT ISZERO PUSH2 0x491 JUMPI POP PUSH1 0x0 SWAP2 POP PUSH1 0x3 SWAP1 POP DUP3 PUSH2 0x51B JUMP JUMPDEST PUSH1 0x40 DUP1 MLOAD PUSH1 0x0 DUP1 DUP3 MSTORE PUSH1 0x20 DUP3 ADD DUP1 DUP5 MSTORE DUP11 SWAP1 MSTORE PUSH1 0xFF DUP10 AND SWAP3 DUP3 ADD SWAP3 SWAP1 SWAP3 MSTORE PUSH1 0x60 DUP2 ADD DUP8 SWAP1 MSTORE PUSH1 0x80 DUP2 ADD DUP7 SWAP1 MSTORE PUSH1 0x1 SWAP1 PUSH1 0xA0 ADD PUSH1 0x20 PUSH1 0x40 MLOAD PUSH1 0x20 DUP2 SUB SWAP1 DUP1 DUP5 SUB SWAP1 DUP6 GAS STATICCALL ISZERO DUP1 ISZERO PUSH2 0x4E5 JUMPI RETURNDATASIZE PUSH1 0x0 DUP1 RETURNDATACOPY RETURNDATASIZE PUSH1 0x0 REVERT JUMPDEST POP POP PUSH1 0x40 MLOAD PUSH1 0x1F NOT ADD MLOAD SWAP2 POP POP PUSH1 0x1 PUSH1 0x1 PUSH1 0xA0 SHL SUB DUP2 AND PUSH2 0x511 JUMPI POP PUSH1 0x0 SWAP3 POP PUSH1 0x1 SWAP2 POP DUP3 SWAP1 POP PUSH2 0x51B JUMP JUMPDEST SWAP3 POP PUSH1 0x0 SWAP2 POP DUP2 SWAP1 POP JUMPDEST SWAP5 POP SWAP5 POP SWAP5 SWAP2 POP POP JUMP JUMPDEST DUP1 CALLDATALOAD PUSH1 0x1 PUSH1 0x1 PUSH1 0xA0 SHL SUB DUP2 AND DUP2 EQ PUSH2 0x53C JUMPI PUSH1 0x0 DUP1 REVERT JUMPDEST SWAP2 SWAP1 POP JUMP JUMPDEST DUP1 CALLDATALOAD PUSH8 0xFFFFFFFFFFFFFFFF DUP2 AND DUP2 EQ PUSH2 0x53C JUMPI PUSH1 0x0 DUP1 REVERT JUMPDEST DUP1 CALLDATALOAD PUSH2 0xFFFF DUP2 AND DUP2 EQ PUSH2 0x53C JUMPI PUSH1 0x0 DUP1 REVERT JUMPDEST DUP1 CALLDATALOAD PUSH1 0x1 PUSH1 0x1 PUSH1 0x80 SHL SUB DUP2 AND DUP2 EQ PUSH2 0x53C JUMPI PUSH1 0x0 DUP1 REVERT JUMPDEST PUSH1 0x0 DUP1 PUSH1 0x0 DUP1 PUSH1 0x0 DUP1 PUSH1 0x0 DUP1 PUSH1 0x0 DUP1 PUSH2 0x120 DUP12 DUP14 SUB SLT ISZERO PUSH2 0x5A2 JUMPI PUSH1 0x0 DUP1 REVERT JUMPDEST PUSH2 0x5AB DUP12 PUSH2 0x525 JUMP JUMPDEST SWAP10 POP PUSH1 0x20 DUP12 ADD CALLDATALOAD SWAP9 POP PUSH1 0x40 DUP12 ADD CALLDATALOAD SWAP8 POP PUSH2 0x5C7 PUSH1 0x60 DUP13 ADD PUSH2 0x541 JUMP JUMPDEST SWAP7 POP PUSH2 0x5D5 PUSH1 0x80 DUP13 ADD PUSH2 0x559 JUMP JUMPDEST SWAP6 POP PUSH1 0xA0 DUP12 ADD CALLDATALOAD SWAP5 POP PUSH2 0x5EA PUSH1 0xC0 DUP13 ADD PUSH2 0x56B JUMP JUMPDEST SWAP4 POP PUSH2 0x5F8 PUSH1 0xE0 DUP13 ADD PUSH2 0x541 JUMP JUMPDEST SWAP3 POP PUSH2 0x100 DUP12 ADD CALLDATALOAD PUSH8 0xFFFFFFFFFFFFFFFF DUP1 DUP3 GT ISZERO PUSH2 0x616 JUMPI PUSH1 0x0 DUP1 REVERT JUMPDEST DUP2 DUP14 ADD SWAP2 POP DUP14 PUSH1 0x1F DUP4 ADD SLT PUSH2 0x62A JUMPI PUSH1 0x0 DUP1 REVERT JUMPDEST DUP2 CALLDATALOAD DUP2 DUP2 GT ISZERO PUSH2 0x639 JUMPI PUSH1 0x0 DUP1 REVERT JUMPDEST DUP15 PUSH1 0x20 DUP3 DUP6 ADD ADD GT ISZERO PUSH2 0x64B JUMPI PUSH1 0x0 DUP1 REVERT JUMPDEST PUSH1 0x20 DUP4 ADD SWAP5 POP DUP1 SWAP4 POP POP POP POP SWAP3 SWAP6 SWAP9 SWAP12 SWAP2 SWAP5 SWAP8 SWAP11 POP SWAP3 SWAP6 SWAP9 POP JUMP JUMPDEST PUSH1 0x0 DUP1 PUSH1 0x0 DUP1 PUSH1 0x0 DUP1 PUSH1 0x0 DUP1 PUSH2 0x100 DUP10 DUP12 SUB SLT ISZERO PUSH2 0x683 JUMPI PUSH1 0x0 DUP1 REVERT JUMPDEST PUSH2 0x68C DUP10 PUSH2 0x525 JUMP JUMPDEST SWAP8 POP PUSH1 0x20 DUP10 ADD CALLDATALOAD SWAP7 POP PUSH1 0x40 DUP10 ADD CALLDATALOAD SWAP6 POP PUSH2 0x6A8 PUSH1 0x60 DUP11 ADD PUSH2 0x541 JUMP JUMPDEST SWAP5 POP PUSH2 0x6B6 PUSH1 0x80 DUP11 ADD PUSH2 0x559 JUMP JUMPDEST SWAP4 POP PUSH1 0xA0 DUP10 ADD CALLDATALOAD SWAP3 POP PUSH2 0x6CB PUSH1 0xC0 DUP11 ADD PUSH2 0x56B JUMP JUMPDEST SWAP2 POP PUSH2 0x6D9 PUSH1 0xE0 DUP11 ADD PUSH2 0x541 JUMP JUMPDEST SWAP1 POP SWAP3 SWAP6 SWAP9 POP SWAP3 SWAP6 SWAP9 SWAP1 SWAP4 SWAP7 POP JUMP JUMPDEST PUSH1 0x0 PUSH1 0x20 DUP3 DUP5 SUB SLT ISZERO PUSH2 0x6FA JUMPI PUSH1 0x0 DUP1 REVERT JUMPDEST PUSH2 0x703 DUP3 PUSH2 0x525 JUMP JUMPDEST SWAP4 SWAP3 POP POP POP JUMP JUMPDEST PUSH4 0x4E487B71 PUSH1 0xE0 SHL PUSH1 0x0 MSTORE PUSH1 0x21 PUSH1 0x4 MSTORE PUSH1 0x24 PUSH1 0x0 REVERT INVALID LOG2 PUSH5 0x6970667358 0x22 SLT KECCAK256 0xC4 DUP10 0x1F 0xAE 0xEF 0xAD LOG4 CODESIZE CALLER 0xD9 LOG2 SWAP5 0x5E STOP PUSH22 0x706C4DFE392FAE4140DC2A5850D315AA8B64736F6C63 NUMBER STOP ADDMOD OR STOP CALLER "},"methodIdentifiers":{"DOMAIN()":"52a9674b","computeDigest(address,bytes32,bytes32,uint64,uint16,uint256,uint128,uint64)":"e7170138","digest(address,bytes32,bytes32,uint64,uint16,uint256,uint128,uint64)":"1da3b2d1","issuerSigner()":"895c1697","setIssuerSigner(address)":"794c5e90","verify(address,bytes32,bytes32,uint64,uint16,uint256,uint128,uint64,bytes)":"1be96f55"}}}}}