{
  "_format": "hh-sol-artifact-1",
  "contractName": "GTokenAnchor",
  "sourceName": "contracts/l1/GTokenAnchor.sol",
  "abi": [
    {
      "inputs": [
        {
          "internalType": "address",
          "name": "messenger_",
          "type": "address"
        },
        {
          "internalType": "address",
          "name": "",
          "type": "address"
        }
      ],
      "stateMutability": "nonpayable",
      "type": "constructor"
    },
    {
      "inputs": [],
      "name": "AccessControlBadConfirmation",
      "type": "error"
    },
    {
      "inputs": [
        {
          "internalType": "address",
          "name": "account",
          "type": "address"
        },
        {
          "internalType": "bytes32",
          "name": "neededRole",
          "type": "bytes32"
        }
      ],
      "name": "AccessControlUnauthorizedAccount",
      "type": "error"
    },
    {
      "inputs": [
        {
          "internalType": "bytes32",
          "name": "dtHash",
          "type": "bytes32"
        }
      ],
      "name": "AlreadyAnchored",
      "type": "error"
    },
    {
      "inputs": [],
      "name": "NotFromAuthorizedL2Sender",
      "type": "error"
    },
    {
      "inputs": [],
      "name": "NotFromMessenger",
      "type": "error"
    },
    {
      "anonymous": false,
      "inputs": [
        {
          "indexed": true,
          "internalType": "bytes32",
          "name": "dtHash",
          "type": "bytes32"
        },
        {
          "indexed": true,
          "internalType": "address",
          "name": "to",
          "type": "address"
        },
        {
          "indexed": false,
          "internalType": "uint256",
          "name": "gtAmount",
          "type": "uint256"
        },
        {
          "indexed": false,
          "internalType": "uint64",
          "name": "epochIndex",
          "type": "uint64"
        },
        {
          "indexed": false,
          "internalType": "uint16",
          "name": "typeCode",
          "type": "uint16"
        },
        {
          "indexed": false,
          "internalType": "uint256",
          "name": "qtyKWh",
          "type": "uint256"
        }
      ],
      "name": "MintAnchored",
      "type": "event"
    },
    {
      "anonymous": false,
      "inputs": [
        {
          "indexed": true,
          "internalType": "bytes32",
          "name": "role",
          "type": "bytes32"
        },
        {
          "indexed": true,
          "internalType": "bytes32",
          "name": "previousAdminRole",
          "type": "bytes32"
        },
        {
          "indexed": true,
          "internalType": "bytes32",
          "name": "newAdminRole",
          "type": "bytes32"
        }
      ],
      "name": "RoleAdminChanged",
      "type": "event"
    },
    {
      "anonymous": false,
      "inputs": [
        {
          "indexed": true,
          "internalType": "bytes32",
          "name": "role",
          "type": "bytes32"
        },
        {
          "indexed": true,
          "internalType": "address",
          "name": "account",
          "type": "address"
        },
        {
          "indexed": true,
          "internalType": "address",
          "name": "sender",
          "type": "address"
        }
      ],
      "name": "RoleGranted",
      "type": "event"
    },
    {
      "anonymous": false,
      "inputs": [
        {
          "indexed": true,
          "internalType": "bytes32",
          "name": "role",
          "type": "bytes32"
        },
        {
          "indexed": true,
          "internalType": "address",
          "name": "account",
          "type": "address"
        },
        {
          "indexed": true,
          "internalType": "address",
          "name": "sender",
          "type": "address"
        }
      ],
      "name": "RoleRevoked",
      "type": "event"
    },
    {
      "inputs": [],
      "name": "DEFAULT_ADMIN_ROLE",
      "outputs": [
        {
          "internalType": "bytes32",
          "name": "",
          "type": "bytes32"
        }
      ],
      "stateMutability": "view",
      "type": "function"
    },
    {
      "inputs": [
        {
          "internalType": "bytes32",
          "name": "dtHash",
          "type": "bytes32"
        }
      ],
      "name": "anchorInfo",
      "outputs": [
        {
          "components": [
            {
              "internalType": "address",
              "name": "to",
              "type": "address"
            },
            {
              "internalType": "uint256",
              "name": "gtAmount",
              "type": "uint256"
            },
            {
              "internalType": "uint64",
              "name": "epochIndex",
              "type": "uint64"
            },
            {
              "internalType": "uint16",
              "name": "typeCode",
              "type": "uint16"
            },
            {
              "internalType": "uint256",
              "name": "qtyKWh",
              "type": "uint256"
            },
            {
              "internalType": "uint256",
              "name": "timestamp",
              "type": "uint256"
            }
          ],
          "internalType": "struct GTokenAnchor.AnchorInfo",
          "name": "",
          "type": "tuple"
        }
      ],
      "stateMutability": "view",
      "type": "function"
    },
    {
      "inputs": [],
      "name": "configured",
      "outputs": [
        {
          "internalType": "bool",
          "name": "",
          "type": "bool"
        }
      ],
      "stateMutability": "view",
      "type": "function"
    },
    {
      "inputs": [
        {
          "internalType": "bytes32",
          "name": "role",
          "type": "bytes32"
        }
      ],
      "name": "getRoleAdmin",
      "outputs": [
        {
          "internalType": "bytes32",
          "name": "",
          "type": "bytes32"
        }
      ],
      "stateMutability": "view",
      "type": "function"
    },
    {
      "inputs": [
        {
          "internalType": "bytes32",
          "name": "role",
          "type": "bytes32"
        },
        {
          "internalType": "address",
          "name": "account",
          "type": "address"
        }
      ],
      "name": "grantRole",
      "outputs": [],
      "stateMutability": "nonpayable",
      "type": "function"
    },
    {
      "inputs": [
        {
          "internalType": "bytes32",
          "name": "role",
          "type": "bytes32"
        },
        {
          "internalType": "address",
          "name": "account",
          "type": "address"
        }
      ],
      "name": "hasRole",
      "outputs": [
        {
          "internalType": "bool",
          "name": "",
          "type": "bool"
        }
      ],
      "stateMutability": "view",
      "type": "function"
    },
    {
      "inputs": [
        {
          "internalType": "bytes32",
          "name": "dtHash",
          "type": "bytes32"
        }
      ],
      "name": "isAnchored",
      "outputs": [
        {
          "internalType": "bool",
          "name": "",
          "type": "bool"
        }
      ],
      "stateMutability": "view",
      "type": "function"
    },
    {
      "inputs": [],
      "name": "l2GToken",
      "outputs": [
        {
          "internalType": "address",
          "name": "",
          "type": "address"
        }
      ],
      "stateMutability": "view",
      "type": "function"
    },
    {
      "inputs": [],
      "name": "messenger",
      "outputs": [
        {
          "internalType": "contract ICrossDomainMessenger",
          "name": "",
          "type": "address"
        }
      ],
      "stateMutability": "view",
      "type": "function"
    },
    {
      "inputs": [
        {
          "internalType": "bytes32",
          "name": "dtHash",
          "type": "bytes32"
        },
        {
          "internalType": "address",
          "name": "to",
          "type": "address"
        },
        {
          "internalType": "uint256",
          "name": "gtAmount",
          "type": "uint256"
        },
        {
          "internalType": "uint64",
          "name": "epochIndex",
          "type": "uint64"
        },
        {
          "internalType": "uint16",
          "name": "typeCode",
          "type": "uint16"
        },
        {
          "internalType": "uint256",
          "name": "qtyKWh",
          "type": "uint256"
        }
      ],
      "name": "recordMint",
      "outputs": [],
      "stateMutability": "nonpayable",
      "type": "function"
    },
    {
      "inputs": [
        {
          "internalType": "bytes32",
          "name": "role",
          "type": "bytes32"
        },
        {
          "internalType": "address",
          "name": "callerConfirmation",
          "type": "address"
        }
      ],
      "name": "renounceRole",
      "outputs": [],
      "stateMutability": "nonpayable",
      "type": "function"
    },
    {
      "inputs": [
        {
          "internalType": "bytes32",
          "name": "role",
          "type": "bytes32"
        },
        {
          "internalType": "address",
          "name": "account",
          "type": "address"
        }
      ],
      "name": "revokeRole",
      "outputs": [],
      "stateMutability": "nonpayable",
      "type": "function"
    },
    {
      "inputs": [
        {
          "internalType": "address",
          "name": "messenger_",
          "type": "address"
        },
        {
          "internalType": "address",
          "name": "l2GToken_",
          "type": "address"
        }
      ],
      "name": "setConfig",
      "outputs": [],
      "stateMutability": "nonpayable",
      "type": "function"
    },
    {
      "inputs": [
        {
          "internalType": "bytes4",
          "name": "interfaceId",
          "type": "bytes4"
        }
      ],
      "name": "supportsInterface",
      "outputs": [
        {
          "internalType": "bool",
          "name": "",
          "type": "bool"
        }
      ],
      "stateMutability": "view",
      "type": "function"
    }
  ],
  "bytecode": "0x608060405234801561001057600080fd5b50604051610b4a380380610b4a83398101604081905261002f91610135565b600180546001600160a01b0319166001600160a01b03841617905561005560003361006d565b5050600280546001600160a81b031916905550610168565b6000828152602081815260408083206001600160a01b038516845290915281205460ff1661010f576000838152602081815260408083206001600160a01b03861684529091529020805460ff191660011790556100c73390565b6001600160a01b0316826001600160a01b0316847f2f8788117e7eff1d82e926ec794901d17c78024a50270940304540a733656f0d60405160405180910390a4506001610113565b5060005b92915050565b80516001600160a01b038116811461013057600080fd5b919050565b6000806040838503121561014857600080fd5b61015183610119565b915061015f60208401610119565b90509250929050565b6109d3806101776000396000f3fe608060405234801561001057600080fd5b50600436106100ea5760003560e01c80634f0b58011161008c57806391d148541161006657806391d1485414610310578063a217fddf14610323578063b602024b1461032b578063d547741f1461033e57600080fd5b80634f0b5801146101c157806361c035fc146101e65780638772a23a146102fc57600080fd5b80632f2ff15d116100c85780632f2ff15d1461017357806336568abe146101885780633cb747bf1461019b578063439780e4146101ae57600080fd5b806301ffc9a7146100ef578063141dab8d14610117578063248a9ca314610142575b600080fd5b6101026100fd366004610848565b610351565b60405190151581526020015b60405180910390f35b60025461012a906001600160a01b031681565b6040516001600160a01b03909116815260200161010e565b610165610150366004610879565b60009081526020819052604090206001015490565b60405190815260200161010e565b6101866101813660046108a7565b610388565b005b6101866101963660046108a7565b6103b3565b60015461012a906001600160a01b031681565b6101866101bc3660046108d7565b6103eb565b6101026101cf366004610879565b600090815260036020526040902060040154151590565b61029e6101f4366004610879565b6040805160c081018252600080825260208201819052918101829052606081018290526080810182905260a081019190915250600090815260036020818152604092839020835160c08101855281546001600160a01b03168152600182015492810192909252600281015467ffffffffffffffff8116948301949094526801000000000000000090930461ffff16606082015290820154608082015260049091015460a082015290565b60405161010e919081516001600160a01b031681526020808301519082015260408083015167ffffffffffffffff169082015260608083015161ffff16908201526080808301519082015260a0918201519181019190915260c00190565b60025461010290600160a01b900460ff1681565b61010261031e3660046108a7565b61066c565b610165600081565b610186610339366004610952565b610695565b61018661034c3660046108a7565b6106dc565b60006001600160e01b03198216637965db0b60e01b148061038257506301ffc9a760e01b6001600160e01b03198316145b92915050565b6000828152602081905260409020600101546103a381610701565b6103ad838361070e565b50505050565b6001600160a01b03811633146103dc5760405163334bd91960e11b815260040160405180910390fd5b6103e682826107a0565b505050565b6001546001600160a01b031633146104165760405163f3760f3f60e01b815260040160405180910390fd5b600254600160a01b900460ff1615806104ab575060025460015460408051636e296e4560e01b815290516001600160a01b039384169390921691636e296e45916004808201926020929091908290030181865afa15801561047b573d6000803e3d6000fd5b505050506040513d601f19601f8201168201806040525081019061049f9190610980565b6001600160a01b031614155b156104c957604051630c010ae160e11b815260040160405180910390fd5b60008681526003602052604090206004015415610501576040516330d2381360e01b8152600481018790526024015b60405180910390fd5b6040518060c00160405280866001600160a01b031681526020018581526020018467ffffffffffffffff1681526020018361ffff168152602001828152602001428152506003600088815260200190815260200160002060008201518160000160006101000a8154816001600160a01b0302191690836001600160a01b031602179055506020820151816001015560408201518160020160006101000a81548167ffffffffffffffff021916908367ffffffffffffffff16021790555060608201518160020160086101000a81548161ffff021916908361ffff1602179055506080820151816003015560a08201518160040155905050846001600160a01b0316867f64cbed9d7bb705cfef4a43cf8b46e900b06b78cd6ec36e651524f9fc3ddff13c8686868660405161065c949392919093845267ffffffffffffffff92909216602084015261ffff166040830152606082015260800190565b60405180910390a3505050505050565b6000918252602082815260408084206001600160a01b0393909316845291905290205460ff1690565b60006106a081610701565b50600180546001600160a01b039384166001600160a01b0319909116179055600280546001600160a81b0319169190921617600160a01b179055565b6000828152602081905260409020600101546106f781610701565b6103ad83836107a0565b61070b813361080b565b50565b600061071a838361066c565b610798576000838152602081815260408083206001600160a01b03861684529091529020805460ff191660011790556107503390565b6001600160a01b0316826001600160a01b0316847f2f8788117e7eff1d82e926ec794901d17c78024a50270940304540a733656f0d60405160405180910390a4506001610382565b506000610382565b60006107ac838361066c565b15610798576000838152602081815260408083206001600160a01b0386168085529252808320805460ff1916905551339286917ff6391f5c32d9c69d2a47ea670b442974b53935d1edc7fd64eb21e047a839171b9190a4506001610382565b610815828261066c565b6108445760405163e2517d3f60e01b81526001600160a01b0382166004820152602481018390526044016104f8565b5050565b60006020828403121561085a57600080fd5b81356001600160e01b03198116811461087257600080fd5b9392505050565b60006020828403121561088b57600080fd5b5035919050565b6001600160a01b038116811461070b57600080fd5b600080604083850312156108ba57600080fd5b8235915060208301356108cc81610892565b809150509250929050565b60008060008060008060c087890312156108f057600080fd5b86359550602087013561090281610892565b945060408701359350606087013567ffffffffffffffff8116811461092657600080fd5b9250608087013561ffff8116811461093d57600080fd5b8092505060a087013590509295509295509295565b6000806040838503121561096557600080fd5b823561097081610892565b915060208301356108cc81610892565b60006020828403121561099257600080fd5b81516108728161089256fea264697066735822122088ff415e656d57b613491c915e3079c18b8539c5bc0f47084a447437eccb342264736f6c63430008170033",
  "linkReferences": {},
  "deployedLinkReferences": {}
}