{
  "_format": "hh-sol-artifact-1",
  "contractName": "MetReg",
  "sourceName": "contracts/private/MetReg.sol",
  "abi": [
    {
      "inputs": [
        {
          "internalType": "address",
          "name": "ga",
          "type": "address"
        },
        {
          "internalType": "address",
          "name": "ra",
          "type": "address"
        }
      ],
      "stateMutability": "nonpayable",
      "type": "constructor"
    },
    {
      "inputs": [],
      "name": "AccessControlBadConfirmation",
      "type": "error"
    },
    {
      "inputs": [
        {
          "internalType": "address",
          "name": "account",
          "type": "address"
        },
        {
          "internalType": "bytes32",
          "name": "neededRole",
          "type": "bytes32"
        }
      ],
      "name": "AccessControlUnauthorizedAccount",
      "type": "error"
    },
    {
      "inputs": [
        {
          "internalType": "bytes32",
          "name": "meterIDHash",
          "type": "bytes32"
        }
      ],
      "name": "MeterAlreadyRegistered",
      "type": "error"
    },
    {
      "anonymous": false,
      "inputs": [
        {
          "indexed": true,
          "internalType": "bytes32",
          "name": "meterIDHash",
          "type": "bytes32"
        },
        {
          "indexed": false,
          "internalType": "bool",
          "name": "isActive",
          "type": "bool"
        },
        {
          "indexed": false,
          "internalType": "bytes32",
          "name": "certHash",
          "type": "bytes32"
        }
      ],
      "name": "MeterRegistered",
      "type": "event"
    },
    {
      "anonymous": false,
      "inputs": [
        {
          "indexed": true,
          "internalType": "bytes32",
          "name": "meterIDHash",
          "type": "bytes32"
        },
        {
          "indexed": false,
          "internalType": "bool",
          "name": "isActive",
          "type": "bool"
        }
      ],
      "name": "MeterStatusUpdated",
      "type": "event"
    },
    {
      "anonymous": false,
      "inputs": [
        {
          "indexed": true,
          "internalType": "bytes32",
          "name": "role",
          "type": "bytes32"
        },
        {
          "indexed": true,
          "internalType": "bytes32",
          "name": "previousAdminRole",
          "type": "bytes32"
        },
        {
          "indexed": true,
          "internalType": "bytes32",
          "name": "newAdminRole",
          "type": "bytes32"
        }
      ],
      "name": "RoleAdminChanged",
      "type": "event"
    },
    {
      "anonymous": false,
      "inputs": [
        {
          "indexed": true,
          "internalType": "bytes32",
          "name": "role",
          "type": "bytes32"
        },
        {
          "indexed": true,
          "internalType": "address",
          "name": "account",
          "type": "address"
        },
        {
          "indexed": true,
          "internalType": "address",
          "name": "sender",
          "type": "address"
        }
      ],
      "name": "RoleGranted",
      "type": "event"
    },
    {
      "anonymous": false,
      "inputs": [
        {
          "indexed": true,
          "internalType": "bytes32",
          "name": "role",
          "type": "bytes32"
        },
        {
          "indexed": true,
          "internalType": "address",
          "name": "account",
          "type": "address"
        },
        {
          "indexed": true,
          "internalType": "address",
          "name": "sender",
          "type": "address"
        }
      ],
      "name": "RoleRevoked",
      "type": "event"
    },
    {
      "inputs": [],
      "name": "DEFAULT_ADMIN_ROLE",
      "outputs": [
        {
          "internalType": "bytes32",
          "name": "",
          "type": "bytes32"
        }
      ],
      "stateMutability": "view",
      "type": "function"
    },
    {
      "inputs": [],
      "name": "GA_ROLE",
      "outputs": [
        {
          "internalType": "bytes32",
          "name": "",
          "type": "bytes32"
        }
      ],
      "stateMutability": "view",
      "type": "function"
    },
    {
      "inputs": [],
      "name": "RA_ROLE",
      "outputs": [
        {
          "internalType": "bytes32",
          "name": "",
          "type": "bytes32"
        }
      ],
      "stateMutability": "view",
      "type": "function"
    },
    {
      "inputs": [
        {
          "internalType": "bytes32",
          "name": "meterIDHash",
          "type": "bytes32"
        }
      ],
      "name": "getMeter",
      "outputs": [
        {
          "components": [
            {
              "internalType": "bool",
              "name": "isActive",
              "type": "bool"
            },
            {
              "internalType": "bytes",
              "name": "cert",
              "type": "bytes"
            },
            {
              "internalType": "uint64",
              "name": "updatedAt",
              "type": "uint64"
            }
          ],
          "internalType": "struct MetReg.MeterRecord",
          "name": "",
          "type": "tuple"
        }
      ],
      "stateMutability": "view",
      "type": "function"
    },
    {
      "inputs": [
        {
          "internalType": "bytes32",
          "name": "role",
          "type": "bytes32"
        }
      ],
      "name": "getRoleAdmin",
      "outputs": [
        {
          "internalType": "bytes32",
          "name": "",
          "type": "bytes32"
        }
      ],
      "stateMutability": "view",
      "type": "function"
    },
    {
      "inputs": [
        {
          "internalType": "bytes32",
          "name": "role",
          "type": "bytes32"
        },
        {
          "internalType": "address",
          "name": "account",
          "type": "address"
        }
      ],
      "name": "grantRole",
      "outputs": [],
      "stateMutability": "nonpayable",
      "type": "function"
    },
    {
      "inputs": [
        {
          "internalType": "bytes32",
          "name": "role",
          "type": "bytes32"
        },
        {
          "internalType": "address",
          "name": "account",
          "type": "address"
        }
      ],
      "name": "hasRole",
      "outputs": [
        {
          "internalType": "bool",
          "name": "",
          "type": "bool"
        }
      ],
      "stateMutability": "view",
      "type": "function"
    },
    {
      "inputs": [
        {
          "internalType": "bytes32",
          "name": "meterIDHash",
          "type": "bytes32"
        }
      ],
      "name": "isMeterActive",
      "outputs": [
        {
          "internalType": "bool",
          "name": "",
          "type": "bool"
        }
      ],
      "stateMutability": "view",
      "type": "function"
    },
    {
      "inputs": [
        {
          "internalType": "bytes32",
          "name": "meterIDHash",
          "type": "bytes32"
        },
        {
          "internalType": "bytes",
          "name": "cert",
          "type": "bytes"
        },
        {
          "internalType": "bool",
          "name": "isActive",
          "type": "bool"
        }
      ],
      "name": "registerMeter",
      "outputs": [],
      "stateMutability": "nonpayable",
      "type": "function"
    },
    {
      "inputs": [
        {
          "internalType": "bytes32",
          "name": "role",
          "type": "bytes32"
        },
        {
          "internalType": "address",
          "name": "callerConfirmation",
          "type": "address"
        }
      ],
      "name": "renounceRole",
      "outputs": [],
      "stateMutability": "nonpayable",
      "type": "function"
    },
    {
      "inputs": [
        {
          "internalType": "bytes32",
          "name": "role",
          "type": "bytes32"
        },
        {
          "internalType": "address",
          "name": "account",
          "type": "address"
        }
      ],
      "name": "revokeRole",
      "outputs": [],
      "stateMutability": "nonpayable",
      "type": "function"
    },
    {
      "inputs": [
        {
          "internalType": "bytes4",
          "name": "interfaceId",
          "type": "bytes4"
        }
      ],
      "name": "supportsInterface",
      "outputs": [
        {
          "internalType": "bool",
          "name": "",
          "type": "bool"
        }
      ],
      "stateMutability": "view",
      "type": "function"
    },
    {
      "inputs": [
        {
          "internalType": "bytes32",
          "name": "meterIDHash",
          "type": "bytes32"
        },
        {
          "internalType": "bool",
          "name": "isActive",
          "type": "bool"
        }
      ],
      "name": "updateMeterStatus",
      "outputs": [],
      "stateMutability": "nonpayable",
      "type": "function"
    },
    {
      "inputs": [
        {
          "internalType": "bytes32",
          "name": "meterIDHash",
          "type": "bytes32"
        }
      ],
      "name": "verifyMeter",
      "outputs": [
        {
          "internalType": "bool",
          "name": "",
          "type": "bool"
        }
      ],
      "stateMutability": "view",
      "type": "function"
    }
  ],
  "bytecode": "0x608060405234801561001057600080fd5b50604051610d91380380610d9183398101604081905261002f91610160565b61003a600083610098565b506100657f7bf4eae929a5beb3de86b09399e1e9400865b34278f5c9ea4d28c2fba843d87a83610098565b506100907f6785eabb20d5cf67046260be3c357bd6a6316beacc7655be5eea637685299dcb82610098565b505050610193565b6000828152602081815260408083206001600160a01b038516845290915281205460ff1661013a576000838152602081815260408083206001600160a01b03861684529091529020805460ff191660011790556100f23390565b6001600160a01b0316826001600160a01b0316847f2f8788117e7eff1d82e926ec794901d17c78024a50270940304540a733656f0d60405160405180910390a450600161013e565b5060005b92915050565b80516001600160a01b038116811461015b57600080fd5b919050565b6000806040838503121561017357600080fd5b61017c83610144565b915061018a60208401610144565b90509250929050565b610bef806101a26000396000f3fe608060405234801561001057600080fd5b50600436106100ea5760003560e01c806391d148541161008c578063a4bc68ac11610066578063a4bc68ac146101eb578063a738707c1461020b578063c31adadd1461021e578063d547741f1461024557600080fd5b806391d14854146101bd578063a1fefb58146101d0578063a217fddf146101e357600080fd5b80632f2ff15d116100c85780632f2ff15d1461015d57806336568abe1461017057806380c36c5d146101835780638b48de701461019657600080fd5b806301ffc9a7146100ef5780631534e23114610117578063248a9ca31461012c575b600080fd5b6101026100fd366004610888565b610258565b60405190151581526020015b60405180910390f35b61012a6101253660046108c7565b61028f565b005b61014f61013a366004610954565b60009081526020819052604090206001015490565b60405190815260200161010e565b61012a61016b36600461096d565b61040f565b61012a61017e36600461096d565b61043a565b610102610191366004610954565b610472565b61014f7f6785eabb20d5cf67046260be3c357bd6a6316beacc7655be5eea637685299dcb81565b6101026101cb36600461096d565b6104f0565b61012a6101de3660046109a9565b610519565b61014f600081565b6101fe6101f9366004610954565b6105ba565b60405161010e91906109d5565b610102610219366004610954565b6106e9565b61014f7f7bf4eae929a5beb3de86b09399e1e9400865b34278f5c9ea4d28c2fba843d87a81565b61012a61025336600461096d565b61071c565b60006001600160e01b03198216637965db0b60e01b148061028957506301ffc9a760e01b6001600160e01b03198316145b92915050565b7f7bf4eae929a5beb3de86b09399e1e9400865b34278f5c9ea4d28c2fba843d87a6102b981610741565b60008581526001602052604090206002015467ffffffffffffffff16156102fb576040516338dab46f60e11b8152600481018690526024015b60405180910390fd5b6040518060600160405280831515815260200185858080601f01602080910402602001604051908101604052809392919081815260200183838082843760009201829052509385525050504267ffffffffffffffff16602092830152878152600180835260409091208351815460ff191690151517815591830151908201906103849082610ae9565b50604091820151600291909101805467ffffffffffffffff191667ffffffffffffffff9092169190911790555185907fa96ae566bc11a3c96a48d106f296643a1610f9af6d6c19106f2c5e61441b7af89084906103e49088908890610ba9565b6040519081900381206104009215158252602082015260400190565b60405180910390a25050505050565b60008281526020819052604090206001015461042a81610741565b610434838361074e565b50505050565b6001600160a01b03811633146104635760405163334bd91960e11b815260040160405180910390fd5b61046d82826107e0565b505050565b60007f6785eabb20d5cf67046260be3c357bd6a6316beacc7655be5eea637685299dcb61049e81610741565b6000838152600160205260409020805460ff1680156104ca5750600281015467ffffffffffffffff1615155b80156104e6575060008160010180546104e290610a65565b9050115b9250505b50919050565b6000918252602082815260408084206001600160a01b0393909316845291905290205460ff1690565b7f7bf4eae929a5beb3de86b09399e1e9400865b34278f5c9ea4d28c2fba843d87a61054381610741565b600083815260016020908152604091829020805460ff191685151590811782556002909101805467ffffffffffffffff19164267ffffffffffffffff16179055915191825284917f626041a363fd5a162f61a14c62ce69d4e4ec5dfc8ac61d6156f263c9418947e9910160405180910390a2505050565b6105ea604051806060016040528060001515815260200160608152602001600067ffffffffffffffff1681525090565b7f6785eabb20d5cf67046260be3c357bd6a6316beacc7655be5eea637685299dcb61061481610741565b600083815260016020818152604092839020835160608101909452805460ff161515845291820180549184019161064a90610a65565b80601f016020809104026020016040519081016040528092919081815260200182805461067690610a65565b80156106c35780601f10610698576101008083540402835291602001916106c3565b820191906000526020600020905b8154815290600101906020018083116106a657829003601f168201915b50505091835250506002919091015467ffffffffffffffff166020909101529392505050565b6000818152600160205260408120805460ff1680156107155750600281015467ffffffffffffffff1615155b9392505050565b60008281526020819052604090206001015461073781610741565b61043483836107e0565b61074b813361084b565b50565b600061075a83836104f0565b6107d8576000838152602081815260408083206001600160a01b03861684529091529020805460ff191660011790556107903390565b6001600160a01b0316826001600160a01b0316847f2f8788117e7eff1d82e926ec794901d17c78024a50270940304540a733656f0d60405160405180910390a4506001610289565b506000610289565b60006107ec83836104f0565b156107d8576000838152602081815260408083206001600160a01b0386168085529252808320805460ff1916905551339286917ff6391f5c32d9c69d2a47ea670b442974b53935d1edc7fd64eb21e047a839171b9190a4506001610289565b61085582826104f0565b6108845760405163e2517d3f60e01b81526001600160a01b0382166004820152602481018390526044016102f2565b5050565b60006020828403121561089a57600080fd5b81356001600160e01b03198116811461071557600080fd5b803580151581146108c257600080fd5b919050565b600080600080606085870312156108dd57600080fd5b84359350602085013567ffffffffffffffff808211156108fc57600080fd5b818701915087601f83011261091057600080fd5b81358181111561091f57600080fd5b88602082850101111561093157600080fd5b602083019550809450505050610949604086016108b2565b905092959194509250565b60006020828403121561096657600080fd5b5035919050565b6000806040838503121561098057600080fd5b8235915060208301356001600160a01b038116811461099e57600080fd5b809150509250929050565b600080604083850312156109bc57600080fd5b823591506109cc602084016108b2565b90509250929050565b60006020808352835115156020840152602084015160606040850152805180608086015260005b81811015610a185782810184015186820160a0015283016109fc565b50600085820160a00152604086015167ffffffffffffffff811660608701529250601f01601f19169390930160a001949350505050565b634e487b7160e01b600052604160045260246000fd5b600181811c90821680610a7957607f821691505b6020821081036104ea57634e487b7160e01b600052602260045260246000fd5b601f82111561046d576000816000526020600020601f850160051c81016020861015610ac25750805b601f850160051c820191505b81811015610ae157828155600101610ace565b505050505050565b815167ffffffffffffffff811115610b0357610b03610a4f565b610b1781610b118454610a65565b84610a99565b602080601f831160018114610b4c5760008415610b345750858301515b600019600386901b1c1916600185901b178555610ae1565b600085815260208120601f198616915b82811015610b7b57888601518255948401946001909101908401610b5c565b5085821015610b995787850151600019600388901b60f8161c191681555b5050505050600190811b01905550565b818382376000910190815291905056fea2646970667358221220359d5983ffdcea357c4e9684a8ada706bc8a8e17499f4cb75a541afb84a7f39064736f6c63430008170033",
  "linkReferences": {},
  "deployedLinkReferences": {}
}